:020000040800F2
:10000000A08F002061030008D94F0008194800089C
:10001000A54F00084D280008415B000800000000C3
:10002000000000000000000000000000A102000825
:10003000CD29000800000000FD02000895530008CB
:100040007B0300087B0300087B0300087B03000898
:100050007B0300087B030008AD2A0008D92A0008AA
:100060007B0300087B0300087B03000805290008C8
:100070007B0300087B0300087B0300087B03000868
:100080007B0300087B0300087B0300087B03000858
:100090007B0300087B0300087B0300087B03000848
:1000A0007B0300087B0300087B0300087B03000838
:1000B0007B0300087B0300087B0300087B03000828
:1000C0007B0300087B0300087B0300087B03000818
:1000D0007B030008A55A0008C55A0008F95A000811
:1000E0007B0300087B0300087B0300087B030008F8
:1000F0007B0300087B0300087B030008112900082C
:100100007B0300087B0300087B0300087B030008D7
:1001100049550008DD5500087B03000865540008B8
:100120007B0300087B0300087B0300081D290008EF
:100130007B0300087B0300087B0300087B030008A7
:100140007B0300087B0300087B0300087B03000897
:100150007B0300087B0300087B0300087B03000887
:100160007B0300087B0300087B0300087B03000877
:100170007B0300087B0300087B03000800000000ED
:100180007B0300087B03000800F002F800F078F819
:100190000AA090E8000C82448344AAF10107DA45E2
:1001A00001D100F06DF8AFF2090EBAE80F0013F0BC
:1001B000010F18BFFB1A43F001031847FC1301009D
:1001C0001C1401000A444FF0000C10F8013B13F01E
:1001D000070408BF10F8014B1D1108BF10F8015BA0
:1001E000641E05D010F8016B641E01F8016BF9D193
:1001F00013F0080F1EBF10F8014BAD1C0C1B09D1EA
:100200006D1E58BF01F801CBFAD505E014F8016B5B
:1002100001F8016B6D1EF9D59142D6D370470000ED
:100220000023002400250026103A28BF78C1FBD8FF
:10023000520728BF30C148BF0B607047662908F0DD
:100240001185752900F0B481632900F06686732951
:1002500000F06B86002070471FB508F0F6FC01F037
:100260001FF904000020002107F04EFE401C6060D2
:100270000020002107F032FEE0601FBD10B510BD68
:1002800001F0D7FB1146FFF7E7FF06F0B3FB00F0E4
:10029000E9F903B4FFF7F2FF03BC01F0C3FB000070
:1002A0002C4B19680868B0E8F04F80F30988BFF359
:1002B0006F8F4FF0000080F311887047000000003E
:1002C00008480068006880F308884FF0000080F359
:1002D000148862B661B6BFF34F8FBFF36F8F00DF34
:1002E00000BF00BF08ED00E0DFF80C00016841F43A
:1002F00070010160704700BF88ED00E0EFF30980F6
:10030000BFF36F8F134B1A681EF0100F08BF20ED5C
:10031000108A20E9F04F106009B44FF0500080F3CC
:100320001188BFF34F8FBFF36F8F07F0F1FA4FF0D3
:10033000000080F3118809BC19680868B0E8F04F24
:100340001EF0100F08BFB0EC108A80F30988BFF3CD
:100350006F8F704740000020EFF30580704700006A
:100360000948804709480047FEE7FEE7FEE7FEE749
:10037000FEE7FEE7FEE7FEE7FEE7FEE70448054985
:10038000054A064B704700005554000889010008D3
:10039000A0890020A08F0020A08B0020A08B00202F
:1003A00053EA020C00F069802DE9F04B4FF0000693
:1003B000002B1FBFB3FA83F503FA05F424FA05F600
:1003C0005E4012BF1643B2FA82F502FA05F4C5F197
:1003D00020051EBF22FA05FC44EA0C04203556EA2B
:1003E000044C4FEA144418BF641C4FF000084FF04F
:1003F0000009904271EB030C39D3002919BFB1FAFF
:1004000081F701FA07F6B0FA80F700FA07F6C7F1AC
:1004100020071EBF20FA07FC46EA0C062037B6FB71
:10042000F4FCA7EB0507103F07F01F0BCBF12006EC
:100430000CFA0BFB2CFA06F644BFB3460026202F1D
:10044000A4BF5E464FF0000B5BEA060C08BF4FF0FE
:10045000010B19EB0B09ABFB027C48EB0608C01B38
:1004600006FB02CC0BFB03CC71EB0C01C1E70B4686
:10047000024641464846BDE8F08B13B54FF00000F8
:100480004FF00001AFF30080BDE81C407047000052
:100490000FB41CB5084B06AA7B446946009005982A
:1004A00000F011FD04460020694600F01FFD2046C3
:1004B0001CBC5DF814FB0000510A00000FB47CB5B1
:1004C0000C0009AA009001D02044401E084B7B4438
:1004D00069460190089800F0F6FC05461CB1002022
:1004E000694600F003FD28467CBC5DF814FB000063
:1004F000250A00002DE9F0410E4604460020206246
:100500002046E168884730B3252805D0D4E9012189
:100510009047206A401CF2E7E168204600278847A0
:10052000050018D0A5F14100192802D820354FF454
:1005300000673246294620462760FFF77FFE40B11C
:10054000012804D0F61D26F007060836D8E7361D28
:10055000D6E72846DAE7206ABDE8F08170B50C4698
:100560000546012A05D02878800600D5EA690023CF
:1005700002E0012305E05B1C934202D2E05C00280C
:10058000F9D1A869E618C01AA861286A1844286237
:100590002846AFF3008004E0D5E9012114F8010BEF
:1005A0009047B442F8D32846AFF3008070BD0000F6
:1005B0002DE9F0410646002410687529314616A53C
:1005C00010D0AFF30080002802DA404213A507E004
:1005D00031688A0701D512A502E0490704D511A5A3
:1005E000012401E0AFF3008000210A2206F1240774
:1005F00009E0B0FBF2FCB0FBF2F302FB1C00303070
:1006000078541846491C0028F3D123462A46304620
:10061000BDE8F04100F0EAB9000000002D00000044
:100620002B000000200000000FB400B58DB010A911
:10063000099000910B904FF0FF300A9000200C9031
:10064000064878440690064878446A4607900F9911
:1006500009A800F0F1FE0DB05DF814FB130E0000C8
:100660002B0E000010B50446AFF300802046BDE815
:100670001040FFF70EBE30B505460B462A4613F86C
:10068000014B12F8010B08B1A042F8D01CB10028B0
:1006900002D06D1CF1E7284630BD40EA010310B5D9
:1006A0009B070FD1042A0DD310C808C9121F9C4202
:1006B000F8D020BA19BA884201D9012010BD4FF0F4
:1006C000FF3010BD1AB1D30703D0521C07E0002041
:1006D00010BD10F8013B11F8014B1B1B07D110F89E
:1006E000013B11F8014B1B1B01D1921EF1D11846A1
:1006F00010BD40EA0103024630B59B0710D14FF010
:10070000013400E008C208C91D1B9D4315EAC41F3F
:10071000F8D013F0FF0102F8011B0DD01B0AF8E717
:1007200011F8013B002B02F8013B05D011F8013B09
:10073000002B02F8013BF3D130BD10B5431C02E0A1
:1007400010F8011B71B18107FAD14FF0013202C8D4
:100750008C1A8C4314EAC211F9D0C01A0A0603D0CD
:10076000C01E10BDC01A10BD0A0401D0801E10BDED
:100770000902FCD0401E10BD032A40F2308010F068
:10078000030C00F0158011F8013BBCF1020F62442C
:1007900098BF11F801CB00F8013B38BF11F8013BBD
:1007A000A2F1040298BF00F801CB38BF00F8013B6A
:1007B00011F0030300F02580083AC0F0088051F8DA
:1007C000043B083A51F804CBA0E80810F5E7121DE5
:1007D0005CBF51F8043B40F8043BAFF30080D20704
:1007E00024BF11F8013B11F801CB48BF11F8012BD0
:1007F00024BF00F8013B00F801CB48BF00F8012BF3
:10080000704710B5203AC0F00B80B1E81850203A7C
:10081000A0E81850B1E81850A0E81850BFF4F5AFA0
:100820005FEA027C24BFB1E81850A0E8185044BF2A
:1008300018C918C0BDE810405FEA827C24BF51F897
:10084000043B40F8043B08BF7047D20728BF31F88B
:10085000023B48BF11F8012B28BF20F8023B48BFDC
:1008600000F8012B70474FF000020429C0F01280FD
:1008700010F0030C00F01B80CCF1040CBCF1020F53
:1008800018BF00F8012BA8BF20F8022BA1EB0C0128
:1008900000F00DB85FEAC17C24BF00F8012B00F81E
:1008A000012B48BF00F8012B70474FF0000200B544
:1008B000134694469646203922BFA0E80C50A0E883
:1008C0000C50B1F12001BFF4F7AF090728BFA0E831
:1008D0000C5048BF0CC05DF804EB890028BF40F8FD
:1008E000042B08BF704748BF20F8022B11F0804F3F
:1008F00018BF00F8012B704710B5044610F0030F25
:1009000008BF11F0030F40F015804FF0013E121F99
:10091000C0F20E8051F8043BA3EB0E0C2CEA030C42
:100920001CEACE1C08BF40F8043BF0D0A1F1040142
:1009300002F10402521E08DB11F8013B002B00F803
:10094000013BF7D11146FFF78EFF204610BD000096
:100950004FF0013C50F8042B51F8043B9A4221D14E
:10096000A2EB0C03934313EACC1317D150F8042BDA
:1009700051F8043B9A4215D1A2EB0C03934313EABE
:10098000CC130BD150F8042B51F8043B9A4209D1F7
:10099000A2EB0C03934313EACC13DBD04FF000001F
:1009A000704700BFD01A01BAB1FA81F101F0180105
:1009B00022FA01F0CB40C1F12001DBB2C0B2C01A73
:1009C0002CFA01F3D11A914311EAC311E6D1704711
:1009D00070477047704710B500F066FD006810BDA5
:1009E00010B5044600F060FD046010BD2DE9F0472D
:1009F0000D4699469246044600F12408016888068F
:100A000004D5E06921F01001216000E00120A84236
:100A100001DD471B00E00027A1697A1902EB0900FC
:100A2000081AA0612078C00602D42046AFF30080E7
:100A3000002608E0D4E901211AF806009047206A50
:100A4000401C761C20624E45F4DB2078C0060AD597
:100A50002046AFF3008006E0D4E901213020904722
:100A6000206A401C2062381EA7F10107F4DC07E071
:100A7000D4E9012118F805009047206A401C206243
:100A8000281EA5F10105F3DC2046AFF30080207895
:100A9000000602D50220BDE8F0870120FBE7704781
:100AA0002DE9FF4F0C461E464FF0FF378BB0D2E9C1
:100AB0000001DDF860800A908A46C1F30A5505B945
:100AC0003D46002108464FF00000BAF1000F00F447
:100AD000400005DA00EB80004FF4400101EA5000CD
:100AE0004FEA9059B9F1010F00DDB9460A9850EA72
:100AF0004A000ED044F61050A5F2FF3545432F149E
:100B0000B8F1000F1ED07542291E1EDDC9F100028A
:100B10001CE0B8F1010F4FF0000001D0302103E0DC
:100B2000F24305E02154401CB042FBDB304600227A
:100B3000002121540B99C1F80880C1E900200FB0B1
:100B4000BDE8F08FBD1B6D1CDEE74A4600DA694246
:100B500006A800F0F5FE06AB93E8070003AB83E8B8
:100B6000070050460A9901F0DCF98DE80700A0F56E
:100B700000501F3800900398002D0ADD42F21F013B
:100B80004A460844002303A90390684601F088FC04
:100B900009E0A0F500504A461F38002303A903903E
:100BA000684601F0A7FC8DE807000004000C03D0A4
:100BB0004FF0FF30410800E01046B8F1000F03D0BD
:100BC0000022009215461EE0751E05D400F070FC50
:100BD000303262556D1EF9D5B3460122084302D06A
:100BE00000227F1C04E02078302801D100227F1EE3
:100BF000002A099784D01DE0112D07DA00F058FC77
:100C0000303262556D1C50EA0102F5D1084302D022
:100C10000098C8B10EE00021681E05E0235C625C0C
:100C200063542254401E491C8142F7DBAB46A81B8B
:100C3000401E0990002004F80B000B98099AC0F898
:100C40000880C0E9002B7AE711264FF0000857E72B
:100C50002DE9F04F88460446D21D22F0070191B0DD
:100C6000D1E90001CDE90A0104F0BAFF02460B9870
:100C7000C00F01D02D2007E02068810701D52B206F
:100C800002E0202101EAC000032A099001D0072ACE
:100C900005DB03464146204600F058FC0BE1207876
:100CA000800601D5E06900E00620B8F1650F8146B5
:100CB00006D0B8F1660F18D0B8F1670F70D131E0E7
:100CC0000020B9F1110F009001DB112301E009F1BF
:100CD00001030AAA01A90CA8FFF7E2FEDDE90C70E6
:100CE000002609F10105834647E001204B460090AC
:100CF0004FF000470AAA01A90CA8FFF7D1FEDDE9D1
:100D00000DB00C995D46002610B909F101000D18CF
:100D1000B9EB050003D4C0F1FF3609F10105A5EBDD
:100D200009002BE0B9F1010F01DA4FF001090020B1
:100D3000B9F1110F0090484601DD112300E0034690
:100D40000AAA01A90CA8FFF7ABFEDDE90C704D461D
:100D500000268346207800070AD4AB4500DA5D46BA
:100D600001A8012D04DD411911F8011C302907D01B
:100D70004F4502DA17F1040F04DA012082460FE032
:100D80006D1EEEE7002F02DCED1B3E4403E0781CF5
:100D9000A84200DD7D1CB81B00F1010A4FF000479E
:100DA0002078000703D4AA4501DB4FF0FF3A002169
:100DB000B7F1004F0DF143088DF8431024D0022005
:100DC0002B23002F01DA7F422D230A21021EA0F1DE
:100DD000010000DC5FB197FBF1FC97FBF1F201FB36
:100DE0001C7C17460CF1300C08F801CDEEE7A8F199
:100DF000010003702188090501D5452100E0652126
:100E0000A0F1010800F8011C09980FA9A1EB08073F
:100E1000FF1D00B10120411901EBEA70A1693844BE
:100E2000081A401EA0612078C00602D42046AFF305
:100E30000080099828B1D4E901219047206A401C1C
:100E400020622078C00622D52046AFF300801EE045
:100E5000002E04DBB34502DD01A8805D00E03020F8
:100E6000D4E901219047206A401C2062761CAAF137
:100E700001005FEA000A0AD100F012FBC0680168B5
:100E8000405CD4E901219047206A401C2062281E62
:100E9000A5F10105DCDC07E0D4E9012118F8010B1C
:100EA0009047206A401C2062381EA7F10107F3DC3E
:100EB0002046AFF30080032011B041E601694A1CCF
:100EC00002610878704700B58FB0CDE9013100218B
:100ED000059105497944CDE9031011466846FFF7AD
:100EE00009FB0FB000BD0000E5FFFFFF0A6802F834
:100EF000010B0A607047D1E900239A4202D2531CC9
:100F00000B601070704710B5436913B1AFF30080E8
:100F100001E0FFF723FB012010BD127800F124014E
:100F20000A7000224A700122EDE711684FF0FF328B
:100F3000E9E700002DE9FF4F06468BB00878FF284F
:100F400006D0491C2D2805D000244FF0000908E0E8
:100F500000200CE00124F8E709EB8903491C00EBB1
:100F600043090878FF28F7D114B1C9F10000814680
:100F7000107800252C46AA4629462D2801D02B287A
:100F800004D1521C2D2813D0002082468B461078A5
:100F9000FF280FD04FF0000C0A21521CA5FB01784E
:100FA00004FB018105FB0C11C5194BEB0104EEE7B5
:100FB0000120EAE7002108464FF00000BAF1000FD7
:100FC00002D000EB80004008C0F38157012F01DD03
:100FD0004FF0FF370E9955EA040009EB01080BD0DA
:100FE0004FF0020918F5FA7F16DA4FEACA70002F9F
:100FF000706008DD012007E04FEACA70C6E900B062
:101000000FB0BDE8F08F0020306000F04DFAC0F85E
:1010100000901821084616E0B8F5FA7F18DD002F79
:1010200002DAF748784401E0F6487844D0E9001045
:10103000C6E9001040EACA70706000F035FAC0F8E6
:101040000090142108460FB0BDE8F04F07F007BE2E
:10105000002108464FF00000B8F10001099002DAC3
:10106000C7F1000200E03A4601DAC8F1000106A823
:1010700000F066FC06AB93E8070003AB83E80700CB
:1010800044F23E005BEA04010090584604D144F269
:101090001E012C465D460091210C0904014306D136
:1010A0000099240444EA15442D041039009104F0F9
:1010B0007F41014306D10099240244EA15642D02C0
:1010C0000839009104F07041014306D100992401D0
:1010D00044EA15742D01091F009104F040410143B9
:1010E00006D10099A40044EA9574AD00891E0091D0
:1010F00004F00041084304D100986D196441401E7A
:1011000000904FF001033A466846B8F1000FCDE970
:10111000014503A902DD01F002FA01E001F0D5F971
:10112000BAF1000F04460D4601D084F000440021BE
:1011300008464FF00000099940F2FF77484010F050
:101140000C0F07D124F00040284303D0C4F30A5009
:10115000B84212D100F0A8F9C0F80090C4F30A50C8
:10116000B8420AD1A8487844D0E90010C6E9001076
:1011700004F000410843706042E7C6E900543FE7CD
:101180002DE9FF4F1F464FF0000A4FF0FF3845464C
:1011900091B0D7E90146CDF83CA000F081F9C068D4
:1011A0000168405C1090B96912986D1C8847396AD3
:1011B000814688470028F6D1B9F1FF3F0AD0002EBA
:1011C00024F4D06411DDB9F12B0F08D0B9F12D0F43
:1011D0000BD102E0404615B013E744F48064B969CE
:1011E00012986D1C8847761E8146600504A901D5BA
:1011F0002D2000E02B20002E01F1010B0DF1300815
:101200008DF810003FDDB9F1690F08D0B9F1490F31
:1012100005D0B9F16E0F02D0B9F14E0F1CD13B468B
:1012200001A8009580E85002DDE912126FF002007B
:1012300007F07EFDC11CCED10EE0B96912986D1C7D
:10124000884781461398761E44F4007405600F9811
:10125000401C002E0F9016DDB9F1300FEDD0B9F122
:10126000780F02D0B9F1580F0DD10F9801280AD18B
:101270003B46CDE90054DDE91212001F029607F04B
:1012800055FDC11CA7D1109989453ED144F0800479
:1012900006E01399681CAAF1010A44F4007408607E
:1012A000B9696D1C1298761E884730288146F0D0A7
:1012B0002BE01099894505D1200603D4761E44F011
:1012C000800418E0484605F0D6FA08B3761E0DF102
:1012D00023018B4544F4007408D2A9F130000BF8C7
:1012E000010B200607D5AAF1010003E0200602D475
:1012F0000AF101008246A00502D51399681C086016
:10130000B96912986D1C88478146002ED1DC53E0E4
:10131000002E51DDB9F1650F02D0B9F1450F4BD167
:10132000A00549D5B9696D1C1298761E24F4407445
:101330008847002E81460CDD2B2804D0B9F12D0FF3
:1013400007D144F48074B96912986D1C8847761EE1
:101350008146E00501D52D2100E02B2108F8011B75
:10136000CDF8008021E0761E0DF13901884544F466
:1013700000740CD2A9F1300010F0FF0088F80000D2
:1013800002D10099884509D908F1010806E0E00575
:1013900001D51E4801E042F20F708246B9691298E9
:1013A0006D1C8847814613980560002E04DD484671
:1013B00005F061FA0028D6D1F96912988847FF2014
:1013C00053468BF8000088F8000000200A900B902C
:1013D00004AA0CA90AA8FFF7ADFDA00502D46FF07E
:1013E0000100F8E614F0240F12D0E0071CD1386891
:1013F000DDE90A12031D3B600068C0E9001213E03A
:10140000B8050100AA0501006E040100F1D8FFFF34
:101410000AA9684605F01CFAE00705D13868009A69
:10142000011D3960006802602846D4E60268114454
:101430001378016018467047D160054979445161BD
:1014400004497944116200211161114600F0BEB8CF
:10145000EDFFFFFFF5000000426842B1016811F89E
:10146000013B23B1521EC0E900121846704701210A
:10147000C160881E704742685AB1C368016843B9A9
:1014800083688B4205D0491E521CC0E9001200201F
:1014900070474FF0FF307047004870473C8900208C
:1014A000004870475C890020004870473C89002054
:1014B00030B5B0F10A024FEA900E71F100034EEA26
:1014C000817EB0EB0E0061EB91014FEA101E4EEAF7
:1014D000017E10EB0E0041EB11114FEA102E4EEA87
:1014E000016E10EB0E0041EB11214FEA104E4EEA57
:1014F000014E10EB0E0041EB1141401841F100018B
:101500004FEAD00040EA41704FEAD10110EB80056C
:101510004FEA810444EA907444EB01046D1944EBF2
:101520000404521BA3414FF0000348BF0A3200D508
:1015300030BD401C41F1000130BD10B5044600F043
:101540009DFA0068005D00F0010010BD2DE9F0413A
:101550001F46044603260168072A01F4006004DBE5
:1015600008B116A505E016A503E008B115A500E031
:1015700015A521F010002060A069C01EA0610FB168
:10158000401EA0612046AFF300804FB1D4E9012195
:1015900038469047206A401C2062C01C206206E04A
:1015A000206AFAE7D4E9012115F8010B9047761E6D
:1015B000F8D22046AFF30080BDE8F0814E414E00E6
:1015C0006E616E00494E4600696E66002DE9F34F6C
:1015D0004FF0000A0C4656468DB001200C9001F1E8
:1015E0000C000B9062690B9801219047051E2DD0CD
:1015F000252D2CD0216A8847C0B162690B98012142
:101600009047216A88470028F7D16269411E0B98EC
:10161000904700E0761CA1690D988847216A8847A9
:101620000028F7D1E1690D988847DBE7A1690D989B
:101630008847A842074601D1761CD3E7E1690D9897
:1016400088477F1C02D1BAF1000F6FD06CE162694C
:101650000B9800273D46394690472A2804D16269F5
:101660000B98012190470125DFF8D08262690B9821
:1016700001219047A0F130010A290AD24745E5DC53
:1016800007EB870100EB4107303FDFD445F0100541
:10169000ECE7E90601D46FF000476C280AD04C282B
:1016A00014D0682815D06A280DD074281CD07A2848
:1016B0001AD01DE062690B98012190476C2802D076
:1016C00045F0040514E045F002050DE045F0200565
:1016D0000AE062690B9801219047682802D045F022
:1016E000080505E045F4006562690B980121904703
:1016F000C4E9015765283DD019DC58287AD00CDCA4
:10170000452837D004DC252826D041289ED131E059
:1017100046282FD0472899D12CE05B2877D0612824
:1017200028D063287CD0642823D15AE0F7E06F28C2
:1017300048D008DC66281DD067281BD0692821D036
:101740006E2816D127E0702845D0732868D07528F8
:1017500047D078280DD14DE0A1690D9888472528FC
:1017600005463FF469AFE1690D9888476D1C3FF469
:101770006AAFD9E00D9923466A466FF0010007F081
:10178000D3FAC6E045F0400023464FF00002606007
:10179000A80736D43EE0E8077FF447AF2068011D74
:1017A00021600068290501D506701BE7290701D5CE
:1017B000068017E7A90703D5F117C0E9006111E713
:1017C00006600FE745F0400023464FF008026060D6
:1017D000A80716D41EE040F60E0125EA010060605D
:1017E00016E045F0400023464FF00A026060A8076B
:1017F00007D40FE045F040006060A80708D52346F5
:1018000010220D996FF00100AFF3008081E007E036
:10181000102223460D996FF00100AFF3008078E0AD
:101820004FF0000963284F46C8464B46CB4602D0CE
:101830005B2807D039E02079C00601D40120A060E0
:10184000012732E06269D4F80CB00B98012190476F
:101850005E2807D14FF0010949466269D4F80CB0FF
:101860000B989047216939B900210A4603AB43F828
:101870002120491C0829FADBD8B3216949B308F1B2
:10188000010862690B98012190475D28F4D1B9F1F4
:10189000000F09D0002003A951F82020D24341F8BD
:1018A0002020401C0828F7DB03AB206900282079A2
:1018B0004FEA40701ED05B462246CDF80080CDE94D
:1018C00001970D9900286FF0010020DAAFF3008036
:1018D0001FE0C11703AA00EBD1614B1121F01F01DA
:1018E00002EB8302411A136801208840034313600E
:1018F000C7E719E00D99224600286FF00100009714
:1019000002DAAFF3008004E0AFF3008001E0AFF350
:10191000008000280ADA401C06D10C9820B14FF054
:10192000FF300FB0BDE8F08F5046FAE7E90701D16C
:101930000AF1010A064400200C9053E6CCCCCC0CF2
:101940002DE9F047814616468AB0354878440DC8DF
:101950008DE80D0032487844801C03AC0DC884E843
:101960000D0041F69B300844372190FBF1F290FBCB
:10197000F1F5A5F1800501FB12041B3C02D5644280
:10198000012000E00020DFF898A080460027FA44FC
:10199000AAF1BE0A0EE0E0070AD03246684607EB1D
:1019A000470101230AEB810100F0A4FD8DE8070047
:1019B00064107F1C002CEED1194F7F44AE3F19E01C
:1019C000E80715D007EB04100DF1180A90E80E0097
:1019D0008AE80E00C068F04201D19819089032469A
:1019E000012306A903A800F085FD03AB83E80700E7
:1019F0006D10641C002DE3D14FF00103324669469F
:101A0000B8F1000F03A802D000F04AFD01E000F099
:101A100071FDC9E90001C9F808200AB0BDE8F087E6
:101A2000ECFB000001491820ABBEFEE726000200D7
:101A300070477546FFF730FDAE46050069465346D0
:101A400020F00700854618B020B5FEF797FCBDE8EA
:101A500020404FF000064FF000074FF000084FF015
:101A6000000B21F00701AC46ACE8C009ACE8C009A6
:101A7000ACE8C009ACE8C0098D46704710B5FFF767
:101A80000FFD001D10BD00BF816400002DE9FF4F58
:101A90001F464FF03C0987B04FF00042DDE91410BB
:101AA00001F10108DDF858A002EA4050039000203F
:101AB00005908346054604460490B969461E089879
:101AC0008847AAF1010A0290BAF1000F3BDD0298A3
:101AD0002E2815D0102100F016FA00282EDB4FF02A
:101AE000010B0599014317D0B9F1000F0BDB4A46F2
:101AF000C11700F0F5F905430C43A9F1040905E00D
:101B0000012004900BE008B145F00105012005908B
:101B1000049820B9361D02E0049800B1361FB96957
:101B2000089808F101088847BBF1000FAAF1010AE3
:101B30000290C9D00999C1F80080C5E702987028C1
:101B400008D0502806D0F96908988847BBF1000FE3
:101B500014D04FE0002002900120BBF1000F049050
:101B600009D0B969089808F101088847AAF1010964
:101B7000B9F1000F07DCF969089888476FF0010098
:101B80000BB0BDE8F08F2B2804D02D280CD14FF0DE
:101B9000FF300490B969089808F101088847A9F155
:101BA0000109B9F1000FE6DD411CE4D00A2100F083
:101BB000AAF90028DFDB029908F1010801EB810195
:101BC00000EB41000290B969089888470A2100F0AB
:101BD0009AF9099AA9F10109B9F1000FC2F8008038
:101BE00001DD0028E7DAF969089888470499029826
:101BF00000FB016655EA040004D004F040410900EE
:101C000002D006E0039898E0A40044EA9574AD0081
:101C1000B61E04F00041080002D16D196441761E21
:101C2000159810F0240F03D04FF00B095C4803E027
:101C30004FF028096FF07D008246564507DAAAEB7F
:101C400006018944B9F1410F01DD4FF0410901203E
:101C50000021A9F1010200F043F9024628400B4699
:101C60002140084301D0012100E00021501E0291D3
:101C700043F1FF3128402140084301D0012000E01A
:101C800000200299834651EA0B014FD000210846FB
:101C90004FF00000039900F4400039B100EB8000E0
:101CA0004FF4400100EBD07001EA6000801501287C
:101CB00002DD4FF0FF3000E013D0401C36D0029818
:101CC00060B3BBF1000F0CD14A460120002100F0A7
:101CD00007F928402140084301D0012000E00020FE
:101CE000E0B101204A46002100F0FAF8034640190D
:101CF0000A4661412D1A8C4111D3B9F1400F09DD1B
:101D0000159810F0240F02D0AAF1340603E0AAF1CE
:101D1000170600E0761C00254FF0004406E05B1E2D
:101D200042F1FF3220EA030521EA0204CAF1010070
:101D3000B04206DA1B490398084301900020009046
:101D40000EE0039AC4F3D321E80A0A43164940EA95
:101D500044500A433146CDE90002684604F081FD53
:101D6000159810F0240F0BD01598C00715D13868BE
:101D7000DDE90012031D3B600068C0E900120CE0C1
:101D800002A8694604F064FD1598C00705D13868BB
:101D9000029A011D3960006802604046F0E60000CA
:101DA00002FCFFFF0000F07F0000F03F2DE9FF4F35
:101DB00092461D4685B04FF00041DDE9124BDDE94A
:101DC00014727F1E01EA4B50414940F0FF4940EA3E
:101DD0000108002122F020004928049102D04E2859
:101DE00028D04CE03BA0012607C88DE80700A96970
:101DF0000698641C88477F1E014606D41DF806001D
:101E000018B121F0200181420BD0E969069888477A
:101E1000032E34D0082E32D06FF0010009B0BDE897
:101E2000F08F761C032E01D0082EE0D1601CCAF87A
:101E30000000DCE7A9690698641C88477F1E2AD445
:101E400020F02000412826D1A9690698641C884703
:101E50007F1E20D420F020004E281CD1A9690698AE
:101E6000641C88477F1E48F4002849F48009CAF89A
:101E7000004001D4282806D0E969069888475FEA1F
:101E8000CB7012D022E0A9690698641C88477F1E97
:101E900001D4002803DAE96906988847BCE72928B5
:101EA000F1D1641CCAF80040E9E71BF0240F07D009
:101EB00028680499031D2B600068C0E9001805E03C
:101EC0002868021D2A600068C0F800902046A5E737
:101ED0000000F07F494E46494E4954590000000029
:101EE000B2F120030AD5C2F1200301FA02F120FA6F
:101EF00003F300FA02F041EA0301704700FA03F12C
:101F00004FF0000070473A2800D2303820F020020D
:101F1000412A01D3A2F13700884201D34FF0FF30AC
:101F200070475FEA400C08BF91F0000F4FEA8C2326
:101F30004FEAC12243EA51514FEA1C5018BF00F545
:101F4000F0404FEA300018BF41F000415FEA6C5C9E
:101F500000F02980BCF1FF3F08BF40F0804070478F
:101F6000130C06BF12044FF0100C4FF0000C130EB0
:101F700004BF12020CF1080C130F04BF12010CF184
:101F8000040C930F04BF92000CF1020CD30F04BF9A
:101F900052000CF1010C11464FF00002A0F11F009D
:101FA000A0EB0C00704711F0004F08BF704731F0F4
:101FB00000413FF4D5AF0B0C06BF09044FF0100CE5
:101FC0004FF0000C0B0E04BF09020CF1080C0B0FB4
:101FD00004BF09010CF1040C8B0F04BF89000CF144
:101FE000020CCB0F04BF49000CF1010CCCF1200313
:101FF000A0EB0C0022FA03F302FA0CF241EA03010F
:1020000000F10100704720F07F4C80EA030023F0CC
:102010007F47ACEB070303F57C5300F0004003F16E
:10202000FF032DE980494FEA154B09B44FEA1443E9
:1020300025EA0B4E24EA03480FF2042606EB132789
:1020400049083E785FEA320203FB0667C7F50007DE
:1020500007FB06F64FEA54374FEAD64606F102066A
:1020600007FB066CCCF1005C4FEA1C472CEA074CDE
:1020700007FB06F40CFB06F504EB15464FEA961633
:1020800034BF00204FF000404FEAD13706FB07FC79
:102090004FEA1C4C0CFB0BF7D21B03FB0CF761EB5C
:1020A00007010CFB0EF7B0EB074072EB17420CFB7D
:1020B00008F734BFA2EB0742B2EB074261EB1741CE
:1020C0004FEA0C444FEA910706FB07FC4FEA1C4C11
:1020D0000CFB0BF7B0EBC74072EB573203FB0CF76E
:1020E00034BFA2EBC742B2EBC74261EB57310CFBE6
:1020F0000EF7B0EBC70072EB57720CFB08F734BF5A
:10210000A2EBC702B2EBC70261EB5771039F4FEA24
:10211000816141EA921104EBCC044FEAD1374FEAD6
:10212000826206FB07FC42EA90124FEA80604FEAA7
:102130001C4C0CFB0BF7D21B03FB0CF761EB0701EC
:102140000CFB0EF7B0EB074072EB17420CFB08F7E5
:1021500034BFA2EB0742B2EB074261EB17414FEAF3
:102160008C554FEA910704EB9C2406FB07FC4FEAD1
:102170001C4C0CFB0BF7B0EBC74072EB573203FB68
:102180000CF734BFA2EBC742B2EBC74261EB573149
:102190000CFB0EF7B0EBC70072EB57720CFB08F7A5
:1021A00034BFA2EBC702B2EBC70261EB577115EB6C
:1021B0004C254FEA816141EA92114FEA82624FEA6F
:1021C000D13742EA901206FB07FC44F100044FEAC3
:1021D00080604FEA1C4C0CFB0BF7D21B03FB0CF787
:1021E00061EB07010CFB0EF7B0EB074072EB1742F7
:1021F0000CFB08F734BFA2EB0742B2EB074261EBDE
:10220000174115EB1C154FEA813141EA92414FEA23
:10221000823242EA90424FEA80304FEA0C7644F133
:10222000000448EA03434EEA0B484FF0000EB2EBBD
:10223000080C71EB030724BF624639464EEB0E0EC5
:102240004FF0000B0018524149414BEB0B0BB2EB26
:10225000080C71EB03077BF1000B24BF6246394683
:102260004EEB0E0E4FF0000B0018524149414BEB64
:102270000B0BB2EB080C71EB03077BF1000B24BFD7
:10228000624639464EEB0E0E51EA020718BF46F081
:10229000010616EB0E7655F1000254F1000103D54C
:1022A000BDE88901BDE80088BDE88901BDE80048B6
:1022B000B619524141EB0101A3F10103704780803F
:1022C0007F7E7D7C7B7A7978777676757473727190
:1022D00071706F6E6E6D6C6C6B6A6A696868676648
:1022E00066656464636362616160605F5F5E5E5DDA
:1022F0005D5C5C5B5B5A5A5959585857575656554E
:1023000055555454535352525251515050504F4FAF
:102310004F4E4E4D4D4D4C4C4C4B4B4B4A4A4A49FF
:102320004949484848474747474646464545454442
:1023300044444443434343424242424141410000FA
:1023400046EA0646A3F570534FEA164646EA425659
:102350004FEAD22242EA415210B54FEAD121A3F10D
:10236000010300F02FF820F0004000F1020C00F013
:10237000004701EB00501146BCF5006F40EA070032
:1023800000D210BDBAF1000F0AD01CB503B44FF053
:1023900004004FF004014FF000000FBCBDE81040F6
:1023A0004FF00001BBF1010FB9BF04484FF0FF31FE
:1023B0000348002140EA070010BD00BFFFFFEF7F88
:1023C0000000F07F002B9C4630D477002BD01CB54A
:1023D0004FEA370703B44FF010004FF01001BAF185
:1023E000000F06D0BCF1000FDCBF40F0080040F049
:1023F00008014FF000000FBCBDE810400BF1010BCD
:10240000BBF1010F08BF5FEA170722BF12F10102FB
:1024100011F101014FF0004143F1000300F00040D1
:1024200043EA00007047F9D35708D0E746EA06466A
:1024300013F1400F4FEA16461FDD13F1200FDFBFE7
:1024400016430A46002120335B42BED0C3F1200769
:1024500046EA064602FA07F74FEA164646EA070634
:10246000C3F1200722FA03F201FA07F721FA03F178
:102470004FF0000342EA0702A7E746EA020646EAEF
:1024800006464FEA164646EA0106BCBF46EA06463D
:10249000360C4FF000034FF000024FF0000194E7BC
:1024A0002DE9804C9A46934670B491E8380007C8ED
:1024B00031EA400C48BF34EA430C03D5FFF7A3FDD3
:1024C000FFF780FFF0BCBDE8008C2DE9804C9A46F8
:1024D000934670B491E8380007C831EA400C48BF11
:1024E00034EA430C03D5FFF78EFDFFF729FFF0BC5C
:1024F000BDE8008C2DE9804C9A46934670B491E873
:10250000380007C810F0804F08BF13F0804F03D188
:1025100000F01AF8FFF756FFF0BCBDE8008C2DE97B
:10252000804C9A46934670B491E8380007C810F082
:10253000804F08BF13F0804F03D100F005F8FFF77C
:10254000FFFEF0BCBDE8008C20F07F4780EA03006E
:1025500023F07F4C07EB0C03A3F57C5300F0004005
:10256000A3F1FE0392F0000F00F0B38095F0000F8E
:1025700000F077802DE901494FEA11404FEA1446F7
:1025800021EA004800FB06FC24EA064708FB06F6A1
:1025900007FB08F800FB07F718EB06484CEB164C56
:1025A0004FEA124B18EB07484FEA15464CEB174021
:1025B00022EA0B4E0BFB06FC25EA06470EFB06F64D
:1025C00007FB0EFE0BFB07F71EEB064E4CEB164C03
:1025D0004FF000061EEB074E4CEB174B18EB0B08A9
:1025E00040F1000018EB0E0B58EB000840F1000022
:1025F0008F1A4FF000013CBFC943661B14BFB5EBF7
:10260000040C00213CBFC943F61B4FEA17444EEAB5
:102610008E0E27EA04454FEA1C4704FB07622CEAAA
:10262000074C05FB07F70CFB05F604FB0CFC16EB4F
:10263000074642EB174216EB0C4642EB1C421BEBE3
:10264000060658EB0202414146EA9E0601D5BDE866
:102650000189B619524141EB0101A3F10103BDE823
:1026600001894FEA14454FEA114724EA054621EA59
:10267000074C05FB07F406FB07F70CFB06F105FB0F
:102680000CFC11EB074144EB17444FEA124711EBE6
:102690000C4144EB1C4422EA074C05FB07F206FB05
:1026A00007F70CFB06F605FB0CFC16EB074642EBA6
:1026B000174216EB0C4642EB1C456A1854F1000118
:1026C00048BF7047B619524141EB0101A3F1010324
:1026D000704795F0000F37D04FEA11424FEA144788
:1026E00021EA024624EA074C02FB07F106FB07F742
:1026F0000CFB06F402FB0CFC14EB074441EB174106
:102700004FEA154714EB0C4441EB1C4125EA074CFA
:1027100002FB07F506FB07F70CFB06F602FB0CFCB9
:1027200016EB074645EB174516EB0C4645EB1C42EE
:10273000121951F1000148BF7047B619524141EBDF
:102740000101A3F1010370474FEA14454FEA114715
:1027500024EA054621EA074C05FB07F106FB07F7CB
:102760000CFB06F24FF0000605FB0CFC12EB0742D7
:1027700041EB174112EB0C4251EB1C4148BF704733
:10278000921841EB0101A3F10103704770B5214C90
:102790000E46651E04F58054062839D2DFE800F0A5
:1027A000031138161D2632461BA11A48FDF770FE8C
:1027B000304623E06060BDE870400146154803F0F4
:1027C000E3B91648006CBDE870400047144A12A1F6
:1027D0001048FDF75DFE124810E0114A0EA11932B3
:1027E0000C48FDF755FE0E48193007E00C4A0AA1C7
:1027F00036320848FDF74CFE09483630FDF79DFF9C
:102800002060415D0029D5D10248FDF796FFD1E750
:1028100070BD0000EC47002025730000F887002001
:10282000A0010020084C4FF4FA650126206838B951
:10283000284604F049F900210120FFF7A7FF266090
:10284000142005F001F8F1E79C010020FEE70000EC
:102850002DE9F041052226492648FDF71EFF264CAA
:1028600018B9A07820700020A07021490522491FC6
:102870002048FDF712FFA0BB1E49642201F164004D
:10288000FDF77AFFA07820700220A07019481A4D39
:102890000126D0F871000C3507BA2868DFF85C8093
:1028A000B8420ED100F050FD00EE100AD4ED020A3D
:1028B0001349B8EE400A30EE600A10EE100A884262
:1028C0000FDD2F60A888401CA880E67000F03CFD5A
:1028D00000EE100AB8EE400A84ED020A666088F83D
:1028E0000060BDE8F04164210248FDF7BCBF000074
:1028F0001C8F000824470020BC000020E3010020BA
:102900000080BB44014800F08FBA0000B8060020E8
:10291000014800F089BA000058060020014800F084
:1029200083BA00009004002001681823CAB2103A4C
:10293000B2FBF3F2054B6FF30901032A9B5CC365FD
:1029400000D9091D8165084670470000288E0008DF
:1029500010B5014600208B698A6A4FF0C07453B1EC
:10296000B3F5005F15D072B1012A0CD0022A0AD04B
:10297000032A09D104E01AB1012A06D0022A03D1A0
:10298000C96AC90100D5012010BDC96AA142FAD0A7
:1029900010BD002AF7D0012AF2D0022AF3D0032A70
:1029A000F3D010BD30B50468256825F48025256076
:1029B000046863608368402B036803D099600068F3
:1029C000C26030BD9A600068C16030BD70470000D1
:1029D000124E134D002400BF96F90400312803D095
:1029E00032280CD015E000BF28680128FBD1002157
:1029F0000320FFF7CBFE2C60B46009E000BF28681D
:102A00000128FBD100210420FFF7C0FE2C60F460F8
:102A10003471C82004F018FFDEE700006C010020CC
:102A20009C01002001220249024801F0D5BD0000AE
:102A30006F010020C80500201B48012200210378F7
:102A4000012B05D04369312B08D04369322B11D0BB
:102A50004369E3B14369332B19D004E083685B1CFD
:102A6000C0E9023101618368052B08DB3121017166
:102A700042700AE08160C3685B1CC0E90331C3682F
:102A8000052B0ADB32210171827002707047816070
:102A9000C1600269521C0261017102690A2AF5DBF8
:102AA00001610171017070476C01002010B50120B7
:102AB00000F040FB00F048FC00EE100A0448054915
:102AC000B8EE400A80ED000A0120086010BD000049
:102AD000940100208801002010B5022000F02AFB9C
:102AE00000F032FC00EE100A04480549B8EE400A36
:102AF00080ED000A0120086010BD00009801002050
:102B00008C01002072B6FEE72DE9F0411E48A0B00E
:102B100090F87D1069B38046D0F8880006F024F85C
:102B200006460F46D8F8840006F01EF804460D4607
:102B3000D8F8800006F018F80B4602468DE8FC0035
:102B400012A2642106A8FDF7B9FC81B206A802F022
:102B500003FB1148F7EE000A06A990ED000A30EEDB
:102B6000200A80ED000A001DFDF7C3FD20B0BDE87E
:102B7000F0810948001DFDF7E0FD81B20648001D07
:102B800002F0EAFAF2E70000984600202125662CC0
:102B900025662C25660000000401002038B54C2075
:102BA0000090A023192200210C4804F0F1FA0C48EF
:102BB0004EF67D74009023464FF4FC6200211E20E7
:102BC00000F010F8064823460B3000904FF478428E
:102BD0006421142000F006F838BD0000DDA40008D0
:102BE0007D1301082DE9FF4F83B089460446DDF8C7
:102BF00040B00090A4E080283ED20D2804D02028C8
:102C000008D9203880B206E009F110001FFA80F9D7
:102C1000009C2EE00020DFF838A100264FF080084D
:102C200001900198002506EB001700BF1AF8071065
:102C300028FA05F0014206D009EB060081B26019BE
:102C400080B2059A09E0DDE90501884207D009EB69
:102C5000060081B2601980B2069A00F07DF86D1C02
:102C6000EDB2082DE2D3761CF6B2102ED9D308347B
:102C7000A4B20BF1010B63E04FF00008354808EBFC
:102C800008119BF8002010F8113093424DD100EB51
:102C90004100019041789BF80100814245D1002517
:102CA0004FF0800A0198002600EB45072AFA06F04B
:102CB000B978014206D009EB050081B2A01980B2B3
:102CC000059A09E0DDE90501884207D009EB050016
:102CD00081B2A01980B2069A00F03EF8761CF6B2D6
:102CE000082EE3D30026F9782AFA06F0014207D02D
:102CF00009EB050081B2A019083080B2059A0AE0FC
:102D0000DDE90501884208D009EB050081B2A01970
:102D1000083080B2069A00F01FF8761CF6B2082E32
:102D2000E1D36D1CEDB2102DBCD308F101001FFAE8
:102D300080F8B8F1370FA1D310340BF1020BA4B215
:102D40009BF8000000287FF456AF07B0BDE8F08F75
:102D5000458F0008B79C000810B514464A1C93B272
:102D6000421C92B201F016FF2046BDE8104001F06F
:102D7000B1BD2DE9F0410446876D00F0E5FA064645
:102D800094F835000025022806D08020606584F87C
:102D900034500120BDE8F0812068016821F016015F
:102DA00001602068416921F080014161206C08B90F
:102DB000A06C20B12068016821F008010160206842
:102DC000016821F0010101600CE000F0BDFA801BF8
:102DD000052807D920206065032084F8350084F891
:102DE0003450D7E720680068C007EED194F85C1033
:102DF0003F208840B860012084F8350084F83450C2
:102E00000020C7E790F83510022903D080214165E2
:102E100001207047052180F835100068016821F015
:102E200001010160002070472DE9F84304464FF08E
:102E30000009CDF8009063484FF41651A56D006865
:102E4000B0FBF1F72E6894F85C10082000FA01F14D
:102E500031420FD021680A6852070BD50A6822F068
:102E600004020A6094F85C108840A860606D40F02D
:102E70000100606594F85C104FF0010808FA01F059
:102E8000304208D021684969090604D5A860606D00
:102E900040F00200606594F85C10042088403042E5
:102EA00008D021680968890704D5A860606D40F0E2
:102EB0000400606594F85C1010208840304218D0FF
:102EC00021680968090714D5A860206801684903CA
:102ED00004D50068000308D5A16C07E00168C905A6
:102EE00003D4016821F008010160216C09B120467A
:102EF000884794F85C1020208840304231D0216807
:102F00000968C9062DD5A86094F835000528206801
:102F1000016806D0490347D5006800031DD4616CE1
:102F20001CE021F0160101602068416921F0800158
:102F30004161206C08B9A06C20B12068016821F0C3
:102F40000801016094F85C103F208840A86084F874
:102F5000358084F83490216D1FE0E16B09B1204683
:102F60008847606D00282BD0606DC00714D0052005
:102F700084F835002068016821F0010101600098A3
:102F8000401C0090B84203D820680068C007F6D102
:102F900084F8358084F83490E16C002910D001B0B9
:102FA0002046BDE8F04308470168C905D5D401684B
:102FB00021F01001016084F8358084F83490CCE76A
:102FC000BDE8F8833C0000202DE9F041044600F004
:102FD000BBF906465CB1022084F83500002584F870
:102FE00034502068016821F0010101600DE00120EA
:102FF000BDE8F08100F0A8F9801B052805D9202044
:103000006065032084F83500F2E720680068C00797
:10301000F0D12268116820480140D4E90103184327
:10302000D4E903363343184363691843A36918434B
:10303000E3691843236A18430843616A042903D1EA
:10304000D4E90B1319430843106020684069666A8D
:1030500020F0070130460E43012704280CD1A06A56
:103060000643E06A40B12046FFF772FC20B14020E1
:10307000606584F83570BAE7206846612046FFF73E
:1030800053FC94F85C203F2191408160656584F891
:1030900035700020ACE700003F8010F02DE9F041D2
:1030A0000446866D90F83400002501280DD00120DB
:1030B00084F8340094F835700020012F07D084F88C
:1030C000340002252846BDE8F0810220FBE70227F4
:1030D00084F8357060652046FFF764FC94F85C1056
:1030E0003F208840B0602068016841F0160101600F
:1030F000206C20B12068016841F00801016020685F
:10310000016841F001010160DCE7000070B5044690
:1031100000F01AF90546601C02D004480078044407
:1031200000F012F9401BA042FAD370BD300000201D
:1031300070470000044910B50A68024202D00860D6
:10314000FFF7F6FF10BD0000143C01402DE9F84FD9
:10315000DFF8BCA10022012503264FF00F090AF178
:10316000040BAAF1040E00BF0B6805FA02F4234019
:10317000A34270D10F7907F00307012F01D0022F6E
:1031800016D187684FEA420806FA08FC27EA0C07BE
:10319000D1F80CC00CFA08FC4CEA070CC0F808C0C7
:1031A0004768A7430C79C4F3001494403C4344603F
:1031B0000C79E443A4070AD0C4684FEA420C06FA2B
:1031C0000CF7BC438F6807FA0CF72743C7600C79EC
:1031D00004F00304022C12D1D40800EB840CDCF8B8
:1031E00020405707FF0E09FA07F824EA0804D1F82F
:1031F000108008FA07F848EA0408CCF82080046830
:103200004FEA420C06FA0CF7BC430F7907F00307AC
:1032100007FA0CF7274307604C6814F4403F70D05E
:103220003C4C276847F480472760246822F0030756
:1032300004F480440094384C07EB040CDCF8084894
:1032400097074FEA177809FA08F7BC43334FB8429B
:1032500002D1002724E054E0314FB84201D10127C8
:103260001EE0304FB84201D1022719E02E4FB8427C
:1032700001D1032714E02D4FB84201D104270FE0FC
:103280002B4FB84201D105270AE02A4FB84201D19D
:10329000062705E0284FB84201D1072700E008279C
:1032A00007FA08F72743CCF80878DAF800405746C1
:1032B000D1F804C09C435FEACC2C00D51C433C6091
:1032C000DBF800405F46D1F804C09C435FEA8C2CD9
:1032D00000D51C433C60DEF800407746D1F804C0BE
:1032E0009C435FEA8C3C00D51C433C60084F083F80
:1032F0003C68D1F804C09C435FEACC3C00D51C4339
:103300003C60521C102AFFF42FAFBDE8F88F00007C
:10331000083C0140443802400030014000000240B7
:103320000004024000080240000C0240001002406D
:103330000014024000180240001C02400AB18161E2
:1033400070470904FBE700000148806870470000EF
:103350003000002002488168027811448160704783
:10336000300000200B4810B5016841F40071016085
:10337000016841F480610160016841F4807101607D
:10338000032000F0AFF80F2000F006F800F050F82E
:10339000002010BD003C024030B505461F4887B0F4
:1033A0000024016841F020010160006806A900F0D6
:1033B0002000009001A800F041F90498A8B100F0A5
:1033C0005DF940001649174AB0FBF1F11648491E55
:1033D000026040F2E732C0E90324C0E901148461CD
:1033E00000F026FD040003D015E000F047F9E9E7FE
:1033F0000D4800F04BFD04000DD1372000F045F8DA
:10340000102D07D200222946372000F04BF807483C
:10341000056000E0012407B0204630BD403802407E
:1034200040420F0000140040180700203400002024
:103430000C4882B0016841F480410160006800F4EA
:10344000804000900748001F016841F080510160F2
:103450000068002200F0805000900F21901E02B002
:1034600000F020B84438024000280DDB00F01F02B5
:10347000012191404009800000F1E020C0F8801156
:10348000BFF34F8FBFF36F8F7047002809DB00F049
:103490001F02012191404009800000F1E020C0F8A6
:1034A00000117047F0B40E4B1B680C46C3F30223A7
:1034B000C3F10705042D00D90425191D072901D2E0
:1034C000002300E0DB1E012606FA05F1491E21401B
:1034D00099409E40761E16403143F0BC02F098BBE6
:1034E0000CED00E0064900F0070208684FF6FF0304
:1034F000184040EA0220034A104308607047000069
:103500000CED00E00000FA052DE9F0470E4605003D
:1035100065D0DFF81481D8F80000F7B200F007009A
:10352000B04207D288F80070D8F8000000F0070019
:10353000B04254D128683D4C810712D5400703D5CD
:10354000206840F4E05020602878000703D5206808
:1035500040F4604020602068A96820F0F000084333
:1035600020602878C0072DD03049686808390128C4
:1035700012D0022813D0032811D009688907002926
:103580002DDA216821F0030101432160FFF7DCFE01
:10359000814641F2883A0EE009688903EFE709683D
:1035A0008901ECE7FFF7D0FEA0EB0901514502D9F4
:1035B0000320BDE8F0872068696800F00C00B0EBDC
:1035C000810FEFD1D8F80010404601F00701B14259
:1035D00007D90770006800F00700B04201D0012051
:1035E000E7E72878400705D52068E96820F4E0502F
:1035F000084320602878000706D52068296920F450
:10360000604040EAC100206000F058F82168084A94
:10361000C1F30311515CC8400649086006480068C0
:10362000FFF7BAFE0020C4E7003C02400838024021
:10363000308E00083C000020340000200F22026081
:103640000C4A136803F003034360136803F0F003AC
:103650008360136803F4E053C36012684FF4E053CF
:1036600003EAD20202610448006800F00700086023
:103670007047000008380240003C024004480549F9
:1036800000680968044AC1F38221515CC840704750
:103690003C00002008380240408E000804480549DC
:1036A00000680968044AC1F34231515CC840704760
:1036B0003C00002008380240408E0008154810B534
:1036C000006810F00C02144813D04110042A0FD0E7
:1036D000082A0ED10F4C241F2268236802F03F02F3
:1036E0005B0207D52068C0F38810A0FB010106E04B
:1036F000084610BD2168C1F38811A1FB0001002319
:10370000FCF74EFE2168C1F30141491C4900B0FBA2
:10371000F1F010BD083802400024F4002DE9F84F04
:1037200004006ED02078DFF84C93C007A9F104059F
:103730004AD009F104000168C1F38101012908D0D0
:103740000068C0F3810002280AD1D9F800004002C5
:1037500006D52868800337D560680028E1D033E0BB
:103760006068B0F5803F10D0B0F5A02F286810D069
:1037700020F480302860286820F480202860606869
:10378000A8B1FFF7E1FD06460DE0286840F480305F
:10379000F4E740F480202860F7E700BFFFF7D4FD8E
:1037A000801B642873D828688003F7D50CE0FFF7E6
:1037B000CBFD064605E000BFFFF7C6FD801B642871
:1037C000F0D828688003F7D42078DFF8AC8280072F
:1037D0004FF0000A3ED5A748001D016811F00C0FFC
:1037E00008D00068C0F3810002280BD1D9F800008E
:1037F000400207D42868800716D5E068012800D168
:1038000012E033E1E068B8B10120C8F80000FFF72A
:103810009BFD064605E000BFFFF796FD801B0228D2
:10382000C0D828688007F7D52868216920F0F800FB
:1038300040EAC10028600DE0C8F800A0FFF784FD51
:10384000064604E0FFF780FD801B02281FD8286889
:103850008007F7D42078000722D5864F8748616912
:10386000703771B101210160FFF76EFD064604E07B
:10387000FFF76AFD801B022809D838688007F7D552
:103880000EE0C0F800A0FFF75FFD064605E082E00D
:10389000FFF75AFD801B02287DD838688007F7D4CF
:1038A0002078400768D5DFF8CCB100270BF13C0B3E
:1038B000DBF80000C0000BD4DBF8001041F08051B1
:1038C000CBF80010DBF80000012700F080500090DA
:1038D0006B4E3068C00510D4306840F480703060A2
:1038E000FFF732FD009005E0FFF72EFD0099401A2A
:1038F000022850D83068C005F6D55E4EA0686C36F8
:1039000001280FD00528306810D020F00100306069
:10391000306820F004003060A068B8B1FFF714FDF3
:1039200000900FE0306840F00100F4E740F0040040
:103930003060F7E7FFF708FD0099411A41F288303F
:10394000814266D830688007F4D50EE0FFF7FCFCB2
:10395000009007E0FFF7F8FC0099411A41F2883027
:10396000814256D830688007F4D42FB1DBF80010BC
:1039700021F08051CBF80010A069C8B33D49091D62
:103980000968C1F3810102294AD00228504607D0B4
:10399000C8F8600000E03CE0FFF7D6FC04463BE0DE
:1039A0004746C8F86000FFF7CFFC064605E000BFB9
:1039B000FFF7CAFC801B02282BD828688001F7D4A7
:1039C000D4E907010843A16A2E4A490802EB0141E4
:1039D000626A41EA8211084394F82C1040EA0161BE
:1039E000C9F8001001203866FFF7AEFC044606E077
:1039F0003EE000BFFFF7A8FC001B022809D828689A
:103A00008001F7D534E000BFFFF79EFC001B0228C1
:103A100002D90320BDE8F88F28688001F4D427E09C
:103A20000128F7D0D9F80000E26900F48001914242
:103A30001CD1226A00F03F01914217D147F6C071B4
:103A4000626A0140B1EB821F10D1A26A4FF0FF33CE
:103A500000F4403103EB5202B1EB024F06D194F86F
:103A60002C1000F07060B0EB016F01D00120D1E7A5
:103A70000020CFE70438024000004742800E474252
:103A8000007000400000FFFF704770B5040009D0CF
:103A9000606A002540B125616561A56294F8510016
:103AA00040B10CE0012070BD6068B0F5827FF4D0B9
:103AB000E561F2E784F85050204600F045F8022016
:103AC00084F851002068016821F040010160A0885D
:103AD000218900F4827001F404410843A18901F4B2
:103AE00000610843217C01F002010843217D01F0BF
:103AF00001010843218B01F400710843217F01F08B
:103B00003801084394F8201001F080010843218D0A
:103B100001F40051084321680860A069042101EA0A
:103B2000104094F8241001F0100108432168486007
:103B30002068C16921F40061C1616565012084F8D4
:103B40005100002070BD000070B586B006461421FB
:103B50006846FCF7AAFE20493068884239D11F48E0
:103B60000025016841F480510160006800F4805034
:103B700005901A481438016841F00101016000689D
:103B8000694600F001000590A02000900220CDE9D8
:103B9000010503200390052004901148FFF7D6FA91
:103BA000114C104820604FF0C06060604020C4E9B4
:103BB00002050001C4E904058001A561C4E90750BC
:103BC00020466562FFF700FA08B1FEF79BFFB46478
:103BD000A66306B070BD00000030014044380240CA
:103BE0000000024058640240900400202DE9F84F84
:103BF000044690F850000026984615468A4601284B
:103C00000CD0012784F85070FFF79EFB814694F892
:103C10005100B346012804D002269AE00220BDE8F4
:103C2000F88FBAF1000F6FD0002D6DD0032084F80B
:103C30005100C4F854B0C4F830A0A586E586C4F895
:103C400038B0A4F83CB0A4F83EB0C4F844B0C4F80E
:103C500040B0A068B0F5004F09D12068016821F09C
:103C6000400101602068016841F4804101602068E2
:103C70000168490603D4016841F040010160E06831
:103C8000B0F5006F606803D058B3012D29D049E02A
:103C900008B1012D1FD1206B21680088C86006E0A3
:103CA00020688168890709D5216B0988C160206B6C
:103CB000801C2063E08E401EE0860CE0FFF744FB92
:103CC000A0EB0901414503D3B8F1FF3F03D006E063
:103CD000B8F1000F03D0E08E0028E1D125E00326E3
:103CE00035E0206B21680078087306E02068816861
:103CF00089070AD5216B09780173206B401C20636A
:103D0000E08E401EE0860DE01FE0FFF71DFBA0EBFC
:103D10000901414503D3B8F1FF3F03D0DFE7B8F114
:103D2000000FDCD0E08E0028E0D14A464146204614
:103D300001F090FA08B120206065A06818B92068E9
:103D4000C16880680090606D08B1012601E084F8C8
:103D5000517084F850B0304661E7000070B50446F9
:103D600090F850000026012809D0012084F8500066
:103D700094F851000025012803D002264AE00220D1
:103D800070BD89B182B1032084F85100656521635B
:103D9000A286E286A56365642564A587E587A06899
:103DA000B0F5004F02D00BE0012633E02068016837
:103DB00021F0400101602068016841F48041016008
:103DC000A16C16480864A16C1548C863A16C15481D
:103DD000C864A06C0565E38E2268216B0C32A06C70
:103DE000FFF75CF920B1606D40F010006065DBE723
:103DF00020680168490603D4016841F04001016070
:103E00002068416841F0200141602068416841F02C
:103E10000201416084F85050304670BDE7510008FF
:103E2000F1510008C551000870477047704770474E
:103E300010B5040003D094F83D0010B107E0012054
:103E400010BD002084F83C00204600F01EF802203F
:103E500084F83D00211D206801F00AFB012084F850
:103E6000460084F83E0084F83F0084F8400084F85F
:103E7000410084F8420084F8430084F8440084F848
:103E8000450084F83D00002010BD704790F83D10BB
:103E9000012901D001207047022180F83D100168FE
:103EA000CA6842F00102CA6000681149884214D011
:103EB000B0F1804F11D00F4988420ED00E49884290
:103EC0000BD00E49884208D00D49884205D00D49D3
:103ED000884202D00C49884204D1816801F0070170
:103EE000062903D0016841F00101016000207047FC
:103EF000000001400004004000080040000C0040A9
:103F000000040140004001400018004070472DE9C6
:103F1000F04104460068C66805694FF00007A9072C
:103F200013D5B10711D5F91E016101202077206852
:103F300080698007204602D0FFF7E8FF04E000F028
:103F40007EF8204600F07CF82777680716D57007C2
:103F500014D521686FF004000861022020772068E2
:103F6000806910F4407F204602D0FFF7CFFF04E0C5
:103F700000F065F8204600F063F82777280715D58C
:103F8000300713D521686FF00800086104202077FE
:103F90002068C0698007204602D0FFF7B7FF04E021
:103FA00000F04DF8204600F04BF82777E80616D5CC
:103FB000F00614D521686FF0100008610820207702
:103FC0002068C06910F4407F204602D0FFF79EFFB2
:103FD00004E000F034F8204600F032F82777E807D4
:103FE00008D0F00706D021686FF001000861204674
:103FF00000F028F8280608D5300606D521686FF0AD
:10400000800008612046FFF711FF680608D570069A
:1040100006D521686FF040000861204600F01CF8CA
:10402000A8060AD5B00608D521686FF020000861FF
:104030002046BDE8F041FFF7FABEBDE8F0817047C9
:104040007047000000680349884201D1FFF782B938
:104050007047000000140040704738B5044690F8DF
:104060004200202801D0022038BD61B15AB10120A0
:10407000206300206063204601F078FC0028F3D123
:10408000216B012901D0012038BD21680A684968E7
:10409000009121680C3151E8002F42F0100241E8F4
:1040A0000023002BF5D138BD70477047F8B5016883
:1040B00004460868CA684B6910F00F0F4FF00005FE
:1040C00059D003F0010602F49077374365D0C10759
:1040D00005D0D10503D5616C41F001016164410750
:1040E00005D5D90703D0616C41F0020161648107F5
:1040F00005D5D90703D0616C41F004016164010763
:1041000007D502F02001314303D0616C41F0080172
:104110006164616C00293AD0800604D5900602D50E
:10412000204601F03BFB20684069616CC0F38010C1
:10413000090700D460B3204601F0FBFA206840690B
:10414000400621D52068143050E8001F21F04001BE
:1041500040E80012002AF5D1E06BA8B16E49016574
:10416000E06BFEF74FFE002811D0E06B016D01B04F
:10417000BDE8F040084783060FD593060DD52046CD
:10418000BDE8F84001F00ABB2046FFF78EFFF8BDFE
:104190002046FFF78AFF6564F8BD266B2023012EB9
:1041A0007DD1C6067BD5D60679D5086848680090CB
:1041B00048694FF00206400641D5E16B0868406847
:1041C0000004000CE8D0A28D8242E5D9E085C869E0
:1041D000B0F5807F2DD020680C3050E8001F21F40E
:1041E000807140E80012002AF5D12068143050E8B0
:1041F000001F21F0010140E80012002AF5D12068DB
:10420000143050E8001F21F0400140E80012002A5D
:10421000F5D184F84230256320680C3050E8001F47
:1042200021F0100140E80012002AF5D1E06BFEF702
:10423000A0FD6663A08DE18D401A81B22AE0A08DB9
:10424000E18D401A81B2E08D0028A5D00029A3D0CD
:1042500022680C3252E8000F20F4907042E8000708
:10426000002FF5D12068143050E8002F22F0010211
:1042700040E80027002FF5D184F8423025632068FC
:104280000C3050E8002F22F0100240E80023002BF1
:10429000F5D166632046FFF707FFF8BDFFE7050687
:1042A0002BD5150629D594F841002128F5D1A06811
:1042B000B0F5805F01D12069B0B1206A411C216254
:1042C000216800784860E08C401E0004000CE08407
:1042D000E3D12068C16821F08001C1602068C16815
:1042E00041F04001C160D8E7206A0088C0F30800AF
:1042F0004860206A801C2062E5E74006CDD5500664
:10430000CBD5CA68204622F04002CA6084F841300A
:1043100000F080FAC1E70000E955000870B504001C
:1043200004D094F84100002510B106E0012070BDD2
:1043300084F84050204600F023F8242084F84100FF
:104340002068C16821F40051C160204601F088FA5C
:104350002068016921F4904101612068416921F0E0
:104360002A0141612068C16841F40051C16065645F
:10437000202084F8410084F842006563002070BD6D
:104380002DE9F04186B0074614216846FCF78DFA06
:104390008648DFF814823B688449103803250226DA
:1043A0000822DFF80CC2002443451FD10B6843F4F8
:1043B00000230B60096801F400210591016841F0B8
:1043C000010101600068CDE9005600F00100CDE96F
:1043D000042069466046CDE90245FEF7B7FE00229B
:1043E00005213420FFF75EF8342066E0DFF8C48151
:1043F000434567D10B6843F480130B60096801F4EF
:1044000080110591016841F004010160016801F02B
:1044100004010591016841F008010160006802ABE8
:1044200000F0080005904FF48050CDE9000690465A
:1044300083E8300169466048FEF788FE0420CDE934
:10444000000602AB694683E830015C48FEF77EFE59
:104450005C4D5B484FF00066E5E8020640204FF4F3
:104460008068A5E81101574845F81449AC61EC6132
:104470002C626C62FEF7A8FD08B1FEF743FBBD633A
:10448000AF63504D4E486035A8382860C5E90164D7
:10449000C5E903486C61AC61EC612C6228466C6232
:1044A000FEF792FD08B1FEF72DFBFD63002205210A
:1044B0003520AF63FEF7F6FF3520FEF7E6FF06B0C6
:1044C000BDE8F081404F0722BB4223D13749091D87
:1044D0000B6843F010030B60096801F010010591AF
:1044E000016841F0010101600068029400F00100E0
:1044F00005904FF4C060CDE90006CDE9035269464E
:104500006046FEF723FE002205212520FEF7CAFFA4
:104510002520D2E72D4FBB4220D10B6843F4003356
:104520000B60096801F400310591016841F0010157
:1045300001600068029400F0010005900C20CDE9B4
:104540000006CDE9035269466046FEF7FFFD0022F2
:1045500005212620FEF7A6FF2620AEE71C4FBB4212
:10456000ADD10B6843F480230B60096801F480210E
:104570000591016841F0020101600068029400F0B9
:10458000020005904FF44060CDE90006CDE90352EA
:1045900069461048FEF7DAFD002205212720FEF7C4
:1045A00081FF272089E70000004C0040403802408E
:1045B000000002400050004000080240000C024091
:1045C000B86002405806002000100140004400403E
:1045D000004800400004024090F84230202B01D0F7
:1045E0000220704721B11AB10023036301F006BA1B
:1045F000012070472DE9F041054630480127304C35
:1046000085421CD12F484FF000080178242901D1A0
:10461000A4F800802C4822888154521C96B226802F
:104620000278242A07D102794D2A04D140794328FF
:1046300001D10A292ED0C82E01D3C82020802349B9
:10464000286888420CD12248224A0178A068115477
:10465000401CA06020480068C16841F01001C160A2
:104660001E49286888420CD11D481E4A017860689E
:104670001154401C60601C480068C16841F0100182
:10468000C1601A492868884202D1194880F82E7002
:10469000BDE8F08150211748FCF707F932460A4976
:1046A0001448FCF769F81348C82180F85070A4F842
:1046B00000800548FCF7D7F8C1E70000800500201E
:1046C0001C000020B0000020D04500200048004021
:1046D000BD0000202447002010060020004C0040B0
:1046E000A800002050450020F004002000500040A9
:1046F000F88700209846002070472DE9F8430446CB
:1047000090F84100984616460D46202802D0022017
:10471000BDE8F88385B17EB100206064212084F873
:104720004100FEF711FEA6848146E684A06820279A
:10473000B0F5805F02D003E00120E9E7206910B105
:104740002E4600250EE000260CE08021204601F0D8
:1047500070F9A8B9C6B116F8010B21684860E08C61
:10476000401EE084E08C4B464FF00002CDF8008004
:104770000028EAD14FF04001204601F05AF940B13B
:1047800084F841700320C3E735F8020BC0F308003A
:10479000E3E784F841700020BAE7000070B50446F2
:1047A00090F84100202801D0022070BD49B342B3E7
:1047B0002162A284E28400206064212384F84130D5
:1047C000A56B114BEB63A56B104B2B64A56B104BCA
:1047D000EB64A36B1865256813462A1DA06BFEF7D2
:1047E0005DFC21686FF0400008602068143050E8DC
:1047F000001F41F0800140E80012002AF5D100209E
:1048000070BD012070BD0000E75600082957000860
:10481000F955000870477047FEE700000448034957
:1048200041600E3181600C31C1607047D0000020C2
:10483000F857002010B5FFF7F1FF0B490948086051
:104840000B480A4901630B4941630B4981630B49DA
:10485000C1630B49016403F089F8BDE810400A20E8
:10486000FEF754BC38050020F8570020C95B00084B
:10487000F8870020B15100086D790008795B0008C5
:10488000455B000808B500F053F80F491020086098
:10489000FEF784F900250D4C19264FF47A774FF472
:1048A0009678207860B1502328221E21084800966F
:1048B00002F06EFC384602F0C7FFFEF76FF9257074
:1048C000404602F0C1FFECE718080240E301002077
:1048D000DD03010870B5084D04464FF48010A8614F
:1048E000064920200860200A00F046FDE0B200F0F2
:1048F00043FD1020A86170BD00000240180802406E
:1049000070B5064600217F239F22084600F042F939
:104910002C2000F07BF9002400253046FFF7DAFF59
:104920006D1C802DF9D3641CA02CF5D370BD000044
:1049300010B5012291038C48FEF700FD8B48102131
:1049400001600A040260016000F012F9112000F019
:104950005DF97820FEF7DAFBB12000F057F901206D
:1049600000F042F92C2000F03FF92D2000F03CF936
:10497000B22000F04BF9012000F036F92C2000F0B5
:1049800033F92D2000F030F9B32000F03FF9012079
:1049900000F02AF92C2000F027F92D2000F024F94E
:1049A000012000F021F92C2000F01EF92D2000F04C
:1049B0001BF9B42000F02AF9072000F015F9C020F7
:1049C00000F024F9A22000F00FF9022000F00CF909
:1049D000842000F009F9C12000F018F9C52000F08A
:1049E00003F9C22000F012F90A2000F0FDF80020BF
:1049F00000F0FAF8C32000F009F98A2000F0F4F87A
:104A00002A2000F0F1F8C42000F000F98A2000F01C
:104A1000EBF8EE2000F0E8F8C52000F0F7F80E20E3
:104A200000F0E2F8362000F0F1F8602000F0DCF849
:104A3000E02000F0EBF80F2000F0D6F81A2000F08C
:104A4000D3F80F2000F0D0F8182000F0CDF82F2078
:104A500000F0CAF8282000F0C7F8202000F0C4F8C1
:104A6000222000F0C1F81F2000F0BEF81B2000F04B
:104A7000BBF8232000F0B8F8372000F0B5F800208C
:104A800000F0B2F8072000F0AFF8022000F0ACF818
:104A9000102000F0A9F8E12000F0B8F80F2000F095
:104AA000A3F81B2000F0A0F80F2000F09DF81720BD
:104AB00000F09AF8332000F097F82C2000F094F8DA
:104AC000292000F091F82E2000F08EF8302000F020
:104AD0008BF8302000F088F8392000F085F83F206E
:104AE00000F082F8002000F07FF8072000F07CF84A
:104AF000032000F079F8102000F076F82A2000F06A
:104B000085F8002000F070F8002000F06DF800201B
:104B100000F06AF87F2000F067F82B2000F076F8AC
:104B2000002000F061F8002000F05EF8002000F0A6
:104B30005BF89F2000F058F8F02000F067F80120A3
:104B400000F052F8F62000F061F8002000F04CF878
:104B50003A2000F05BF8052000F046F8BDE8104070
:104B6000292000F053B80000000402401808024059
:104B700010B5074C4FF4803020606420FEF7C6FA71
:104B800001202060BDE810403220FEF7BFBA0000CF
:104B9000180402402DE9F04107461C4615460E4612
:104BA0002A2000F033F8002000F01EF8F8B200F0E0
:104BB0001BF8002000F018F8E8B200F015F82B20E0
:104BC00000F024F8002000F00FF8F0B200F00CF82C
:104BD000002000F009F8E0B200F006F8BDE8F0416E
:104BE0002C2000F013B8000010B5064C4FF48011D3
:104BF000A161054A2021116000F0BEFB1020A061D8
:104C000010BD0000000002401808024010B5064C1C
:104C10004FF48011A161054A4900116000F0ACFB1E
:104C20001020A06110BD00000000024018080240E2
:104C3000154808B5016841F400110160016801F4EC
:104C400000110091016841F48001016000680022B8
:104C500000F48000009005210B20FEF723FC0B20C0
:104C6000FEF713FC002205212F20FEF71BFC2F204E
:104C7000FEF70BFC002205213B20FEF713FCBDE8EC
:104C800008403B20FEF701BC3038024010B5B2B0FE
:104C90001C2227496846FBF7B4FD0021684601F055
:104CA0001FFF244C22491C22A0611C3107A8FBF7DE
:104CB000A8FD002107A801F013FF1D4920601C2258
:104CC00038310EA8FBF79DFD00210EA801F008FF6A
:104CD000174960601C22543115A8FBF792FD002192
:104CE00015A801F0FDFE1249A0601C2270311CA81D
:104CF000FBF787FD00211CA801F0F2FE0C49E060E3
:104D00001C228C3123A8FBF77CFD002123A801F095
:104D1000E7FE074920611C22A8312AA8FBF771FD94
:104D200000212AA801F0DCFE606132B010BD000055
:104D3000648D0008000000202DE9F04387B01421A5
:104D40006846FBF7B2FD3B480024016841F00401CE
:104D50000160016801F004010591016841F08001E2
:104D60000160016801F080010591016841F00101D5
:104D70000160016801F001010591016841F0020143
:104D80000160016801F002010591016841F008012C
:104D900001600068284F00F00800059000221021F3
:104DA0003846FEF7CBFADFF89480002230214046E7
:104DB000FEF7C4FADFF88890002201214846FEF78A
:104DC000BDFA102001250326CDE90005CDE90246F4
:104DD00069463846FEF7BAF93020CDE90005CDE93D
:104DE000024669464046FEF7B1F903960095CDE9C3
:104DF000015469464846FEF7A9F94FF4041000969D
:104E0000CDE9010469460F48FEF7A0F9002205210B
:104E10000620FEF747FB0620FEF737FB00220521A0
:104E20000720FEF73FFB0720FEF72FFB07B0BDE88A
:104E3000F0830000303802400000024000080240C9
:104E400000040240000C02400F4810B50D490160FB
:104E50004FF48271416000218160C1604FF40072A3
:104E60000161C0E90512C1610162416281620A21EA
:104E7000C162FEF70AFE002803D0BDE81040FDF72E
:104E800041BE10BD00300140380400200C4810B570
:104E90000A4901604FF4E1314160002181600C2238
:104EA000C160C0E904128161C161FFF737FA0028CF
:104EB00003D0BDE81040FDF725BE10BD004C0040FA
:104EC000F00400200C4810B50A4901604FF4E131AC
:104ED0004160002181600C22C160C0E9041281613F
:104EE000C161FFF71BFA002803D0BDE81040FDF7B1
:104EF00009BE10BD00500040380500200C4810B518
:104F00000A4901604FF416514160002181600C2272
:104F1000C160C0E904128161C161FFF7FFF9002897
:104F200003D0BDE81040FDF7EDBD10BD00100140FD
:104F3000800500200C4810B50A4901604FF4E131AA
:104F40004160002181600C22C160C0E904128161CE
:104F5000C161FFF7E3F9002803D0BDE81040FDF779
:104F6000D1BD10BD00440040C80500200C4810B55C
:104F70000A4901604FF4E1314160002181600C2257
:104F8000C160C0E904128161C161FFF7C7F900285F
:104F900003D0BDE81040FDF7B5BD10BD004800408E
:104FA00010060020FEE7000004260A4C0025607869
:104FB00030B96068012805D1A068012802D1667067
:104FC0006560A56001F068FD01F05CFC322002F034
:104FD0003BFCECE784010020FEE70000A0B0204D80
:104FE000204C214E00272868012804D03068012871
:104FF00010D030E000BF20680128FBD127601B499A
:105000000020FDF7C3FB80211848FBF72CFC2F6024
:1050100021E000BF20680128FBD1DFF8509009F1A2
:10502000800909F1010199F80000804602466846AE
:10503000FBF7A2FB276069460DF808700020FDF71A
:10504000A5FB09EB08016846491CFBF721FA6846F5
:1050500000F06CF83760642002F0F6FBC3E7000054
:10506000280000209C0100202C0000203C8800200B
:105070009AB0012225492648FFF7AEFA4FF47A7814
:10508000244E254F0025254C01F054FDFDF73CFD35
:10509000404602F0D9FB3068012814D1204821A1F4
:1050A00002686846FBF7F4F902F056FB6846FBF726
:1050B00044FB81B2684600F04FF802F06DFB6420BB
:1050C000356002F0C1FB387801280BD1312216A1DE
:1050D0006846FBF7DDF9684600F054F83D7064203F
:1050E00002F0B2FB20780128CED132220EA1684610
:1050F000FBF7CEF9684600F045F8684600F042F844
:105100002570642002F0A0FBBEE70000B000002084
:1051100080050020C00000206D0100206E010020ED
:10512000C8000020412575002325630000B5B3B0F9
:10513000064B009006A2C82101A8FBF7BFF981B277
:1051400001A800F009F833B000BD0000048F00088A
:10515000257325730D0A00004A1C10B50146074847
:10516000FBF7CAFB0548FBF7E8FA82B2BDE810403E
:105170004FF0FF3301490248FFF7BFBA5044002007
:10518000F004002010B5014680220748FBF7B4FB6D
:105190000548FBF7D2FA82B2BDE810404FF0FF336A
:1051A00001490248FFF7A9BA50440020F00400204A
:1051B000034803494FF4805200691831FEF74DBF90
:1051C000F857002010B5806B01684A6822F003028E
:1051D0004A60416D41F010014165012180F8511094
:1051E000FEF752FC10BD10B5806BFEF71EFE10BD21
:1051F00038B50546846BFEF7A7F8024628680068B4
:10520000C00523D42068416821F020014160206856
:10521000416821F0020141606421204600F01AF843
:1052200018B1606D40F020006065A068002118B9D9
:105230002068C26880680090E186012084F85100EF
:10524000606D18B12046FEF71FFC38BD2046FEF702
:10525000EBFD38BDF8B515460E460B4600920446E8
:105260000122022100F02CF8A0B91348134900686C
:10527000B0FBF1F04FF47A71484300906068B0F5EC
:10528000827F0DD13346002280212046009500F018
:1052900017F870B1606D40F0200060650320F8BD24
:1052A000009830B1401E009020688068C04300061E
:1052B000F6D50020F8BD00003C00002000366E014D
:1052C0002DE9F8431E46914688460446089DFEF7A0
:1052D0003BF8401B351AFEF737F8074625480068AB
:1052E000C0F3CB30684338E0701C37D0FEF72CF8A1
:1052F000C01BA84203D215B1009860B32CE020680F
:10530000416821F0E00141606068B0F5827F0BD117
:10531000A068B0F5004F02D0B0F5806F04D12068CE
:10532000016821F040010160A06AB0F5005F09D179
:105330002068016821F4005101602068016841F48F
:1053400000510160012084F85100002084F85000D1
:105350000320BDE8F8830025401E00902068816886
:1053600038EA010004D000214945BDD10020F0E712
:105370000121F9E73C00002001B5642301226946C0
:105380000148FEF733FC08BD38040020012001F07D
:105390009BFBFBE710B5502080F31188BFF34F8FC4
:1053A000BFF36F8F02F0D2FC18B104494FF0805068
:1053B0000860002080F3118810BD000004ED00E0BB
:1053C00030B593B030216846FBF76FFA14210CA872
:1053D000FBF76BFA1D480025016841F08051016020
:1053E000006800F0805011901948016841F4804134
:1053F00001600068022400F48040119001200090B8
:10540000000401908001CDE9064008AA0420A821EB
:1054100082E813000B906846FEF780F908B172B677
:10542000FEE70CA90F2081E831004FF4A0500F9047
:105430004FF48050109005210CA8FEF765F8002865
:1054400001D072B6FEE713B030BD00004038024014
:10545000007000400248016841F47001016070472B
:1054600088ED00E00148FEF752BD0000180700205B
:10547000F0B50268294C2A4D2A4E2B4F2B4B4FF08A
:10548000804CA04209D0604507D0A84205D0B04268
:1054900003D0B84201D0984204D122F0700E4A687D
:1054A00042EA0E02A0421BD0604519D0A84217D094
:1054B000B04215D0B84213D0984211D01C4DA8422A
:1054C0000ED01C4DA8420BD01B4DA84208D01B4D3E
:1054D000A84205D01A4DA84202D01A4DA84203D1C5
:1054E00022F44075CA682A434D6922F080022A439B
:1054F00002608A68C2620A688262A04201D0984251
:1055000001D109690163012141610169C90703D022
:10551000016921F001010161F0BD000000000140BE
:105520000004004000080040000C0040000401405E
:105530000040014000440140004801400018004084
:10554000001C00400020004038B51C48FEF7AEFDAE
:1055500001221B491948FFF73FF818480068016805
:10556000C943C90629D4174C00216160016841680C
:105570000091C16821F01001C160802212491348D6
:10558000FBF7FAF8114A01251078212802D04D289E
:1055900007D00CE00EA10F48521CFAF779FFE56026
:1055A00005E00BA10C48521CFAF772FF2561BDE81B
:1055B000384080210448FBF756B938BDF00400207C
:1055C000A80000201C00002050450020D0440020EE
:1055D000257300003C880020BC8800200148FEF7AD
:1055E00065BD00003805002010B5806B0021C18525
:1055F000C184FEF75AFD10BD70B5846B2068406908
:1056000094F84110C0F3C0100025212904D118B12D
:10561000E584204600F0B4F82068406994F8421010
:10562000C0F38010222904D118B1E585204600F08E
:1056300080F8606C40F0100060642046FEF735FD95
:1056400070BD10B50146806B096809684FF0000213
:10565000C9052ED4C28501680C3151E8003F23F4FE
:10566000807341E80034002CF5D10168143151E811
:10567000003F23F0010341E80034002CF5D101681C
:10568000143151E8003F23F0400341E80034002C7E
:10569000F5D1202180F84210016B012909D1016860
:1056A0000C3151E8003F23F0100341E80034002C96
:1056B000F5D14263016B012902D0FEF79BFF10BDBB
:1056C000818DFEF7F1FC10BD10B5806B01214163A7
:1056D000016B012902D0FFF70FF810BD818D490839
:1056E000FEF7E2FC10BD10B50146806B0968096841
:1056F000C90516D40021C1840168143151E8002F76
:1057000022F0800241E80023002BF5D101680C3122
:1057100051E8002F42F0400241E80023002BF5D170
:1057200010BDFFF777F810BD10B5806BFFF773F869
:1057300010BD01680C3151E8002F22F4907241E84D
:105740000023002BF5D10168143151E8002F22F01D
:10575000010241E80023002BF5D1016B012909D199
:1057600001680C3151E8002F22F0100241E80023BB
:10577000002BF5D1202180F84210002101637047F1
:1057800001680C3151E8002F22F0C00241E80023EB
:10579000002BF5D1202180F84110704708B590F812
:1057A0004210222901D0022008BD82684FF48053A4
:1057B0009A4201D1016921B1816A9A421BD04AB152
:1057C0000AE00268816A5268C2F308020A80816AAC
:1057D000891C08E0026972B10268526802F07F0217
:1057E0000A70816A491C8162C18D491E0904090C35
:1057F000C18503D01BE002685268F1E70168CA68FE
:1058000022F02002CA600168CA6822F48072CA606D
:1058100001684A6922F001024A61202180F84210A1
:1058200000214163026B012A03D0FEF7E3FE002052
:1058300008BD016301680C3151E8002F22F010020D
:1058400041E80023002BF5D101680A68D20602D591
:105850000A6849680091818DFEF726FCE7E70000A1
:1058600070B5044600680169E26821F440511143B3
:1058700001612169A068E269084361691143084335
:105880002168CA6849F20C639A430243CA602068DF
:105890004169A26921F44071114341613149206895
:1058A000884202D03049884202D1FDF7F7FE01E07C
:1058B000FDF7E4FEE2690023192164253226B2F5E2
:1058C000004F626828D0A0FB0101930F9200FAF705
:1058D00067FD0146B0FBF5F06FF01802504301EB95
:1058E000800006EB0010B0FBF5F000F0F002B1FB19
:1058F000F5F002EB0012B1FBF5F06FF0180358431E
:1059000001EB800006EB0010B0FBF5F000F00F009B
:1059100021681044886070BDA0FB010192185B41B2
:10592000FAF73EFD0146B0FBF5F00201B1FBF5F0E0
:105930006FF01803584301EB800006EBC000B0FB8A
:10594000F5F000F0F80002EB4002B1FBF5F058432F
:1059500001EB800006EBC000B0FBF5F000F00700A3
:10596000D6E70000001001400014014038B5816204
:1059700004468285002013466064222284F8422077
:10598000E56B1B4AEA63E56B1A4A2A64E56B1A4A1F
:10599000EA64E26B10650A462168E06B091DFDF7B9
:1059A0007DFB2068016840680090206948B120684C
:1059B0000C3050E8001F41F4807140E80012002ACA
:1059C000F5D12068143050E8001F41F0010140E893
:1059D0000012002AF5D12068143050E8001F41F071
:1059E000400140E80012002AF5D1002038BD000037
:1059F00043560008C9560008F9550008816282859F
:105A0000C28500214164222180F84210016921B140
:105A10000168CA6842F48072CA6001684A6942F04B
:105A200001024A610068C16841F02001C1600020A4
:105A300070472DE9F843984617460D460446089EE0
:105A400024E0701C22D0FDF77FFCA0EB0800B042E0
:105A50001AD8CEB12068C168490717D5802D15D056
:105A6000402D13D00168C94309070FD401680025F0
:105A7000406800902046FFF75CFE0820606484F8D0
:105A800040500120BDE8F8830320FBE72068006850
:105A900035EA000004D00020B842D2D00020F1E75F
:105AA0000120F9E710B50548FEF700FBBDE81040FE
:105AB000012203490148FEF78FBD00008005002048
:105AC000B000002010B50948FEF7F0FA012208499D
:105AD0000648FEF781FD0648064902780A70002153
