:020000040800F2
:10000000988F002061030008FD4A0008254700087A
:10001000D54A00084D280008995600080000000045
:10002000000000000000000000000000A102000825
:10003000B529000800000000FD020008C54D0008B9
:100040007B0300087B0300087B0300087B03000898
:100050007B0300087B0300087B0300087B03000888
:100060007B0300087B0300087B030008F9280008D5
:100070007B0300087B0300087B0300087B03000868
:100080007B0300087B0300087B0300087B03000858
:100090007B0300087B0300087B0300087B03000848
:1000A0007B0300087B0300087B030008814E0008E7
:1000B0007B0300087B0300087B0300087B03000828
:1000C0007B0300087B0300087B0300087B03000818
:1000D0007B030008FD5500081D5600085156000816
:1000E0007B0300087B0300087B0300087B030008F8
:1000F0007B0300087B0300087B0300080529000838
:100100007B0300087B0300087B0300087B030008D7
:10011000A1500008355100087B0300087B0300084C
:100120007B0300087B0300087B0300087B030008B7
:100130007B0300087B0300087B0300087B030008A7
:100140007B0300087B0300087B0300087B03000897
:100150007B0300087B0300087B0300087B03000887
:100160007B0300087B0300087B0300087B03000877
:100170007B0300087B0300087B03000800000000ED
:100180007B0300087B03000800F002F800F078F819
:100190000AA090E8000C82448344AAF10107DA45E2
:1001A00001D100F06DF8AFF2090EBAE80F0013F0BC
:1001B000010F18BFFB1A43F001031847808B0000A2
:1001C000A08B00000A444FF0000C10F8013B13F024
:1001D000070408BF10F8014B1D1108BF10F8015BA0
:1001E000641E05D010F8016B641E01F8016BF9D193
:1001F00013F0080F1EBF10F8014BAD1C0C1B09D1EA
:100200006D1E58BF01F801CBFAD505E014F8016B5B
:1002100001F8016B6D1EF9D59142D6D370470000ED
:100220000023002400250026103A28BF78C1FBD8FF
:10023000520728BF30C148BF0B607047662908F0DD
:100240001383752900F0B481632900F06686732951
:1002500000F06B86002070471FB508F0F8FA01F037
:100260001FF904000020002107F050FC401C6060D2
:100270000020002107F034FCE0601FBD10B510BD68
:1002800001F0D7FB1146FFF7E7FF06F0C7F900F0D2
:10029000E9F903B4FFF7F2FF03BC01F0C3FB000070
:1002A0002C4B19680868B0E8F04F80F30988BFF359
:1002B0006F8F4FF0000080F311887047000000003E
:1002C00008480068006880F308884FF0000080F359
:1002D000148862B661B6BFF34F8FBFF36F8F00DF34
:1002E00000BF00BF08ED00E0DFF80C00016841F43A
:1002F00070010160704700BF88ED00E0EFF30980F6
:10030000BFF36F8F134B1A681EF0100F08BF20ED5C
:10031000108A20E9F04F106009B44FF0500080F3CC
:100320001188BFF34F8FBFF36F8F07F0CFF84FF0F7
:10033000000080F3118809BC19680868B0E8F04F24
:100340001EF0100F08BFB0EC108A80F30988BFF3CD
:100350006F8F70473C000020EFF30580704700006E
:100360000948804709480047FEE7FEE7FEE7FEE749
:10037000FEE7FEE7FEE7FEE7FEE7FEE70448054985
:10038000054A064B70470000714E000889010008BD
:1003900098890020988F0020988B0020988B00204F
:1003A00053EA020C00F069802DE9F04B4FF0000693
:1003B000002B1FBFB3FA83F503FA05F424FA05F600
:1003C0005E4012BF1643B2FA82F502FA05F4C5F197
:1003D00020051EBF22FA05FC44EA0C04203556EA2B
:1003E000044C4FEA144418BF641C4FF000084FF04F
:1003F0000009904271EB030C39D3002919BFB1FAFF
:1004000081F701FA07F6B0FA80F700FA07F6C7F1AC
:1004100020071EBF20FA07FC46EA0C062037B6FB71
:10042000F4FCA7EB0507103F07F01F0BCBF12006EC
:100430000CFA0BFB2CFA06F644BFB3460026202F1D
:10044000A4BF5E464FF0000B5BEA060C08BF4FF0FE
:10045000010B19EB0B09ABFB027C48EB0608C01B38
:1004600006FB02CC0BFB03CC71EB0C01C1E70B4686
:10047000024641464846BDE8F08B13B54FF00000F8
:100480004FF00001AFF30080BDE81C407047000052
:100490000FB41CB5084B06AA7B446946009005982A
:1004A00000F011FD04460020694600F01FFD2046C3
:1004B0001CBC5DF814FB0000510A00000FB47CB5B1
:1004C0000C0009AA009001D02044401E084B7B4438
:1004D00069460190089800F0F6FC05461CB1002022
:1004E000694600F003FD28467CBC5DF814FB000063
:1004F000250A00002DE9F0410E4604460020206246
:100500002046E168884730B3252805D0D4E9012189
:100510009047206A401CF2E7E168204600278847A0
:10052000050018D0A5F14100192802D820354FF454
:1005300000673246294620462760FFF77FFE40B11C
:10054000012804D0F61D26F007060836D8E7361D28
:10055000D6E72846DAE7206ABDE8F08170B50C4698
:100560000546012A05D02878800600D5EA690023CF
:1005700002E0012305E05B1C934202D2E05C00280C
:10058000F9D1A869E618C01AA861286A1844286237
:100590002846AFF3008004E0D5E9012114F8010BEF
:1005A0009047B442F8D32846AFF3008070BD0000F6
:1005B0002DE9F0410646002410687529314616A53C
:1005C00010D0AFF30080002802DA404213A507E004
:1005D00031688A0701D512A502E0490704D511A5A3
:1005E000012401E0AFF3008000210A2206F1240774
:1005F00009E0B0FBF2FCB0FBF2F302FB1C00303070
:1006000078541846491C0028F3D123462A46304620
:10061000BDE8F04100F0EAB9000000002D00000044
:100620002B000000200000000FB400B58DB010A911
:10063000099000910B904FF0FF300A9000200C9031
:10064000064878440690064878446A4607900F9911
:1006500009A800F0F1FE0DB05DF814FB130E0000C8
:100660002B0E000010B50446AFF300802046BDE815
:100670001040FFF70EBE30B505460B462A4613F86C
:10068000014B12F8010B08B1A042F8D01CB10028B0
:1006900002D06D1CF1E7284630BD40EA010310B5D9
:1006A0009B070FD1042A0DD310C808C9121F9C4202
:1006B000F8D020BA19BA884201D9012010BD4FF0F4
:1006C000FF3010BD1AB1D30703D0521C07E0002041
:1006D00010BD10F8013B11F8014B1B1B07D110F89E
:1006E000013B11F8014B1B1B01D1921EF1D11846A1
:1006F00010BD40EA0103024630B59B0710D14FF010
:10070000013400E008C208C91D1B9D4315EAC41F3F
:10071000F8D013F0FF0102F8011B0DD01B0AF8E717
:1007200011F8013B002B02F8013B05D011F8013B09
:10073000002B02F8013BF3D130BD10B5431C02E0A1
:1007400010F8011B71B18107FAD14FF0013202C8D4
:100750008C1A8C4314EAC211F9D0C01A0A0603D0CD
:10076000C01E10BDC01A10BD0A0401D0801E10BDED
:100770000902FCD0401E10BD032A40F2308010F068
:10078000030C00F0158011F8013BBCF1020F62442C
:1007900098BF11F801CB00F8013B38BF11F8013BBD
:1007A000A2F1040298BF00F801CB38BF00F8013B6A
:1007B00011F0030300F02580083AC0F0088051F8DA
:1007C000043B083A51F804CBA0E80810F5E7121DE5
:1007D0005CBF51F8043B40F8043BAFF30080D20704
:1007E00024BF11F8013B11F801CB48BF11F8012BD0
:1007F00024BF00F8013B00F801CB48BF00F8012BF3
:10080000704710B5203AC0F00B80B1E81850203A7C
:10081000A0E81850B1E81850A0E81850BFF4F5AFA0
:100820005FEA027C24BFB1E81850A0E8185044BF2A
:1008300018C918C0BDE810405FEA827C24BF51F897
:10084000043B40F8043B08BF7047D20728BF31F88B
:10085000023B48BF11F8012B28BF20F8023B48BFDC
:1008600000F8012B70474FF000020429C0F01280FD
:1008700010F0030C00F01B80CCF1040CBCF1020F53
:1008800018BF00F8012BA8BF20F8022BA1EB0C0128
:1008900000F00DB85FEAC17C24BF00F8012B00F81E
:1008A000012B48BF00F8012B70474FF0000200B544
:1008B000134694469646203922BFA0E80C50A0E883
:1008C0000C50B1F12001BFF4F7AF090728BFA0E831
:1008D0000C5048BF0CC05DF804EB890028BF40F8FD
:1008E000042B08BF704748BF20F8022B11F0804F3F
:1008F00018BF00F8012B704710B5044610F0030F25
:1009000008BF11F0030F40F015804FF0013E121F99
:10091000C0F20E8051F8043BA3EB0E0C2CEA030C42
:100920001CEACE1C08BF40F8043BF0D0A1F1040142
:1009300002F10402521E08DB11F8013B002B00F803
:10094000013BF7D11146FFF78EFF204610BD000096
:100950004FF0013C50F8042B51F8043B9A4221D14E
:10096000A2EB0C03934313EACC1317D150F8042BDA
:1009700051F8043B9A4215D1A2EB0C03934313EABE
:10098000CC130BD150F8042B51F8043B9A4209D1F7
:10099000A2EB0C03934313EACC13DBD04FF000001F
:1009A000704700BFD01A01BAB1FA81F101F0180105
:1009B00022FA01F0CB40C1F12001DBB2C0B2C01A73
:1009C0002CFA01F3D11A914311EAC311E6D1704711
:1009D00070477047704710B500F066FD006810BDA5
:1009E00010B5044600F060FD046010BD2DE9F0472D
:1009F0000D4699469246044600F12408016888068F
:100A000004D5E06921F01001216000E00120A84236
:100A100001DD471B00E00027A1697A1902EB0900FC
:100A2000081AA0612078C00602D42046AFF30080E7
:100A3000002608E0D4E901211AF806009047206A50
:100A4000401C761C20624E45F4DB2078C0060AD597
:100A50002046AFF3008006E0D4E901213020904722
:100A6000206A401C2062381EA7F10107F4DC07E071
:100A7000D4E9012118F805009047206A401C206243
:100A8000281EA5F10105F3DC2046AFF30080207895
:100A9000000602D50220BDE8F0870120FBE7704781
:100AA0002DE9FF4F0C461E464FF0FF378BB0D2E9C1
:100AB0000001DDF860800A908A46C1F30A5505B945
:100AC0003D46002108464FF00000BAF1000F00F447
:100AD000400005DA00EB80004FF4400101EA5000CD
:100AE0004FEA9059B9F1010F00DDB9460A9850EA72
:100AF0004A000ED044F61050A5F2FF3545432F149E
:100B0000B8F1000F1ED07542291E1EDDC9F100028A
:100B10001CE0B8F1010F4FF0000001D0302103E0DC
:100B2000F24305E02154401CB042FBDB304600227A
:100B3000002121540B99C1F80880C1E900200FB0B1
:100B4000BDE8F08FBD1B6D1CDEE74A4600DA694246
:100B500006A800F0F5FE06AB93E8070003AB83E8B8
:100B6000070050460A9901F0DCF98DE80700A0F56E
:100B700000501F3800900398002D0ADD42F21F013B
:100B80004A460844002303A90390684601F088FC04
:100B900009E0A0F500504A461F38002303A903903E
:100BA000684601F0A7FC8DE807000004000C03D0A4
:100BB0004FF0FF30410800E01046B8F1000F03D0BD
:100BC0000022009215461EE0751E05D400F070FC50
:100BD000303262556D1EF9D5B3460122084302D06A
:100BE00000227F1C04E02078302801D100227F1EE3
:100BF000002A099784D01DE0112D07DA00F058FC77
:100C0000303262556D1C50EA0102F5D1084302D022
:100C10000098C8B10EE00021681E05E0235C625C0C
:100C200063542254401E491C8142F7DBAB46A81B8B
:100C3000401E0990002004F80B000B98099AC0F898
:100C40000880C0E9002B7AE711264FF0000857E72B
:100C50002DE9F04F88460446D21D22F0070191B0DD
:100C6000D1E90001CDE90A0104F066FD02460B98C6
:100C7000C00F01D02D2007E02068810701D52B206F
:100C800002E0202101EAC000032A099001D0072ACE
:100C900005DB03464146204600F058FC0BE1207876
:100CA000800601D5E06900E00620B8F1650F8146B5
:100CB00006D0B8F1660F18D0B8F1670F70D131E0E7
:100CC0000020B9F1110F009001DB112301E009F1BF
:100CD00001030AAA01A90CA8FFF7E2FEDDE90C70E6
:100CE000002609F10105834647E001204B460090AC
:100CF0004FF000470AAA01A90CA8FFF7D1FEDDE9D1
:100D00000DB00C995D46002610B909F101000D18CF
:100D1000B9EB050003D4C0F1FF3609F10105A5EBDD
:100D200009002BE0B9F1010F01DA4FF001090020B1
:100D3000B9F1110F0090484601DD112300E0034690
:100D40000AAA01A90CA8FFF7ABFEDDE90C704D461D
:100D500000268346207800070AD4AB4500DA5D46BA
:100D600001A8012D04DD411911F8011C302907D01B
:100D70004F4502DA17F1040F04DA012082460FE032
:100D80006D1EEEE7002F02DCED1B3E4403E0781CF5
:100D9000A84200DD7D1CB81B00F1010A4FF000479E
:100DA0002078000703D4AA4501DB4FF0FF3A002169
:100DB000B7F1004F0DF143088DF8431024D0022005
:100DC0002B23002F01DA7F422D230A21021EA0F1DE
:100DD000010000DC5FB197FBF1FC97FBF1F201FB36
:100DE0001C7C17460CF1300C08F801CDEEE7A8F199
:100DF000010003702188090501D5452100E0652126
:100E0000A0F1010800F8011C09980FA9A1EB08073F
:100E1000FF1D00B10120411901EBEA70A1693844BE
:100E2000081A401EA0612078C00602D42046AFF305
:100E30000080099828B1D4E901219047206A401C1C
:100E400020622078C00622D52046AFF300801EE045
:100E5000002E04DBB34502DD01A8805D00E03020F8
:100E6000D4E901219047206A401C2062761CAAF137
:100E700001005FEA000A0AD100F012FBC0680168B5
:100E8000405CD4E901219047206A401C2062281E62
:100E9000A5F10105DCDC07E0D4E9012118F8010B1C
:100EA0009047206A401C2062381EA7F10107F3DC3E
:100EB0002046AFF30080032011B041E601694A1CCF
:100EC00002610878704700B58FB0CDE9013100218B
:100ED000059105497944CDE9031011466846FFF7AD
:100EE00009FB0FB000BD0000E5FFFFFF0A6802F834
:100EF000010B0A607047D1E900239A4202D2531CC9
:100F00000B601070704710B5436913B1AFF30080E8
:100F100001E0FFF723FB012010BD127800F124014E
:100F20000A7000224A700122EDE711684FF0FF328B
:100F3000E9E700002DE9FF4F06468BB00878FF284F
:100F400006D0491C2D2805D000244FF0000908E0E8
:100F500000200CE00124F8E709EB8903491C00EBB1
:100F600043090878FF28F7D114B1C9F10000814680
:100F7000107800252C46AA4629462D2801D02B287A
:100F800004D1521C2D2813D0002082468B461078A5
:100F9000FF280FD04FF0000C0A21521CA5FB01784E
:100FA00004FB018105FB0C11C5194BEB0104EEE7B5
:100FB0000120EAE7002108464FF00000BAF1000FD7
:100FC00002D000EB80004008C0F38157012F01DD03
:100FD0004FF0FF370E9955EA040009EB01080BD0DA
:100FE0004FF0020918F5FA7F16DA4FEACA70002F9F
:100FF000706008DD012007E04FEACA70C6E900B062
:101000000FB0BDE8F08F0020306000F04DFAC0F85E
:1010100000901821084616E0B8F5FA7F18DD002F79
:1010200002DAF748784401E0F6487844D0E9001045
:10103000C6E9001040EACA70706000F035FAC0F8E6
:101040000090142108460FB0BDE8F04F07F009BC2E
:10105000002108464FF00000B8F10001099002DAC3
:10106000C7F1000200E03A4601DAC8F1000106A823
:1010700000F066FC06AB93E8070003AB83E80700CB
:1010800044F23E005BEA04010090584604D144F269
:101090001E012C465D460091210C0904014306D136
:1010A0000099240444EA15442D041039009104F0F9
:1010B0007F41014306D10099240244EA15642D02C0
:1010C0000839009104F07041014306D100992401D0
:1010D00044EA15742D01091F009104F040410143B9
:1010E00006D10099A40044EA9574AD00891E0091D0
:1010F00004F00041084304D100986D196441401E7A
:1011000000904FF001033A466846B8F1000FCDE970
:10111000014503A902DD01F002FA01E001F0D5F971
:10112000BAF1000F04460D4601D084F000440021BE
:1011300008464FF00000099940F2FF77484010F050
:101140000C0F07D124F00040284303D0C4F30A5009
:10115000B84212D100F0A8F9C0F80090C4F30A50C8
:10116000B8420AD1A8487844D0E90010C6E9001076
:1011700004F000410843706042E7C6E900543FE7CD
:101180002DE9FF4F1F464FF0000A4FF0FF3845464C
:1011900091B0D7E90146CDF83CA000F081F9C068D4
:1011A0000168405C1090B96912986D1C8847396AD3
:1011B000814688470028F6D1B9F1FF3F0AD0002EBA
:1011C00024F4D06411DDB9F12B0F08D0B9F12D0F43
:1011D0000BD102E0404615B013E744F48064B969CE
:1011E00012986D1C8847761E8146600504A901D5BA
:1011F0002D2000E02B20002E01F1010B0DF1300815
:101200008DF810003FDDB9F1690F08D0B9F1490F31
:1012100005D0B9F16E0F02D0B9F14E0F1CD13B468B
:1012200001A8009580E85002DDE912126FF002007B
:1012300007F080FBC11CCED10EE0B96912986D1C7D
:10124000884781461398761E44F4007405600F9811
:10125000401C002E0F9016DDB9F1300FEDD0B9F122
:10126000780F02D0B9F1580F0DD10F9801280AD18B
:101270003B46CDE90054DDE91212001F029607F04B
:1012800057FBC11CA7D1109989453ED144F0800479
:1012900006E01399681CAAF1010A44F4007408607E
:1012A000B9696D1C1298761E884730288146F0D0A7
:1012B0002BE01099894505D1200603D4761E44F011
:1012C000800418E0484605F082F808B3761E0DF158
:1012D00023018B4544F4007408D2A9F130000BF8C7
:1012E000010B200607D5AAF1010003E0200602D475
:1012F0000AF101008246A00502D51399681C086016
:10130000B96912986D1C88478146002ED1DC53E0E4
:10131000002E51DDB9F1650F02D0B9F1450F4BD167
:10132000A00549D5B9696D1C1298761E24F4407445
:101330008847002E81460CDD2B2804D0B9F12D0FF3
:1013400007D144F48074B96912986D1C8847761EE1
:101350008146E00501D52D2100E02B2108F8011B75
:10136000CDF8008021E0761E0DF13901884544F466
:1013700000740CD2A9F1300010F0FF0088F80000D2
:1013800002D10099884509D908F1010806E0E00575
:1013900001D51E4801E042F20F708246B9691298E9
:1013A0006D1C8847814613980560002E04DD484671
:1013B00005F00DF80028D6D1F96912988847FF206A
:1013C00053468BF8000088F8000000200A900B902C
:1013D00004AA0CA90AA8FFF7ADFDA00502D46FF07E
:1013E0000100F8E614F0240F12D0E0071CD1386891
:1013F000DDE90A12031D3B600068C0E9001213E03A
:101400003C7D00002E7D0000F27B0000F1D8FFFF44
:101410000AA9684604F0C8FFE00705D13868009AB9
:10142000011D3960006802602846D4E60268114454
:101430001378016018467047D160054979445161BD
:1014400004497944116200211161114600F0BEB8CF
:10145000EDFFFFFFF5000000426842B1016811F89E
:10146000013B23B1521EC0E900121846704701210A
:10147000C160881E704742685AB1C368016843B9A9
:1014800083688B4205D0491E521CC0E9001200201F
:1014900070474FF0FF307047004870473489002094
:1014A0000048704754890020004870473489002064
:1014B00030B5B0F10A024FEA900E71F100034EEA26
:1014C000817EB0EB0E0061EB91014FEA101E4EEAF7
:1014D000017E10EB0E0041EB11114FEA102E4EEA87
:1014E000016E10EB0E0041EB11214FEA104E4EEA57
:1014F000014E10EB0E0041EB1141401841F100018B
:101500004FEAD00040EA41704FEAD10110EB80056C
:101510004FEA810444EA907444EB01046D1944EBF2
:101520000404521BA3414FF0000348BF0A3200D508
:1015300030BD401C41F1000130BD10B5044600F043
:101540009DFA0068005D00F0010010BD2DE9F0413A
:101550001F46044603260168072A01F4006004DBE5
:1015600008B116A505E016A503E008B115A500E031
:1015700015A521F010002060A069C01EA0610FB168
:10158000401EA0612046AFF300804FB1D4E9012195
:1015900038469047206A401C2062C01C206206E04A
:1015A000206AFAE7D4E9012115F8010B9047761E6D
:1015B000F8D22046AFF30080BDE8F0814E414E00E6
:1015C0006E616E00494E4600696E66002DE9F34F6C
:1015D0004FF0000A0C4656468DB001200C9001F1E8
:1015E0000C000B9062690B9801219047051E2DD0CD
:1015F000252D2CD0216A8847C0B162690B98012142
:101600009047216A88470028F7D16269411E0B98EC
:10161000904700E0761CA1690D988847216A8847A9
:101620000028F7D1E1690D988847DBE7A1690D989B
:101630008847A842074601D1761CD3E7E1690D9897
:1016400088477F1C02D1BAF1000F6FD06CE162694C
:101650000B9800273D46394690472A2804D16269F5
:101660000B98012190470125DFF8D08262690B9821
:1016700001219047A0F130010A290AD24745E5DC53
:1016800007EB870100EB4107303FDFD445F0100541
:10169000ECE7E90601D46FF000476C280AD04C282B
:1016A00014D0682815D06A280DD074281CD07A2848
:1016B0001AD01DE062690B98012190476C2802D076
:1016C00045F0040514E045F002050DE045F0200565
:1016D0000AE062690B9801219047682802D045F022
:1016E000080505E045F4006562690B980121904703
:1016F000C4E9015765283DD019DC58287AD00CDCA4
:10170000452837D004DC252826D041289ED131E059
:1017100046282FD0472899D12CE05B2877D0612824
:1017200028D063287CD0642823D15AE0F7E06F28C2
:1017300048D008DC66281DD067281BD0692821D036
:101740006E2816D127E0702845D0732868D07528F8
:1017500047D078280DD14DE0A1690D9888472528FC
:1017600005463FF469AFE1690D9888476D1C3FF469
:101770006AAFD9E00D9923466A466FF0010007F081
:10178000D5F8C6E045F0400023464FF00002606007
:10179000A80736D43EE0E8077FF447AF2068011D74
:1017A00021600068290501D506701BE7290701D5CE
:1017B000068017E7A90703D5F117C0E9006111E713
:1017C00006600FE745F0400023464FF008026060D6
:1017D000A80716D41EE040F60E0125EA010060605D
:1017E00016E045F0400023464FF00A026060A8076B
:1017F00007D40FE045F040006060A80708D52346F5
:1018000010220D996FF00100AFF3008081E007E036
:10181000102223460D996FF00100AFF3008078E0AD
:101820004FF0000963284F46C8464B46CB4602D0CE
:101830005B2807D039E02079C00601D40120A060E0
:10184000012732E06269D4F80CB00B98012190476F
:101850005E2807D14FF0010949466269D4F80CB0FF
:101860000B989047216939B900210A4603AB43F828
:101870002120491C0829FADBD8B3216949B308F1B2
:10188000010862690B98012190475D28F4D1B9F1F4
:10189000000F09D0002003A951F82020D24341F8BD
:1018A0002020401C0828F7DB03AB206900282079A2
:1018B0004FEA40701ED05B462246CDF80080CDE94D
:1018C00001970D9900286FF0010020DAAFF3008036
:1018D0001FE0C11703AA00EBD1614B1121F01F01DA
:1018E00002EB8302411A136801208840034313600E
:1018F000C7E719E00D99224600286FF00100009714
:1019000002DAAFF3008004E0AFF3008001E0AFF350
:10191000008000280ADA401C06D10C9820B14FF054
:10192000FF300FB0BDE8F08F5046FAE7E90701D16C
:101930000AF1010A064400200C9053E6CCCCCC0CF2
:101940002DE9F047814616468AB0354878440DC8DF
:101950008DE80D0032487844801C03AC0DC884E843
:101960000D0041F69B300844372190FBF1F290FBCB
:10197000F1F5A5F1800501FB12041B3C02D5644280
:10198000012000E00020DFF898A080460027FA44FC
:10199000AAF1BE0A0EE0E0070AD03246684607EB1D
:1019A000470101230AEB810100F0A4FD8DE8070047
:1019B00064107F1C002CEED1194F7F44AE3F19E01C
:1019C000E80715D007EB04100DF1180A90E80E0097
:1019D0008AE80E00C068F04201D19819089032469A
:1019E000012306A903A800F085FD03AB83E80700E7
:1019F0006D10641C002DE3D14FF00103324669469F
:101A0000B8F1000F03A802D000F04AFD01E000F099
:101A100071FDC9E90001C9F808200AB0BDE8F087E6
:101A20007C73000001491820ABBEFEE726000200CF
:101A300070477546FFF730FDAE46050069465346D0
:101A400020F00700854618B020B5FEF797FCBDE8EA
:101A500020404FF000064FF000074FF000084FF015
:101A6000000B21F00701AC46ACE8C009ACE8C009A6
:101A7000ACE8C009ACE8C0098D46704710B5FFF767
:101A80000FFD001D10BD00BF856000002DE9FF4F58
:101A90001F464FF03C0987B04FF00042DDE91410BB
:101AA00001F10108DDF858A002EA4050039000203F
:101AB00005908346054604460490B969461E089879
:101AC0008847AAF1010A0290BAF1000F3BDD0298A3
:101AD0002E2815D0102100F016FA00282EDB4FF02A
:101AE000010B0599014317D0B9F1000F0BDB4A46F2
:101AF000C11700F0F5F905430C43A9F1040905E00D
:101B0000012004900BE008B145F00105012005908B
:101B1000049820B9361D02E0049800B1361FB96957
:101B2000089808F101088847BBF1000FAAF1010AE3
:101B30000290C9D00999C1F80080C5E702987028C1
:101B400008D0502806D0F96908988847BBF1000FE3
:101B500014D04FE0002002900120BBF1000F049050
:101B600009D0B969089808F101088847AAF1010964
:101B7000B9F1000F07DCF969089888476FF0010098
:101B80000BB0BDE8F08F2B2804D02D280CD14FF0DE
:101B9000FF300490B969089808F101088847A9F155
:101BA0000109B9F1000FE6DD411CE4D00A2100F083
:101BB000AAF90028DFDB029908F1010801EB810195
:101BC00000EB41000290B969089888470A2100F0AB
:101BD0009AF9099AA9F10109B9F1000FC2F8008038
:101BE00001DD0028E7DAF969089888470499029826
:101BF00000FB016655EA040004D004F040410900EE
:101C000002D006E0039898E0A40044EA9574AD0081
:101C1000B61E04F00041080002D16D196441761E21
:101C2000159810F0240F03D04FF00B095C4803E027
:101C30004FF028096FF07D008246564507DAAAEB7F
:101C400006018944B9F1410F01DD4FF0410901203E
:101C50000021A9F1010200F043F9024628400B4699
:101C60002140084301D0012100E00021501E0291D3
:101C700043F1FF3128402140084301D0012000E01A
:101C800000200299834651EA0B014FD000210846FB
:101C90004FF00000039900F4400039B100EB8000E0
:101CA0004FF4400100EBD07001EA6000801501287C
:101CB00002DD4FF0FF3000E013D0401C36D0029818
:101CC00060B3BBF1000F0CD14A460120002100F0A7
:101CD00007F928402140084301D0012000E00020FE
:101CE000E0B101204A46002100F0FAF8034640190D
:101CF0000A4661412D1A8C4111D3B9F1400F09DD1B
:101D0000159810F0240F02D0AAF1340603E0AAF1CE
:101D1000170600E0761C00254FF0004406E05B1E2D
:101D200042F1FF3220EA030521EA0204CAF1010070
:101D3000B04206DA1B490398084301900020009046
:101D40000EE0039AC4F3D321E80A0A43164940EA95
:101D500044500A433146CDE90002684604F02DFBA9
:101D6000159810F0240F0BD01598C00715D13868BE
:101D7000DDE90012031D3B600068C0E900120CE0C1
:101D800002A8694604F010FB1598C00705D1386811
:101D9000029A011D3960006802604046F0E60000CA
:101DA00002FCFFFF0000F07F0000F03F2DE9FF4F35
:101DB00092461D4685B04FF00041DDE9124BDDE94A
:101DC00014727F1E01EA4B50414940F0FF4940EA3E
:101DD0000108002122F020004928049102D04E2859
:101DE00028D04CE03BA0012607C88DE80700A96970
:101DF0000698641C88477F1E014606D41DF806001D
:101E000018B121F0200181420BD0E969069888477A
:101E1000032E34D0082E32D06FF0010009B0BDE897
:101E2000F08F761C032E01D0082EE0D1601CCAF87A
:101E30000000DCE7A9690698641C88477F1E2AD445
:101E400020F02000412826D1A9690698641C884703
:101E50007F1E20D420F020004E281CD1A9690698AE
:101E6000641C88477F1E48F4002849F48009CAF89A
:101E7000004001D4282806D0E969069888475FEA1F
:101E8000CB7012D022E0A9690698641C88477F1E97
:101E900001D4002803DAE96906988847BCE72928B5
:101EA000F1D1641CCAF80040E9E71BF0240F07D009
:101EB00028680499031D2B600068C0E9001805E03C
:101EC0002868021D2A600068C0F800902046A5E737
:101ED0000000F07F494E46494E4954590000000029
:101EE000B2F120030AD5C2F1200301FA02F120FA6F
:101EF00003F300FA02F041EA0301704700FA03F12C
:101F00004FF0000070473A2800D2303820F020020D
:101F1000412A01D3A2F13700884201D34FF0FF30AC
:101F200070475FEA400C08BF91F0000F4FEA8C2326
:101F30004FEAC12243EA51514FEA1C5018BF00F545
:101F4000F0404FEA300018BF41F000415FEA6C5C9E
:101F500000F02980BCF1FF3F08BF40F0804070478F
:101F6000130C06BF12044FF0100C4FF0000C130EB0
:101F700004BF12020CF1080C130F04BF12010CF184
:101F8000040C930F04BF92000CF1020CD30F04BF9A
:101F900052000CF1010C11464FF00002A0F11F009D
:101FA000A0EB0C00704711F0004F08BF704731F0F4
:101FB00000413FF4D5AF0B0C06BF09044FF0100CE5
:101FC0004FF0000C0B0E04BF09020CF1080C0B0FB4
:101FD00004BF09010CF1040C8B0F04BF89000CF144
:101FE000020CCB0F04BF49000CF1010CCCF1200313
:101FF000A0EB0C0022FA03F302FA0CF241EA03010F
:1020000000F10100704720F07F4C80EA030023F0CC
:102010007F47ACEB070303F57C5300F0004003F16E
:10202000FF032DE980494FEA154B09B44FEA1443E9
:1020300025EA0B4E24EA03480FF2042606EB132789
:1020400049083E785FEA320203FB0667C7F50007DE
:1020500007FB06F64FEA54374FEAD64606F102066A
:1020600007FB066CCCF1005C4FEA1C472CEA074CDE
:1020700007FB06F40CFB06F504EB15464FEA961633
:1020800034BF00204FF000404FEAD13706FB07FC79
:102090004FEA1C4C0CFB0BF7D21B03FB0CF761EB5C
:1020A00007010CFB0EF7B0EB074072EB17420CFB7D
:1020B00008F734BFA2EB0742B2EB074261EB1741CE
:1020C0004FEA0C444FEA910706FB07FC4FEA1C4C11
:1020D0000CFB0BF7B0EBC74072EB573203FB0CF76E
:1020E00034BFA2EBC742B2EBC74261EB57310CFBE6
:1020F0000EF7B0EBC70072EB57720CFB08F734BF5A
:10210000A2EBC702B2EBC70261EB5771039F4FEA24
:10211000816141EA921104EBCC044FEAD1374FEAD6
:10212000826206FB07FC42EA90124FEA80604FEAA7
:102130001C4C0CFB0BF7D21B03FB0CF761EB0701EC
:102140000CFB0EF7B0EB074072EB17420CFB08F7E5
:1021500034BFA2EB0742B2EB074261EB17414FEAF3
:102160008C554FEA910704EB9C2406FB07FC4FEAD1
:102170001C4C0CFB0BF7B0EBC74072EB573203FB68
:102180000CF734BFA2EBC742B2EBC74261EB573149
:102190000CFB0EF7B0EBC70072EB57720CFB08F7A5
:1021A00034BFA2EBC702B2EBC70261EB577115EB6C
:1021B0004C254FEA816141EA92114FEA82624FEA6F
:1021C000D13742EA901206FB07FC44F100044FEAC3
:1021D00080604FEA1C4C0CFB0BF7D21B03FB0CF787
:1021E00061EB07010CFB0EF7B0EB074072EB1742F7
:1021F0000CFB08F734BFA2EB0742B2EB074261EBDE
:10220000174115EB1C154FEA813141EA92414FEA23
:10221000823242EA90424FEA80304FEA0C7644F133
:10222000000448EA03434EEA0B484FF0000EB2EBBD
:10223000080C71EB030724BF624639464EEB0E0EC5
:102240004FF0000B0018524149414BEB0B0BB2EB26
:10225000080C71EB03077BF1000B24BF6246394683
:102260004EEB0E0E4FF0000B0018524149414BEB64
:102270000B0BB2EB080C71EB03077BF1000B24BFD7
:10228000624639464EEB0E0E51EA020718BF46F081
:10229000010616EB0E7655F1000254F1000103D54C
:1022A000BDE88901BDE80088BDE88901BDE80048B6
:1022B000B619524141EB0101A3F10103704780803F
:1022C0007F7E7D7C7B7A7978777676757473727190
:1022D00071706F6E6E6D6C6C6B6A6A696868676648
:1022E00066656464636362616160605F5F5E5E5DDA
:1022F0005D5C5C5B5B5A5A5959585857575656554E
:1023000055555454535352525251515050504F4FAF
:102310004F4E4E4D4D4D4C4C4C4B4B4B4A4A4A49FF
:102320004949484848474747474646464545454442
:1023300044444443434343424242424141410000FA
:1023400046EA0646A3F570534FEA164646EA425659
:102350004FEAD22242EA415210B54FEAD121A3F10D
:10236000010300F02FF820F0004000F1020C00F013
:10237000004701EB00501146BCF5006F40EA070032
:1023800000D210BDBAF1000F0AD01CB503B44FF053
:1023900004004FF004014FF000000FBCBDE81040F6
:1023A0004FF00001BBF1010FB9BF04484FF0FF31FE
:1023B0000348002140EA070010BD00BFFFFFEF7F88
:1023C0000000F07F002B9C4630D477002BD01CB54A
:1023D0004FEA370703B44FF010004FF01001BAF185
:1023E000000F06D0BCF1000FDCBF40F0080040F049
:1023F00008014FF000000FBCBDE810400BF1010BCD
:10240000BBF1010F08BF5FEA170722BF12F10102FB
:1024100011F101014FF0004143F1000300F00040D1
:1024200043EA00007047F9D35708D0E746EA06466A
:1024300013F1400F4FEA16461FDD13F1200FDFBFE7
:1024400016430A46002120335B42BED0C3F1200769
:1024500046EA064602FA07F74FEA164646EA070634
:10246000C3F1200722FA03F201FA07F721FA03F178
:102470004FF0000342EA0702A7E746EA020646EAEF
:1024800006464FEA164646EA0106BCBF46EA06463D
:10249000360C4FF000034FF000024FF0000194E7BC
:1024A0002DE9804C9A46934670B491E8380007C8ED
:1024B00031EA400C48BF34EA430C03D5FFF7A3FDD3
:1024C000FFF780FFF0BCBDE8008C2DE9804C9A46F8
:1024D000934670B491E8380007C831EA400C48BF11
:1024E00034EA430C03D5FFF78EFDFFF729FFF0BC5C
:1024F000BDE8008C2DE9804C9A46934670B491E873
:10250000380007C810F0804F08BF13F0804F03D188
:1025100000F01AF8FFF756FFF0BCBDE8008C2DE97B
:10252000804C9A46934670B491E8380007C810F082
:10253000804F08BF13F0804F03D100F005F8FFF77C
:10254000FFFEF0BCBDE8008C20F07F4780EA03006E
:1025500023F07F4C07EB0C03A3F57C5300F0004005
:10256000A3F1FE0392F0000F00F0B38095F0000F8E
:1025700000F077802DE901494FEA11404FEA1446F7
:1025800021EA004800FB06FC24EA064708FB06F6A1
:1025900007FB08F800FB07F718EB06484CEB164C56
:1025A0004FEA124B18EB07484FEA15464CEB174021
:1025B00022EA0B4E0BFB06FC25EA06470EFB06F64D
:1025C00007FB0EFE0BFB07F71EEB064E4CEB164C03
:1025D0004FF000061EEB074E4CEB174B18EB0B08A9
:1025E00040F1000018EB0E0B58EB000840F1000022
:1025F0008F1A4FF000013CBFC943661B14BFB5EBF7
:10260000040C00213CBFC943F61B4FEA17444EEAB5
:102610008E0E27EA04454FEA1C4704FB07622CEAAA
:10262000074C05FB07F70CFB05F604FB0CFC16EB4F
:10263000074642EB174216EB0C4642EB1C421BEBE3
:10264000060658EB0202414146EA9E0601D5BDE866
:102650000189B619524141EB0101A3F10103BDE823
:1026600001894FEA14454FEA114724EA054621EA59
:10267000074C05FB07F406FB07F70CFB06F105FB0F
:102680000CFC11EB074144EB17444FEA124711EBE6
:102690000C4144EB1C4422EA074C05FB07F206FB05
:1026A00007F70CFB06F605FB0CFC16EB074642EBA6
:1026B000174216EB0C4642EB1C456A1854F1000118
:1026C00048BF7047B619524141EB0101A3F1010324
:1026D000704795F0000F37D04FEA11424FEA144788
:1026E00021EA024624EA074C02FB07F106FB07F742
:1026F0000CFB06F402FB0CFC14EB074441EB174106
:102700004FEA154714EB0C4441EB1C4125EA074CFA
:1027100002FB07F506FB07F70CFB06F602FB0CFCB9
:1027200016EB074645EB174516EB0C4645EB1C42EE
:10273000121951F1000148BF7047B619524141EBDF
:102740000101A3F1010370474FEA14454FEA114715
:1027500024EA054621EA074C05FB07F106FB07F7CB
:102760000CFB06F24FF0000605FB0CFC12EB0742D7
:1027700041EB174112EB0C4251EB1C4148BF704733
:10278000921841EB0101A3F10103704770B5214C90
:102790000E46651E04F58054062839D2DFE800F0A5
:1027A000031138161D2632461BA11A48FDF770FE8C
:1027B000304623E06060BDE870400146154802F0F5
:1027C0008FBF1648006CBDE870400047144A12A144
:1027D0001048FDF75DFE124810E0114A0EA11932B3
:1027E0000C48FDF755FE0E48193007E00C4A0AA1C7
:1027F00036320848FDF74CFE09483630FDF79DFF9C
:102800002060415D0029D5D10248FDF796FFD1E750
:1028100070BD000044470020257300005087002051
:1028200094010020084C4FF4FA650126206838B95D
:10283000284603F05BFF00210120FFF7A7FF266079
:10284000142004F0DFFDF1E790010020FEE7000016
:102850002DE9F041052224492448FDF71EFF244CB0
:1028600018B9A07820700020A0701F490522491FC8
:102870001E48FDF712FF80BB1C49642201F1640071
:10288000FDF77AFFA07820700220A0701748184D3D
:102890000126D0F871000C3507BA2868B8420ED16D
:1028A00000F022FC00EE100AD4ED020A1149B8EE45
:1028B000400A30EE600A10EE100A88420DDD2F60EB
:1028C000A888401CA880E67000F00EFC00EE100AFC
:1028D000B8EE400A84ED020A6660BDE8F04164216A
:1028E0000248FDF7C0BF0000048B000860460020CE
:1028F000B80000200080BB44014800F073B900001C
:102900003C060020014800F06DB90000DC05002005
:1029100001681823CAB2103AB2FBF3F2054B6FF309
:102920000901032A9B5CC36500D9091D816508461E
:1029300070470000108A000810B5014600208B691E
:102940008A6A4FF0C07453B1B3F5005F15D072B10D
:10295000012A0CD0022A0AD0032A09D104E01AB1B4
:10296000012A06D0022A03D1C96AC90100D5012073
:1029700010BDC96AA142FAD010BD002AF7D0012AC1
:10298000F2D0022AF3D0032AF3D010BD30B5046888
:10299000256825F480252560046863608368402BE2
:1029A000036803D099600068C26030BD9A60006817
:1029B000C16030BD70470000124E134D002400BFAF
:1029C00096F90400312803D032280CD015E000BF5E
:1029D00028680128FBD100210320FFF7D7FE2C60D7
:1029E000B46009E000BF28680128FBD10021042061
:1029F000FFF7CCFE2C60F4603471C82004F002FDB7
:102A0000DEE7000068010020900100200122024959
:102A1000024801F067BD00006B0100204C0500205A
:102A20001B48012200210378012B05D04369312B7B
:102A300008D04369322B11D04369E3B14369332B8A
:102A400019D004E083685B1CC0E90231016183682E
:102A5000052B08DB3121017142700AE08160C368F7
:102A60005B1CC0E90331C368052B0ADB322101710D
:102A70008270027070478160C1600269521C0261FD
:102A8000017102690A2AF5DB016101710170704769
:102A90006801002072B6FEE72DE9F0411E48A0B0A3
:102AA00090F87D1069B38046D0F8880005F05EFE8E
:102AB00006460F46D8F8840005F058FE04460D4639
:102AC000D8F8800005F052FE0B4602468DE8FC0067
:102AD00012A2642106A8FDF7F1FC81B206A802F05B
:102AE000CFF81148F7EE000A06A990ED000A30EE83
:102AF000200A80ED000A001DFDF7FBFD20B0BDE8B7
:102B0000F0810948001DFDF718FE81B20648001D3E
:102B100002F0B6F8F2E70000D44500202125662C2B
:102B200025662C2566000000000100202DE9F041FB
:102B30000446876D00F0D8FA064694F83500002563
:102B4000022806D08020606584F834500120BDE85A
:102B5000F0812068016821F0160101602068416958
:102B600021F080014161206C08B9A06C20B120687F
:102B7000016821F0080101602068016821F001016D
:102B800001600CE000F0B0FA801B052807D9202076
:102B90006065032084F8350084F83450D7E7206856
:102BA0000068C007EED194F85C103F208840B86000
:102BB000012084F8350084F834500020C7E790F8ED
:102BC0003510022903D0802141650120704705217D
:102BD00080F835100068016821F0010101600020D3
:102BE000704700002DE9F84304464FF00009CDF886
:102BF000009063484FF41651A56D0068B0FBF1F7E3
:102C00002E6894F85C10082000FA01F131420FD0D0
:102C100021680A6852070BD50A6822F004020A608C
:102C200094F85C108840A860606D40F00100606519
:102C300094F85C104FF0010808FA01F0304208D017
:102C400021684969090604D5A860606D40F002005A
:102C5000606594F85C1004208840304208D02168F8
:102C60000968890704D5A860606D40F004006065BC
:102C700094F85C1010208840304218D02168096810
:102C8000090714D5A86020680168490304D50068C5
:102C9000000308D5A16C07E00168C90503D40168E9
:102CA00021F008010160216C09B12046884794F8A1
:102CB0005C1020208840304231D021680968C90664
:102CC0002DD5A86094F8350005282068016806D045
:102CD000490347D5006800031DD4616C1CE021F056
:102CE000160101602068416921F080014161206C7A
:102CF00008B9A06C20B12068016821F008010160CA
:102D000094F85C103F208840A86084F8358084F8EF
:102D10003490216D1FE0E16B09B120468847606D5A
:102D200000282BD0606DC00714D0052084F8350032
:102D30002068016821F0010101600098401C0090AA
:102D4000B84203D820680068C007F6D184F83580FF
:102D500084F83490E16C002910D001B02046BDE821
:102D6000F04308470168C905D5D4016821F0100176
:102D7000016084F8358084F83490CCE7BDE8F883AE
:102D8000380000202DE9F041044600F0ADF9064678
:102D90005CB1022084F83500002584F834502068A6
:102DA000016821F0010101600DE00120BDE8F08122
:102DB00000F09AF9801B052805D9202060650320C2
:102DC00084F83500F2E720680068C007F0D1226877
:102DD000116820480140D4E901031843D4E90336BF
:102DE0003343184363691843A3691843E3691843DD
:102DF000236A18430843616A042903D1D4E90B13F9
:102E000019430843106020684069666A20F0070192
:102E100030460E43012704280CD1A06A0643E06A1D
:102E200040B12046FFF788FD20B14020606584F85E
:102E30003570BAE7206846612046FFF769FD94F8CF
:102E40005C203F2191408160656584F835700020E9
:102E5000ACE700003F8010F02DE9F0410446866D9C
:102E600090F83400002501280DD0012084F83400AA
:102E700094F835700020012F07D084F83400022523
:102E80002846BDE8F0810220FBE7022784F8357070
:102E900060652046FFF77AFD94F85C103F2088407B
:102EA000B0602068016841F016010160206C20B11B
:102EB0002068016841F0080101602068016841F064
:102EC00001010160DCE7000070B5044600F00CF978
:102ED0000546601C02D004480078044400F004F960
:102EE000401BA042FAD370BD2C0000202DE9F84F02
:102EF000DFF8BCA10022012503264FF00F090AF1DB
:102F0000040BAAF1040E00BF0B6805FA02F423407B
:102F1000A34270D10F7907F00307012F01D0022FD0
:102F200016D187684FEA420806FA08FC27EA0C0720
:102F3000D1F80CC00CFA08FC4CEA070CC0F808C029
:102F40004768A7430C79C4F3001494403C434460A1
:102F50000C79E443A4070AD0C4684FEA420C06FA8D
:102F60000CF7BC438F6807FA0CF72743C7600C794E
:102F700004F00304022C12D1D40800EB840CDCF81A
:102F800020405707FF0E09FA07F824EA0804D1F891
:102F9000108008FA07F848EA0408CCF82080046892
:102FA0004FEA420C06FA0CF7BC430F7907F003070F
:102FB00007FA0CF7274307604C6814F4403F70D0C1
:102FC0003C4C276847F480472760246822F00307B9
:102FD00004F480440094384C07EB040CDCF80848F7
:102FE00097074FEA177809FA08F7BC43334FB842FE
:102FF00002D1002724E054E0314FB84201D101272B
:103000001EE0304FB84201D1022719E02E4FB842DE
:1030100001D1032714E02D4FB84201D104270FE05E
:103020002B4FB84201D105270AE02A4FB84201D1FF
:10303000062705E0284FB84201D1072700E00827FE
:1030400007FA08F72743CCF80878DAF80040574623
:10305000D1F804C09C435FEACC2C00D51C433C60F3
:10306000DBF800405F46D1F804C09C435FEA8C2C3B
:1030700000D51C433C60DEF800407746D1F804C020
:103080009C435FEA8C3C00D51C433C60084F083FE2
:103090003C68D1F804C09C435FEACC3C00D51C439B
:1030A0003C60521C102AFFF42FAFBDE8F88F0000DF
:1030B000083C01404438024000300140000002401A
:1030C0000004024000080240000C024000100240D0
:1030D0000014024000180240001C02400AB1816145
:1030E00070470904FBE70000014880687047000052
:1030F0002C000020024881680278114481607047EA
:103100002C0000200B4810B5016841F400710160EB
:10311000016841F480610160016841F480710160DF
:10312000032000F073F80F2000F006F800F024F8F8
:10313000002010BD003C024070B50D4D04464FF418
:103140007A712878B1FBF0F00A490968B1FBF0F018
:1031500000F00EFB48B9102C07D200222146501E69
:1031600000F034F800206C6070BD012070BD0000DC
:103170002C000020380000200C4882B0016841F487
:1031800080410160006800F4804000900748001F03
:10319000016841F0805101600068002200F0805019
:1031A00000900F21901E02B000F010B84438024089
:1031B000002809DB00F01F02012191404009800036
:1031C00000F1E020C0F8001170470000F0B40E4B91
:1031D0001B680C46C3F30223C3F10705042D00D975
:1031E0000425191D072901D2002300E0DB1E01265A
:1031F00006FA05F1491E214099409E40761E164070
:103200003143F0BC02F0B0BA0CED00E0064900F02A
:10321000070208684FF6FF03184040EA0220034AFD
:1032200010430860704700000CED00E00000FA0554
:103230002DE9F0470E46050065D0DFF81481D8F877
:103240000000F7B200F00700B04207D288F8007023
:10325000D8F8000000F00700B04254D128683D4C77
:10326000810712D5400703D5206840F4E050206064
:103270002878000703D5206840F46040206020686B
:10328000A96820F0F000084320602878C0072DD0FE
:10329000304968680839012812D0022813D0032861
:1032A00011D00968890700292DDA216821F003016E
:1032B00001432160FFF718FF814641F2883A0EE092
:1032C00009688903EFE709688901ECE7FFF70CFF5C
:1032D000A0EB0901514502D90320BDE8F087206821
:1032E000696800F00C00B0EB810FEFD1D8F8001046
:1032F000404601F00701B14207D90770006800F0AD
:103300000700B04201D00120E7E72878400705D543
:103310002068E96820F4E05008432060287800071E
:1033200006D52068296920F4604040EAC100206089
:1033300000F038F82168084AC1F30311515CC84015
:103340000649086006480068FFF7F6FE0020C4E75B
:10335000003C024008380240188A0008380000206B
:10336000300000200448054900680968044AC1F398
:103370008221515CC8407047380000200838024064
:10338000288A00080448054900680968044AC1F30E
:103390004231515CC8407047380000200838024074
:1033A000288A0008154810B5006810F00C0214486F
:1033B00013D04110042A0FD0082A0ED10F4C241F1D
:1033C0002268236802F03F025B0207D52068C0F341
:1033D0008810A0FB010106E0084610BD2168C1F37A
:1033E0008811A1FB00010023FCF7DAFF2168C1F37B
:1033F0000141491C4900B0FBF1F010BD0838024002
:103400000024F4002DE9F84F04006ED02078DFF896
:103410004C93C007A9F104054AD009F104000168E2
:10342000C1F38101012908D00068C0F3810002289E
:103430000AD1D9F80000400206D52868800337D5A4
:1034400060680028E1D033E06068B0F5803F10D0BC
:10345000B0F5A02F286810D020F4803028602868AC
:1034600020F4802028606068A8B1FFF73DFE064682
:103470000DE0286840F48030F4E740F480202860B4
:10348000F7E700BFFFF730FE801B642873D8286879
:103490008003F7D50CE0FFF727FE064605E000BFE6
:1034A000FFF722FE801B6428F0D828688003F7D439
:1034B0002078DFF8AC8280074FF0000A3ED5A7489D
:1034C000001D016811F00C0F08D00068C0F38100E6
:1034D00002280BD1D9F80000400207D428688007E1
:1034E00016D5E068012800D112E033E1E068B8B1F8
:1034F0000120C8F80000FFF7F7FD064605E000BF11
:10350000FFF7F2FD801B0228C0D828688007F7D596
:103510002868216920F0F80040EAC10028600DE029
:10352000C8F800A0FFF7E0FD064604E0FFF7DCFD69
:10353000801B02281FD828688007F7D4207800074E
:1035400022D5864F87486169703771B101210160CA
:10355000FFF7CAFD064604E0FFF7C6FD801B022800
:1035600009D838688007F7D50EE0C0F800A0FFF74B
:10357000BBFD064605E082E0FFF7B6FD801B022892
:103580007DD838688007F7D42078400768D5DFF801
:10359000CCB100270BF13C0BDBF80000C0000BD4D2
:1035A000DBF8001041F08051CBF80010DBF8000090
:1035B000012700F0805000906B4E3068C00510D499
:1035C000306840F480703060FFF78EFD009005E0B9
:1035D000FFF78AFD0099401A022850D83068C005CC
:1035E000F6D55E4EA0686C3601280FD005283068ED
:1035F00010D020F001003060306820F0040030600E
:10360000A068B8B1FFF770FD00900FE0306840F09F
:103610000100F4E740F004003060F7E7FFF764FDD5
:103620000099411A41F28830814266D8306880079B
:10363000F4D50EE0FFF758FD009007E0FFF754FDCA
:103640000099411A41F28830814256D8306880078B
:10365000F4D42FB1DBF8001021F08051CBF800102A
:10366000A069C8B33D49091D0968C1F38101022958
:103670004AD00228504607D0C8F8600000E03CE07D
:10368000FFF732FD04463BE04746C8F86000FFF70D
:103690002BFD064605E000BFFFF726FD801B022834
:1036A0002BD828688001F7D4D4E907010843A16A20
:1036B0002E4A490802EB0141626A41EA821108433D
:1036C00094F82C1040EA0161C9F800100120386616
:1036D000FFF70AFD044606E03EE000BFFFF704FDE9
:1036E000001B022809D828688001F7D534E000BF04
:1036F000FFF7FAFC001B022802D90320BDE8F88F6F
:1037000028688001F4D427E00128F7D0D9F8000018
:10371000E26900F4800191421CD1226A00F03F016D
:10372000914217D147F6C071626A0140B1EB821F26
:1037300010D1A26A4FF0FF3300F4403103EB520284
:10374000B1EB024F06D194F82C1000F07060B0EB92
:10375000016F01D00120D1E70020CFE704380240FB
:1037600000004742800E4742007000400000FFFF0B
:1037700010B5401EB0F1807F01D3012010BD4FF085
:10378000E02460610F21601701F0EEFF0020A061CE
:1037900007202061002010BD7047704770B590F879
:1037A0003C20012A32D0012480F83C40022280F8DB
:1037B0003D2003685A689D6822F070060A6832430B
:1037C0005A60134B02689A4214D0B2F1804F11D064
:1037D000104B9A420ED0104B9A420BD00F4B9A428C
:1037E00008D00F4B9A4205D00E4B9A4202D00E4B96
:1037F0009A4204D1496825F080031943916080F80A
:103800003D40002180F83C10084670BD022070BD8C
:10381000000001400004004000080040000C00408F
:1038200000040140004001400018004010B50400B1
:1038300003D094F83D0010B107E0012010BD002036
:1038400084F83C00204600F01FF8022084F83D0078
:10385000211D206801F01AFB012084F8460084F83D
:103860003E0084F83F0084F8400084F8410084F86A
:10387000420084F8430084F8440084F8450084F84A
:103880003D00002010BD000010B586B00446142194
:103890006846FDF70AF817492068884228D116487B
:1038A0000021026842F001020260006800F001009D
:1038B000059011481438026842F010020260006856
:1038C00000F0100005904FF4206000900220CDE938
:1038D00001010120CDE9031069460848FFF706FB06
:1038E000002205211B20FFF771FC1B20FFF760FC65
:1038F00006B010BD000001404438024000100240F4
:1039000070B5044690F83C000025012817D0012628
:1039100084F83C60022084F83D002068826822F030
:10392000770222F47F4282600868502838D00DDC8C
:1039300020284FD005DC90B3102811D14AE0022096
:1039400070BD302846D040280AD13BE060282FD0F7
:1039500070280DD0B0F5805F03D0B0F5005F12D0B5
:10396000012584F83D60002084F83C00284670BDA5
:10397000CB68D1E90121206801F001FB2068816852
:1039800041F0770109E0CB68D1E90121206801F01D
:10399000F6FA2068816841F480418160E1E719E02E
:1039A000CA684968206801F0FCFA5021206806E0E6
:1039B000CA684968206801F045FB6021206801F071
:1039C000E8FACEE7CA684968206801F0EAFA4021BF
:1039D0002068F4E7226801461046F0E72DE9F0413F
:1039E0003C4D06462DED048BA84245D1307F002783
:1039F0009FED398ADFED398A394C4FF00208B6EE77
:103A0000009A01281AD194F91800012838D0022808
:103A100032D10021284600F08FFA00EE100A002172
:103A20002846F8EE400A80EE880A20EE280A20EEAA
:103A3000090A84ED000A00F09BF92776307F0228FE
:103A40001AD194F9190001282DD0022814D104218B
:103A5000204800F071FA00EE100A04211D48B8EE6B
:103A6000400AC0EE080A20EEA80A20EE090A84EDFA
:103A7000010A00F07DF96776BDEC048BBDE8F081AA
:103A8000286847622868016A21F00A0101622868F3
:103A9000016A41F00201016284F8188000210D489A
:103AA00000F0E0F8CAE7286847622868016A21F058
:103AB000A00101622868016A41F02001016284F8D6
:103AC00019800421BDEC048BBDE8F041014800F0F1
:103AD000C9B800002C040020002474490000AA4347
:103AE000284700202DE9F041054690F83C000026CB
:103AF0000C46012810D0012085F83C0072B1042A40
:103B00001CD0082A2CD00C2A50D00126002085F881
:103B10003C003046BDE8F0810220FBE7D4E900120A
:103B2000E368286801F04EFA2868816921F00C01E9
:103B3000816128688169A26811430FE0D4E900120D
:103B4000E368286801F090FA2868816921F44061EF
:103B5000816128688169A26841EA02218161D5E713
:103B60002868D4E9002C277B036A016A21F480715C
:103B70000162C16923F4206321F0030141EA0C01D1
:103B800021F0F00C39074FF420674CEA116107EA85
:103B900002221A43C16102622868C16921F00C0146
:103BA000C1612868C169A26811432BE02868D4E983
:103BB0000021E768036AD0F820C02CF4805CC0F8CC
:103BC00020C0D0F81CC023F420432CF4407C4CEAE5
:103BD000012121F4704C4FF6FF7101EA07314FF4D7
:103BE000204741EA0C0107EA02321A43C16102622E
:103BF0002868C16921F44061C1612868C169A2686F
:103C000041EA0221C16181E710B5040003D094F8B4
:103C10003D0010B107E0012010BD002084F83C00F9
:103C2000204600F01EF8022084F83D00211D206887
:103C300001F02CF9012084F8460084F83E0084F855
:103C40003F0084F8400084F8410084F8420084F882
:103C5000430084F8440084F8450084F83D000020C7
:103C600010BD704730B50446002551B104290DD070
:103C7000082910D094F8410094F84520012811D16A
:103C80000EE094F83E0094F84220F7E794F83F00E5
:103C900094F84320F2E794F8400094F84420EDE7CC
:103CA000012A01D0012030BD022059B1042912D0CF
:103CB000082919D084F8410084F845000C2944D023
:103CC000012540E084F83E0084F842002068C26884
:103CD00042F0020210E084F83F0084F843002068BC
:103CE000C26842F0040207E084F8400084F844000F
:103CF0002068C26842F00802C2600122206801F018
:103D000031F914492068884214D0B0F1804F11D0A5
:103D1000114988420ED0114988420BD0104988427F
:103D200008D01049884205D00F49884202D00F4977
:103D3000884204D1816801F00701062903D0016897
:103D400041F001010160284630BD2068C26842F0A0
:103D50001002D1E7000001400004004000080040CC
:103D6000000C0040000401400040014000180040E9
:103D700070B50D0004464FF0000607D0042D0AD0A0
:103D8000082D0DD00C2D10D001262FE02068C16821
:103D900021F002010DE02068C16821F0040108E073
:103DA0002068C16821F0080103E02068C16821F0A3
:103DB0001001C16000222946206801F0D3F8206874
:103DC000016A41F21112114207D1016A92101142A7
:103DD00003D1016821F001010160012045B1042DEA
:103DE00009D0082D0AD004F8410F2071304670BD6B
:103DF00004F83E0FF9E704F83F0FF6E704F8400F28
:103E0000F3E72DE9F04104460068C66805694FF004
:103E10000007A90713D5B10711D5F91E01610120CB
:103E20002077206880698007204602D0FFF7D6FD02
:103E300004E000F07EF8204600F07CF82777680761
:103E400016D5700714D521686FF0040008610220B0
:103E500020772068806910F4407F204602D0FFF769
:103E6000BDFD04E000F065F8204600F063F8277718
:103E7000280715D5300713D521686FF008000861B1
:103E8000042020772068C0698007204602D0FFF711
:103E9000A5FD04E000F04DF8204600F04BF8277730
:103EA000E80616D5F00614D521686FF010000861F9
:103EB000082020772068C06910F4407F204602D097
:103EC000FFF78CFD04E000F034F8204600F032F8F3
:103ED0002777E80708D0F00706D021686FF00100C7
:103EE0000861204600F027F8280608D5300606D5D8
:103EF00021686FF0800008612046FFF74DFC6806DE
:103F000008D5700606D521686FF04000086120468C
:103F100000F027F8A8060AD5B00608D521686FF08A
:103F2000200008612046BDE8F041FFF736BCBDE83F
:103F3000F0817047704770470246002041B1042964
:103F400009D008290AD00C2901D11068006C7047EB
:103F50001068406B70471068806B70471068C06BCA
:103F60007047704738B5044690F84200202801D0C9
:103F7000022038BD61B15AB1012020630020606386
:103F8000204601F09FFA0028F3D1216B012901D0CE
:103F9000012038BD21680A684968009121680C3108
:103FA00051E8002F42F0100241E80023002BF5D128
:103FB00038BD704770470000F8B5016804460868CE
:103FC000CA684B6910F00F0F4FF0000559D003F08D
:103FD000010602F49077374365D0C10705D0D105BB
:103FE00003D5616C41F001016164410705D5D90732
:103FF00003D0616C41F002016164810705D5D907E6
:1040000003D0616C41F004016164010707D502F03F
:104010002001314303D0616C41F008016164616C9F
:1040200000293AD0800604D5900602D5204601F03A
:1040300061F920684069616CC0F38010090700D401
:1040400060B3204601F021F920684069400621D57F
:104050002068143050E8001F21F0400140E80012B1
:10406000002AF5D1E06BA8B16E490165E06BFEF75F
:10407000A6FD002811D0E06B016D01B0BDE8F04055
:10408000084783060FD593060DD52046BDE8F840B6
:1040900001F030B92046FFF78DFFF8BD2046FFF74D
:1040A00089FF6564F8BD266B2023012E7DD1C606ED
:1040B0007BD5D60679D508684868009048694FF0E6
:1040C0000206400641D5E16B086840680004000C18
:1040D000E8D0A28D8242E5D9E085C869B0F5807F3D
:1040E0002DD020680C3050E8001F21F4807140E88A
:1040F0000012002AF5D12068143050E8001F21F08A
:10410000010140E80012002AF5D12068143050E87F
:10411000001F21F0400140E80012002AF5D184F888
:104120004230256320680C3050E8001F21F0100158
:1041300040E80012002AF5D1E06BFEF7F7FC666359
:10414000A08DE18D401A81B22AE0A08DE18D401A48
:1041500081B2E08D0028A5D00029A3D022680C32BE
:1041600052E8000F20F4907042E80007002FF5D1CC
:104170002068143050E8002F22F0010240E80027A8
:10418000002FF5D184F84230256320680C3050E8C8
:10419000002F22F0100240E80023002BF5D16663C7
:1041A0002046FFF706FFF8BDFFE705062BD51506ED
:1041B00029D594F841002128F5D1A068B0F5805F99
:1041C00001D12069B0B1206A411C216221680078C8
:1041D0004860E08C401E0004000CE084E3D12068BD
:1041E000C16821F08001C1602068C16841F04001D0
:1041F000C160D8E7206A0088C0F308004860206AE0
:10420000801C2062E5E74006CDD55006CBD5CA68B4
:10421000204622F04002CA6084F8413000F080FA63
:10422000C1E700004151000870B5040004D094F8C3
:104230004100002510B106E0012070BD84F8405017
:10424000204600F023F8242084F841002068C1684B
:1042500021F40051C160204601F0AEF820680169E8
:1042600021F4904101612068416921F02A014161F6
:104270002068C16841F40051C1606564202084F861
:10428000410084F842006563002070BD2DE9F041D3
:1042900086B0074614216846FCF707FB8648DFF81E
:1042A00014823B6884491038032502260822DFF86F
:1042B0000CC2002443451FD10B6843F400230B605C
:1042C000096801F400210591016841F001010160D4
:1042D0000068CDE9005600F00100CDE904206946F0
:1042E0006046CDE90245FEF701FE0022052134209B
:1042F000FEF76CFF342066E0DFF8C481434567D1E8
:104300000B6843F480130B60096801F48011059178
:10431000016841F004010160016801F004010591A8
:10432000016841F008010160006802AB00F008007C
:1043300005904FF48050CDE90006904683E83001A7
:1043400069466048FEF7D2FD0420CDE9000602ABC5
:10435000694683E830015C48FEF7C8FD5C4D5B4868
:104360004FF00066E5E8020640204FF48068A5E8BB
:104370001101574845F81449AC61EC612C626C623C
:10438000FEF700FD08B1FEF785FBBD63AF63504D3E
:104390004E486035A8382860C5E90164C5E903487E
:1043A0006C61AC61EC612C6228466C62FEF7EAFC41
:1043B00008B1FEF76FFBFD63002205213520AF63D6
:1043C000FEF704FF3520FEF7F3FE06B0BDE8F081EE
:1043D000404F0722BB4223D13749091D0B6843F0E8
:1043E00010030B60096801F010010591016841F0AC
:1043F000010101600068029400F0010005904FF493
:10440000C060CDE90006CDE9035269466046FEF77B
:104410006DFD002205212520FEF7D8FE2520D2E7DC
:104420002D4FBB4220D10B6843F400330B60096869
:1044300001F400310591016841F00101016000685B
:10444000029400F0010005900C20CDE90006CDE9B2
:10445000035269466046FEF749FD002205212620E9
:10446000FEF7B4FE2620AEE71C4FBB42ADD10B6871
:1044700043F480230B60096801F4802105910168F1
:1044800041F0020101600068029400F00200059012
:104490004FF44060CDE90006CDE90352694610486B
:1044A000FEF724FD002205212720FEF78FFE27209E
:1044B00089E70000004C0040403802400000024004
:1044C0000050004000080240000C0240B86002406A
:1044D000DC0500200010014000440040004800407E
:1044E0000004024090F84230202B01D00220704797
:1044F00021B11AB10023036301F02CB801207047E9
:104500002DE9F041054630480127304C85421CD149
:104510002F484FF000080178242901D1A4F8008029
:104520002C4822888154521C96B226800278242A74
:1045300007D102794D2A04D14079432801D10A29B3
:104540002ED0C82E01D3C820208023492868884255
:104550000CD12248224A0178A0681154401CA06066
:1045600020480068C16841F01001C1601E492868F8
:1045700088420CD11D481E4A017860681154401CC5
:1045800060601C480068C16841F01001C1601A49B0
:104590002868884202D1194880F82E70BDE8F08161
:1045A00050211748FCF781F932460A491448FCF7B4
:1045B000E3F81348C82180F85070A4F8008005483B
:1045C000FCF751F9C1E700000405002018000020A5
:1045D000AC0000200C45002000480040B90000203D
:1045E0006046002094050020004C0040A4000020FC
:1045F0008C440020740400200050004050870020AC
:10460000D445002070472DE9F843044690F8410056
:10461000984616460D46202802D00220BDE8F883B1
:1046200085B17EB100206064212084F84100FEF74E
:104630005BFDA6848146E684A0682027B0F5805FF4
:1046400002D003E00120E9E7206910B12E460025E1
:104650000EE000260CE08021204600F096FFA8B96D
:10466000C6B116F8010B21684860E08C401EE0845A
:10467000E08C4B464FF00002CDF800800028EAD1D4
:104680004FF04001204600F080FF40B184F84170B7
:104690000320C3E735F8020BC0F30800E3E784F812
:1046A00041700020BAE7000070B5044690F8410060
:1046B000202801D0022070BD49B342B32162A284F8
:1046C000E28400206064212384F84130A56B114B03
:1046D000EB63A56B104B2B64A56B104BEB64A36BCA
:1046E0001865256813462A1DA06BFEF7B5FB2168E7
:1046F0006FF0400008602068143050E8001F41F05F
:10470000800140E80012002AF5D1002070BD012090
:1047100070BD00003F52000881520008515100084E
:1047200070477047FEE700000448034941600E31BE
:1047300081600C31C1607047CC00002050570020D0
:1047400010B5FFF7F1FF0B49094808600B480A490B
:1047500001630B4941630B4981630B49C1630B49F9
:10476000016402F0E1FEBDE810400A20FEF7ACBB98
:10477000BC0400205057002021570008508700201B
:10478000D94C000829750008D15600089D5600082C
:104790000D4808B5016841F400110160006800226D
:1047A00000F40010009005210B20FEF70FFD0B20F8
:1047B000FEF7FEFC002205212F20FEF707FDBDE8D5
:1047C00008402F20FEF7F4BC3038024010B5AAB0E4
:1047D0001C2221496846FCF714F80021684601F0C4
:1047E00091FF1E4C1C491C2260611C3107A8FCF77C
:1047F00008F8002107A801F085FF174920601C2256
:1048000038310EA8FBF7FDFF00210EA801F07AFF5A
:10481000114960601C22543115A8FBF7F2FF0021FA
:1048200015A801F06FFF0C49A0601C2270311CA874
:10483000FBF7E7FF00211CA801F064FF0649E060D8
:104840001C228C3123A8FBF7DCFF002123A801F0F8
:1048500059FF20612AB010BD6889000800000020BF
:1048600070B586B014216846FCF71FF8274800246D
:10487000016841F004010160016801F00401059143
:10488000016841F080010160016801F0800105913B
:10489000016841F001010160016801F00101059129
:1048A000016841F010010160016801F010010591FB
:1048B000016841F002010160016801F00201059107
:1048C000016841F0080101600068114E00F0080025
:1048D000059000224FF4A0513046FEF7FFFB301543
:1048E00000900125CDE90154694630460394FEF756
:1048F000FDFA2803CDE900050220CDE9020469464E
:104900003046FEF7F3FA06B070BD000030380240C2
:104910000010024010B58AB0002427480494059482
:1049200006940794089409940094019402942149F0
:1049300003940160A621C0E901144FF6FF71C0E99C
:1049400003148021C0E90541FEF770FF08B1FEF7AE
:10495000A1F84FF48050049004A91748FEF7D0FF47
:1049600008B1FEF797F81448FFF74EF908B1FEF7C3
:1049700091F8089408A910480994FEF70FFF08B1B0
:10498000FEF788F80120CDE9004002940022694634
:1049900009480394FFF7A6F808B1FEF77BF8042254
:1049A00069460548FFF79EF8002801D0FEF772F827
:1049B0000AB010BD000001402C0400200C4810B5C6
:1049C0000A4901604FF4E1314160002181600C220D
:1049D000C160C0E904128161C161FFF725FC0028B4
:1049E00003D0BDE81040FEF755B810BD004C0040A4
:1049F000740400200C4810B50A4901604FF4E131FD
:104A00004160002181600C22C160C0E90412816113
:104A1000C161FFF709FC002803D0BDE81040FEF794
:104A200039B810BD00500040BC0400200C4810B53F
:104A30000A4901604FF416514160002181600C2247
:104A4000C160C0E904128161C161FFF7EDFB00287C
:104A500003D0BDE81040FEF71DB810BD00100140A6
:104A6000040500200C4810B50A4901604FF4E131FB
:104A70004160002181600C22C160C0E904128161A3
:104A8000C161FFF7D1FB002803D0BDE81040FEF75D
:104A900001B810BD004400404C0500200C4810B582
:104AA0000A4901604FF4E1314160002181600C222C
:104AB000C160C0E904128161C161FFF7B5FB002844
:104AC00003D0BDE81040FDF7E5BF10BD0048004031
:104AD00094050020FEE70000074C00BF00F006F937
:104AE000A07808B901F036FD01F0E8FD01F076FC90
:104AF000322002F087FCF1E780010020FEE7000091
:104B0000A0B0204D204C214E00272868012804D059
:104B10003068012810D030E000BF20680128FBD1A8
:104B200027601B490020FDF731FE80211848FBF764
:104B30009AFE2F6021E000BF20680128FBD1DFF83A
:104B4000509009F1800909F1010199F800008046AF
:104B500002466846FBF710FE276069460DF80870AC
:104B60000020FDF713FE09EB08016846491CFBF71E
:104B70008FFC684600F06EF83760642002F042FC5B
:104B8000C3E700002400002090010020280000203E
:104B9000348800209AB0012226492748FFF7A2FC5A
:104BA00000F0FCF84FF47A78244E254F0025254C70
:104BB00001F0D2FDFDF770FF404602F023FC3068A3
:104BC000012814D1204821A102686846FBF760FC47
:104BD00002F0A0FB6846FBF7B0FD81B2684600F02A
:104BE0004FF802F0B7FB6420356002F00BFC387818
:104BF00001280BD1312216A16846FBF749FC684613
:104C000000F054F83D70642002F0FCFB207801288D
:104C1000CED132220EA16846FBF73AFC684600F07E
:104C200045F8684600F042F82570642002F0EAFB7F
:104C3000BEE70000AC00002004050020BC000020FE
:104C4000690100206A010020C40000204125750090
:104C50002325630000B5B3B0064B009006A2C8211F
:104C600001A8FBF72BFC81B201A800F009F833B0D2
:104C700000BD0000EC8A0008257325730D0A0000B2
:104C80004A1C10B501460748FBF736FE0548FBF7FE
:104C900054FD82B2BDE810404FF0FF330149024895
:104CA000FFF7B1BC8C4300207404002010B501460E
:104CB00080220748FBF720FE0548FBF73EFD82B245
:104CC000BDE810404FF0FF3301490248FFF79BBC9D
:104CD0008C43002074040020034803494FF48052A1
:104CE00000691831FFF73EB9505700202DE9F04711
:104CF000274D287E274C284E01274FF4347800BBDF
:104D00004FF48069012249463046FEF7E7F900BFBB
:104D100000BF0220414600BF401C8842FBDB00224E
:104D200049463046FEF7DAF92068016A21F00A01A7
:104D300001622068016A016200211648FEF792FFB5
:104D40002F76687E002820D14FF4805901224946F1
:104D50003046FEF7C3F900BF00BF0220414600BF46
:104D6000401C8842FBDB002249463046FEF7B6F97C
:104D70002068016A21F0A00101622068016A0162D5
:104D800004210448FEF76EFF6F76BDE8F08700004F
:104D9000284700202C0400200010024006489FED08
:104DA000050A002180ED020A80ED030A01764176B2
:104DB000704700000000000028470020012001F09B
:104DC00095FCFBE710B5FEF795F902F0B3FD01285D
:104DD00003D0BDE8104002F03FBD10BD30B593B028
:104DE00030216846FBF761FD14210CA8FBF75DFD3F
:104DF0001D480025016841F080510160006800F005
:104E0000805011901948016841F4804101600068A8
:104E1000022400F4804011900120009000040190D1
:104E20008001CDE9064008AA0420A82182E81300E9
:104E30000B906846FEF7E6FA08B172B6FEE70CA9D9
:104E40000F2081E831004FF4A0500F904FF48050B4
:104E5000109005210CA8FEF7EBF9002801D072B6DE
:104E6000FEE713B030BD0000403802400070004043
:104E70000248016841F470010160704788ED00E06C
:104E80000148FEF7BEBF00002C040020F0B5026808
:104E9000294C2A4D2A4E2B4F2B4B4FF0804CA042D1
:104EA00009D0604507D0A84205D0B04203D0B8422F
:104EB00001D0984204D122F0700E4A6842EA0E02F4
:104EC000A0421BD0604519D0A84217D0B04215D0DF
:104ED000B84213D0984211D01C4DA8420ED01C4DA0
:104EE000A8420BD01B4DA84208D01B4DA84205D0AC
:104EF0001A4DA84202D01A4DA84203D122F440759F
:104F0000CA682A434D6922F080022A4302608A68F7
:104F1000C2620A688262A04201D0984201D1096946
:104F20000163012141610169C90703D0016921F0D1
:104F300001010161F0BD00000000014000040040DB
:104F400000080040000C0040000401400040014007
:104F5000004401400048014000180040001C00408F
:104F60000020004010B501F01F030121046A9940A0
:104F70008C430462016A9A401143016210BD10B56E
:104F8000846842EA032224F47F440A432243826075
:104F900010BD826822F070020A4342F0070181606E
:104FA000704710B5036A046A24F00104046284693E
:104FB00024F0F00444EA021423F00A020A43846154
:104FC000026210BD70B5056A046A24F0010404622F
:104FD0008469154EB04214D0B0F1804F11D0134EF9
:104FE000B0420ED0124EB0420BD0124EB04208D09A
:104FF000114EB04205D0114EB04202D0104EB04218
:1050000003D124F00304144301E044F001041A071F
:1050100024F0F00444EA126225F00A0301F00A01C8
:1050200019438261016270BD00000140000400402C
:1050300000080040000C0040000401400040014016
:105040000018004010B5036A046A24F010040462DA
:10505000846923F0A00324F4704444EA023243EA52
:1050600001118261016210BD30B5046A056A25F044
:1050700010050562856925F4407545EA022222F48F
:1050800070454FF6FF7202EA033224F0A0032A4370
:10509000A02404EA011119438261016230BD0000BD
:1050A00038B51C48FEF788FF01221B491948FFF755
:1050B00019FA184800680168C943C90629D4174C71
:1050C00000216160016841680091C16821F0100110
:1050D000C160802212491348FBF74EFB114A01259B
:1050E0001078212802D04D2807D00CE00EA10F48DF
:1050F000521CFBF7CDF9E56005E00BA10C48521CF2
:10510000FBF7C6F92561BDE8384080210448FBF76C
:10511000AABB38BD74040020A400002018000020A1
:105120008C4400200C4400202573000034880020AB
:10513000B48800200148FEF73FBF0000BC040020F7
:1051400010B5806B0021C185C184FEF733FF10BD0F
:1051500070B5846B2068406994F84110C0F3C010AA
:105160000025212904D118B1E584204600F0B4F8C7
:105170002068406994F84210C0F38010222904D1BD
:1051800018B1E585204600F080F8606C40F0100012
:1051900060642046FEF70EFF70BD10B50146806BBF
:1051A000096809684FF00002C9052ED4C28501685C
:1051B0000C3151E8003F23F4807341E80034002CA7
:1051C000F5D10168143151E8003F23F0010341E8B3
:1051D0000034002CF5D10168143151E8003F23F070
:1051E000400341E80034002CF5D1202180F8421022
:1051F000016B012909D101680C3151E8003F23F00E
:10520000100341E80034002CF5D14263016B012901
:1052100002D0FFF775F910BD818DFEF7CAFE10BDF3
:1052200010B5806B01214163016B012902D0FFF7AA
:10523000E9F910BD818D4908FEF7BBFE10BD10B520
:105240000146806B09680968C90516D40021C1842C
:105250000168143151E8002F22F0800241E8002358
:10526000002BF5D101680C3151E8002F42F04002CB
:1052700041E80023002BF5D110BDFFF751FA10BD16
:1052800010B5806BFFF74DFA10BD01680C3151E885
:10529000002F22F4907241E80023002BF5D1016821
:1052A000143151E8002F22F0010241E80023002BC5
:1052B000F5D1016B012909D101680C3151E8002FAA
:1052C00022F0100241E80023002BF5D1202180F8C4
:1052D000421000210163704701680C3151E8002F32
:1052E00022F0C00241E80023002BF5D1202180F8F4
:1052F0004110704708B590F84210222901D00220D1
:1053000008BD82684FF480539A4201D1016921B1EE
:10531000816A9A421BD04AB10AE00268816A5268E7
:10532000C2F308020A80816A891C08E0026972B12E
:105330000268526802F07F020A70816A491C816229
:10534000C18D491E0904090CC18503D01BE0026808
:105350005268F1E70168CA6822F02002CA60016859
:10536000CA6822F48072CA6001684A6922F00102A8
:105370004A61202180F8421000214163026B012A1A
:1053800003D0FFF7BDF8002008BD016301680C31B0
:1053900051E8002F22F0100241E80023002BF5D144
:1053A00001680A68D20602D50A6849680091818DB1
:1053B000FEF7FFFDE7E7000070B5044600680169ED
:1053C000E26821F44051114301612169A068E2695A
:1053D00008436169114308432168CA6849F20C63B4
:1053E0009A430243CA6020684169A26921F440716E
:1053F0001143416131492068884202D030498842D6
:1054000002D1FDF7BFFF01E0FDF7ACFFE269002329
:10541000192164253226B2F5004F626828D0A0FB1E
:105420000101930F9200FAF7BBFF0146B0FBF5F0C4
:105430006FF01802504301EB800006EB0010B0FB48
:10544000F5F000F0F002B1FBF5F002EB0012B1FB59
:10545000F5F06FF01803584301EB800006EB0010E5
:10546000B0FBF5F000F00F0021681044886070BDBB
:10547000A0FB010192185B41FAF792FF0146B0FBD5
:10548000F5F00201B1FBF5F06FF01803584301EBA2
:10549000800006EBC000B0FBF5F000F0F80002EB76
:1054A0004002B1FBF5F0584301EB800006EBC00071
:1054B000B0FBF5F000F00700D6E700000010014057
:1054C0000014014038B581620446828500201346ED
:1054D0006064222284F84220E56B1B4AEA63E56B94
:1054E0001A4A2A64E56B1A4AEA64E26B10650A46B6
:1054F0002168E06B091DFDF7AFFC2068016840687A
:105500000090206948B120680C3050E8001F41F439
:10551000807140E80012002AF5D12068143050E86C
:10552000001F41F0010140E80012002AF5D1206877
:10553000143050E8001F41F0400140E80012002AFA
:10554000F5D1002038BD00009B5100082152000811
:105550005151000881628285C28500214164222167
:1055600080F84210016921B10168CA6842F4807272
:10557000CA6001684A6942F001024A610068C16874
:1055800041F02001C160002070472DE9F8439846A2
:1055900017460D460446089E24E0701C22D0FDF7F5
:1055A000A3FDA0EB0800B0421AD8CEB12068C168B4
:1055B000490717D5802D15D0402D13D00168C94358
:1055C00009070FD401680025406800902046FFF7C6
:1055D0005CFE0820606484F840500120BDE8F88338
:1055E0000320FBE72068006835EA000004D00020B3
:1055F000B842D2D00020F1E70120F9E710B5054804
:10560000FEF7DAFCBDE81040012203490148FEF72D
:1056100069BF000004050020AC00002010B5094857
:10562000FEF7CAFC012208490648FEF75BFF064860
:10563000064902780A7000210170BDE81040FDF7AC
:10564000EFB900004C0500206B0100207C01002018
:1056500008B50E48FEF7B0FC01220D490B48FEF7D5
:1056600041FF0A4800680168C943C9060DD4094AC8
:1056700000219160016841680091C16821F010012A
:10568000C160BDE80840FDF7E3B808BD94050020FF
:10569000B900002018000020FEE7000070B50A4C99
:1056A00000204FF48055606229460848FBF7FDF85A
:1056B000A4F6E870A169FBF7F8F8294604F12A007E
:1056C000BDE87040FBF7CFB850770020444700207A
:1056D0000248416A491C416270470000507700202F
:1056E0002DE9F0410D4D07460C46E86B8047A5F5C6
:1056F0008050416A01290FD18461A0F6E870090346
:105700000646FBF7D2F8224639463046FBF734F816
:10571000A86BBDE8F0410047BDE8F081508700204C
:105720000449002081F8200001F5805181F82E0005
:10573000704700005077002003B4019841000098A2
:1057400050EAC12018BF04204A0D18BF40F00100E4
:1057500040F2FF72B2EB515F08BF40F00200012837
:1057600008BF052002B070470907090E002804DBB6
:1057700000F1E02080F80014704700F00F0000F105
:10578000E02080F8141D704730B52DED048B81B0FA
:10579000B0EE408AF0EE608A6A4651EC180B00F0D9
:1057A00093FE00989FED329B7E300090002821DC14
:1057B00053EC192B51EC180B02F010FC1AD00021FD
:1057C00040F608004FF00000044651EC180B02F0C0
:1057D000BFF908EE100A40F6080004EA00014FF095
:1057E0000000B5EEC08AF1EE10FA04BF0220FBF70C
:1057F000F7F82DE00098FF2830DB002108464FF035
:10580000000000F4400553EC192B51EC180B02F08A
:10581000B5FD8CBF002401240220FBF7E1F89FEDC9
:10582000168A4DB1002C0CBF4FF400004FF48000DD
:10583000A84218BF9FED118A042108464FF00000CE
:10584000002C01BFB1EE480A01B0BDEC048B30BDA5
:10585000B0EE480A01B0BDEC048B30BD51EC180B22
:1058600002F076F901B000EE100ABDEC048B30BDF9
:1058700000000000000000000000807FFFFF7F7F2D
:1058800010B52F499FED2C1B2DED020B84B0059810
:1058900020F000408842D8BF9DED040B2DDD294942
:1058A000884209D1049840B94FF00100FBF798F8FD
:1058B00000F04AFD06B010BD05DB9DED040B00F0C5
:1058C00037FD06B010BD68469DED040B00F048F9A9
:1058D00010F0030004BF9DED021B9DED000B0CD0EA
:1058E00001280ED09DED021B9DED000B022817D064
:1058F000012000F085FC06B010BD00F04DFB06B0A5
:1059000010BD9DED021B9DED000B012000F078FC09
:1059100051EC100B02F010F906B041EC100B10BD69
:1059200000F03AFB51EC100B02F006F906B041EC26
:10593000100B10BD0000000000000000000000007F
:10594000FB21E93F0000F07F30B540F2FF742DED00
:10595000048BF0EE608A18EE901A85B0B0EE408AA3
:105960009FED2B9B05468DED008B34EA115147D0FE
:1059700053EC192B51EC180B02F030FB40D02A46A7
:1059800051EC180B02F0A4FF41EC180B18EE900A32
:105990008DED008B34EA10501CD053EC192B51ECD8
:1059A000180B02F01BFB2BD10220FBF719F800F0BB
:1059B000EBFC10EE901A18EE900A8DED020B8DEDB7
:1059C000008B61F31E0003909DED020B05B0BDEC52
:1059D000048B30BD0220FBF703F800F0C5FC10EE8D
:1059E000901A18EE900A8DED020B8DED008B61F38D
:1059F0001E0003909DED020B05B0BDEC048B30BD85
:105A000005B0B0EE480AF0EE680ABDEC048B30BD7C
:105A1000000000000000000010B52F499FED2C1B76
:105A20002DED020B84B0059820F000408842DCBFC9
:105A300000209DED040B32DD2849884209D10498ED
:105A400040B94FF00100FAF7CBFF00F07DFC06B043
:105A500010BD05DB9DED040B00F06AFC06B010BD27
:105A600068469DED040B00F07BF810F0030011D0A8
:105A7000012818D09DED021B9DED000B02281AD0C5
:105A800000F08AFA51EC100B02F056F806B041EC27
:105A9000100B10BD9DED021B9DED000B012000F0D1
:105AA000AFFB06B010BD9DED021B9DED000B00F09D
:105AB00073FA06B010BD012000F0A2FB51EC100BF0
:105AC00002F03AF806B041EC100B10BD00000000E7
:105AD0000000000000000000FB21E93F0000F07F13
