:020000040800F2
:10000000180D0020A10100089D2200089B20000877
:10001000892200082D080008CD28000800000000F3
:10002000000000000000000000000000EF220008B7
:100030002F08000800000000ED220008F12200084F
:10004000BB010008BB010008BB010008BB010008A0
:10005000BB010008BB010008BB010008BB01000890
:10006000BB010008BB010008BB010008BB01000880
:10007000BB010008BB010008BB010008BB01000870
:10008000BB010008BB010008BB010008BB01000860
:10009000BB010008BB010008BB010008BB01000850
:1000A000BB010008BB010008BB0100089923000840
:1000B000BB010008BB010008BB010008BB01000830
:1000C000BB010008BB010008BB010008BB01000820
:1000D000BB0100088D280008AD280008B9280008D9
:1000E000BB010008BB010008BB010008BB01000800
:1000F000BB010008BB010008BB010008BB010008F0
:10010000BB010008BB010008BB010008BB010008DF
:10011000BB010008BB010008BB010008BB010008CF
:10012000BB010008BB010008BB010008BB010008BF
:10013000BB010008BB010008BB010008BB010008AF
:10014000BB010008BB010008BB010008BB0100089F
:10015000BB010008BB010008BB010008BB0100088F
:10016000BB010008BB010008BB010008BB0100087F
:10017000BB010008BB010008BB0100080000000033
:10018000BB010008BB010008DFF810D000F0F2FA54
:100190000048004725350008AFF30080180D002007
:1001A0000648804706480047FEE7FEE7FEE7FEE711
:1001B000FEE7FEE7FEE7FEE7FEE7FEE7892300082D
:1001C000890100082DE9F05F0546002092469B4614
:1001D00088460646814640241BE02846414647465D
:1001E000224600F017FA53465A46C01A914110D3DE
:1001F00011461846224600F0FEF92D1A67EB010859
:100200004F4622460120002100F0F5F917EB0009C6
:100210004E41201EA4F10104DFDC484631462A4647
:100220004346BDE8F09F40EA01039B0703D009E085
:1002300008C9121F08C0042AFAD203E011F8013BD2
:1002400000F8013B521EF9D27047D2B201E000F82B
:10025000012B491EFBD270470022F6E710B513466A
:100260000A4604461946FFF7F0FF204610BD30B598
:1002700005462A460B4612F8010B13F8014B08B14C
:10028000A042F8D01CB1002802D06D1CF1E728462E
:1002900030BD421C10F8011B0029FBD1801A7047A9
:1002A00030B504460020034600E05B1C934203D2B5
:1002B000E05CCD5C401BF8D030BD2DE9FE4F8046A0
:1002C00081EA0300C00F0C46009021F0004123F0AA
:1002D0000045B8EB0200A94105D2404621469046B0
:1002E0001C460B46024623F00040104347D0270D22
:1002F000C7F30A00C3F30A510290401A0190402844
:100300006BDAC3F3130040F4801B0098924620B1CF
:100310000023D2EB030A63EB0B0B01985946C0F1A3
:100320004002504600F067F906460D4650465946D1
:10033000019A00F07FF910EB08006141002487EA80
:10034000115284EAE7731A4340D0009A62B3019ACB
:10035000012A4FEA075215DC001B61EB02014FF046
:10036000004202EA0752CDE90042001C41F580112B
:1003700032462B4600F07FF903B0BDE8F08F4046CF
:100380002146F9E7001B61EB0201001C41F58013D7
:1003900000185B412018A2F5001747EB030140EA63
:1003A000D570B6196D4111E06D084FEA360645EA81
:1003B000C0754FEA0752001B61EB0201001C41F5BA
:1003C000801149084FEA30000019514132462B464E
:1003D00003B0BDE8F04F00F03FB9009801224000A3
:1003E0000023D0EB020263EBE073009821464FEA52
:1003F000E074B8EB000061EB0401E9E783F000432F
:100400005BE781F0004158E72DE9FE4F81EA0304E4
:1004100004F0004421F0004100944FF0000B23F061
:10042000004350EA01045ED052EA03045BD0C3F3F8
:100430000A54C1F30A552C44A4F2F3340194A0FBEE
:100440000254C1F3130141F48011C3F3130343F4C5
:10045000801301FB024400FB034E840A970A44EA1E
:10046000815447EA8357A4FB076802958D0A05FB70
:1004700007854FEA932C04FB0C542705029D4FEA95
:10048000065847EA1637B5EB08056EEB070C870EE2
:10049000920E47EA811742EA8312A7FB0201B6EBEC
:1004A0000B0164EB00042B0D43EA0C335E1844EBA4
:1004B0001C50DA465146E7FB0201C5F313044FEA2C
:1004C0000B3343EA14534FEA0432019C43EA060318
:1004D000A4F10C040294009CCDE900B400F0CBF828
:1004E00003B0BDE8F08F00200146F9E72DE9F04D9B
:1004F00081EA030404F0004B21F0004514464FF05C
:10050000000A23F0004150EA050220D054EA01021B
:100510001DD0C5F30A570246C5F31303C1F31300F8
:10052000C1F30A5640F4801543F48013A7EB060884
:10053000101BD64608F2FD3873EB050002D308F114
:10054000010801E092185B41B8F1000F03DA0020C6
:100550000146BDE8F08D00204FF480110646844628
:100560000EE0171B73EB050705D3121B63EB0503A6
:1005700006434CEA010C49084FEA300092185B41EF
:1005800050EA0107EDD152EA030012D082EA0400DA
:1005900083EA0501084305D0101BAB4106D20122B6
:1005A000002306E000224FF0004302E06FF001025A
:1005B00053101AEB06004CEB085110EB0A0041EB0C
:1005C0000B01BDE8F04D00F047B830B50B460146D1
:1005D00000202022012409E021FA02F59D4205D3E2
:1005E00003FA02F5491B04FA02F52844151EA2F18C
:1005F0000102F1DC30BD202A04DB203A00FA02F1CE
:10060000002070479140C2F1200320FA03F3194300
:1006100090407047202A04DB203A21FA02F00021A2
:10062000704721FA02F3D040C2F120029140084302
:1006300019467047202A06DBCB17203A41FA02F010
:1006400043EAE07306E041FA02F3D040C2F120022F
:10065000914008431946704710B5141E73F1000409
:1006600008DA401C41F1000192185B411A4301D1A4
:1006700020F0010010BD2DE9F04D92469B4611B1CE
:10068000B1FA81F202E0B0FA80F220329046FFF730
:10069000B2FF04460F4640EA0A0041EA0B01534606
:1006A0005A46084313D0114653EA010019D0C8F145
:1006B00040025046FFF7AEFF05460E4650465946EB
:1006C0004246FFF798FF084305D0012004E020468A
:1006D0003946BDE8F08D0020054346EAE0762C431C
:1006E00037430A986305E40AA0EB08000022FD0ADC
:1006F00044EA47540A3002D500200146E9E70105E3
:1007000010196941DDE9084500196941BDE8F04D5E
:10071000A2E7C1F30A52C1F3130140F2FF3341F4DF
:1007200080119A4202DA00200146704740F23343BA
:100730009A42A2F2334202DC5242FFF76BBFFFF74C
:100740005ABF000030B5041E71F1000404DB4FF005
:100750000044404264EB0101141E73F1000405DB08
:100760001C464FF00043524263EB0403994208BF1A
:10077000904230BD064C074D06E0E06840F00103B2
:1007800094E8070098471034AC42F6D3FFF700FD19
:1007900088350008A83500087CB5224D2868016816
:1007A000C943090704D4016841680191016841689F
:1007B00000681D4CC043800624D44FF0FF33012253
:1007C0006946184801F072FBB4F8002440F2FF3388
:1007D000C2F30E014FF40030994202D29DF800207E
:1007E00007E0D10BC903A4F800149DF80020C1F361
:1007F0000E016254B4F8001400EBF1304FEA70407F
:10080000A4F8000428680168C943C90608D4B4F8EC
:10081000001441F40041A4F80014016840680190FC
:100820007CBD0000F000002010030020FEE77047B0
:1008300072B6FEE700B59FB09FED0B0B10A28DEDD9
:10084000040B9FED0B0B64218DED020B9FED0A0B4A
:1008500006A88DED000B02F03BF8014606A801F05A
:1008600015FD1FB000BD00000000000000000C409E
:10087000000000C0CCCC7240000000606686614081
:100880002125662C25662C25660000002DE9F04107
:100890000446876D00F066F9064694F83500002599
:1008A000022806D08020606584F834500120BDE81D
:1008B000F0812068016821F016010160206841691B
:1008C00021F080014161206C08B9A06C20B1206842
:1008D000016821F0080101602068016821F0010130
:1008E00001600CE000F03EF9801B052807D92020AC
:1008F0006065032084F8350084F83450D7E7206819
:100900000068C007EED194F85C103F208840B860C2
:10091000012084F8350084F834500020C7E790F8AF
:100920003510022903D0802141650120704705213F
:1009300080F835100068016821F001010160002095
:100940007047000070B5044600F00CF90546601CC5
:1009500002D004480078044400F004F9401BA0428F
:10096000FAD370BD040000202DE9F84FDFF8BCA1D8
:100970000022012503264FF00F090AF1040BAAF10A
:10098000040E00BF0B6805FA02F42340A34270D1A5
:100990000F7907F00307012F01D0022F16D18768C6
:1009A0004FEA420806FA08FC27EA0C07D1F80CC007
:1009B0000CFA08FC4CEA070CC0F808C04768A743CB
:1009C0000C79C4F3001494403C4344600C79E44334
:1009D000A4070AD0C4684FEA420C06FA0CF7BC43DD
:1009E0008F6807FA0CF72743C7600C7904F00304FB
:1009F000022C12D1D40800EB840CDCF820405707FD
:100A0000FF0E09FA07F824EA0804D1F8108008FA62
:100A100007F848EA0408CCF8208004684FEA420C42
:100A200006FA0CF7BC430F7907F0030707FA0CF737
:100A3000274307604C6814F4403F70D03C4C276853
:100A400047F480472760246822F0030704F48044B9
:100A50000094384C07EB040CDCF8084897074FEA81
:100A6000177809FA08F7BC43334FB84202D1002780
:100A700024E054E0314FB84201D101271EE0304F4D
:100A8000B84201D1022719E02E4FB84201D1032705
:100A900014E02D4FB84201D104270FE02B4FB8428C
:100AA00001D105270AE02A4FB84201D1062705E007
:100AB000284FB84201D1072700E0082707FA08F7B6
:100AC0002743CCF80878DAF800405746D1F804C03C
:100AD0009C435FEACC2C00D51C433C60DBF8004013
:100AE0005F46D1F804C09C435FEA8C2C00D51C43C0
:100AF0003C60DEF800407746D1F804C09C435FEAD2
:100B00008C3C00D51C433C60084F083F3C68D1F842
:100B100004C09C435FEACC3C00D51C433C60521CA3
:100B2000102AFFF42FAFBDE8F88F0000083C014009
:100B300044380240003001400000024000040240FE
:100B400000080240000C0240001002400014024065
:100B500000180240001C02400AB18161704709047C
:100B6000FBE7000001488068704700000400002097
:100B700002488168027811448160704704000020B7
:100B80000B4810B5016841F400710160016841F43F
:100B900080610160016841F480710160032000F010
:100BA0006FF80F2000F006F800F024F8002010BDC8
:100BB000003C024070B50D4D04464FF47A71287820
:100BC000B1FBF0F00A490968B1FBF0F000F00AFB54
:100BD00048B9102C07D200222146501E00F030F8F0
:100BE00000206C6070BD012070BD0000040000207A
:100BF000100000200A4808B5016841F480410160F6
:100C0000006800F4804000900548001F016841F032
:100C100080510160006800F08050009008BD000025
:100C200044380240002809DB00F01F0201219140F6
:100C30004009800000F1E020C0F80011704700007A
:100C4000F0B40E4B1B680C46C3F30223C3F1070537
:100C5000042D00D90425191D072901D2002300E025
:100C6000DB1E012606FA05F1491E214099409E40EF
:100C7000761E16403143F0BC01F06ABE0CED00E078
:100C8000064900F0070208684FF6FF03184040EAE3
:100C90000220034A10430860704700000CED00E09A
:100CA0000000FA052DE9F0470E46050065D0DFF893
:100CB0001481D8F80000F7B200F00700B04207D264
:100CC00088F80070D8F8000000F00700B04254D156
:100CD00028683D4C810712D5400703D5206840F4B1
:100CE000E05020602878000703D5206840F4604079
:100CF00020602068A96820F0F00008432060287870
:100D0000C0072DD0304968680839012812D0022860
:100D100013D0032811D00968890700292DDA21682A
:100D200021F0030101432160FFF71CFF814641F2DE
:100D3000883A0EE009688903EFE709688901ECE762
:100D4000FFF710FFA0EB0901514502D90320BDE8D0
:100D5000F0872068696800F00C00B0EB810FEFD1DC
:100D6000D8F80010404601F00701B14207D90770DA
:100D7000006800F00700B04201D00120E7E72878C2
:100D8000400705D52068E96820F4E050084320605A
:100D90002878000706D52068296920F4604040EAD9
:100DA000C100206000F038F82168084AC1F303113F
:100DB000515CC8400649086006480068FFF7FAFE23
:100DC0000020C4E7003C02400838024064350008B7
:100DD0001000002008000020044805490068096848
:100DE000044AC1F38221515CC840704710000020C2
:100DF000083802407435000804480549006809684D
:100E0000044AC1F34231515CC840704710000020D1
:100E10000838024074350008154810B5006810F015
:100E20000C02144813D04110042A0FD0082A0ED106
:100E30000F4C241F2268236802F03F025B0207D593
:100E40002068C0F38810A0FB010106E0084610BD31
:100E50002168C1F38811A1FB00010023FFF7B2F95B
:100E60002168C1F30141491C4900B0FBF1F010BDFC
:100E7000083802400024F4002DE9F84F04006ED039
:100E80002078DFF84C93C007A9F104054AD009F196
:100E900004000168C1F38101012908D00068C0F392
:100EA000810002280AD1D9F80000400206D528683E
:100EB000800337D560680028E1D033E06068B0F582
:100EC000803F10D0B0F5A02F286810D020F48030DB
:100ED0002860286820F4802028606068A8B1FFF7A7
:100EE00041FE06460DE0286840F48030F4E740F407
:100EF00080202860F7E700BFFFF734FE801B6428DE
:100F000073D828688003F7D50CE0FFF72BFE064660
:100F100005E000BFFFF726FE801B6428F0D8286894
:100F20008003F7D42078DFF8AC8280074FF0000A06
:100F30003ED5A748001D016811F00C0F08D00068CD
:100F4000C0F3810002280BD1D9F80000400207D479
:100F50002868800716D5E068012800D112E033E147
:100F6000E068B8B10120C8F80000FFF7FBFD0646B5
:100F700005E000BFFFF7F6FD801B0228C0D82868F7
:100F80008007F7D52868216920F0F80040EAC10001
:100F900028600DE0C8F800A0FFF7E4FD064604E075
:100FA000FFF7E0FD801B02281FD828688007F7D4D0
:100FB0002078000722D5864F87486169703771B164
:100FC00001210160FFF7CEFD064604E0FFF7CAFDF0
:100FD000801B022809D838688007F7D50EE0C0F8D2
:100FE00000A0FFF7BFFD064605E082E0FFF7BAFD6F
:100FF000801B02287DD838688007F7D42078400706
:1010000068D5DFF8CCB100270BF13C0BDBF8000012
:10101000C0000BD4DBF8001041F08051CBF8001079
:10102000DBF80000012700F0805000906B4E306824
:10103000C00510D4306840F480703060FFF792FD36
:10104000009005E0FFF78EFD0099401A022850D865
:101050003068C005F6D55E4EA0686C3601280FD00A
:101060000528306810D020F001003060306820F092
:1010700004003060A068B8B1FFF774FD00900FE085
:10108000306840F00100F4E740F004003060F7E71A
:10109000FFF768FD0099411A41F28830814266D815
:1010A00030688007F4D50EE0FFF75CFD009007E0A4
:1010B000FFF758FD0099411A41F28830814256D815
:1010C00030688007F4D42FB1DBF8001021F0805194
:1010D000CBF80010A069C8B33D49091D0968C1F3E8
:1010E000810102294AD00228504607D0C8F8600082
:1010F00000E03CE0FFF736FD04463BE04746C8F819
:101100006000FFF72FFD064605E000BFFFF72AFD50
:10111000801B02282BD828688001F7D4D4E9070166
:101120000843A16A2E4A490802EB0141626A41EA7A
:101130008211084394F82C1040EA0161C9F80010AC
:1011400001203866FFF70EFD044606E03EE000BFD2
:10115000FFF708FD001B022809D828688001F7D591
:1011600034E000BFFFF7FEFC001B022802D9032079
:10117000BDE8F88F28688001F4D427E00128F7D073
:10118000D9F80000E26900F4800191421CD1226A82
:1011900000F03F01914217D147F6C071626A0140E9
:1011A000B1EB821F10D1A26A4FF0FF3300F440313F
:1011B00003EB5202B1EB024F06D194F82C1000F071
:1011C0007060B0EB016F01D00120D1E70020CFE7C4
:1011D0000438024000004742800E47420070004041
:1011E0000000FFFF10B5401EB0F1807F01D3012049
:1011F00010BD4FF0E02460610F21601701F0A8FBE3
:101200000020A06107202061002010BD70477047BA
:1012100070B590F83C20012A32D0012480F83C407F
:10122000022280F83D2003685A689D6822F070060B
:101230000A6832435A60134B02689A4214D0B2F1E2
:10124000804F11D0104B9A420ED0104B9A420BD0C7
:101250000F4B9A4208D00F4B9A4205D00E4B9A4240
:1012600002D00E4B9A4204D1496825F080031943FD
:10127000916080F83D40002180F83C10084670BD28
:10128000022070BD00000140000400400008004042
:10129000000C0040000401400040014000180040E4
:1012A00010B5040003D094F83D0010B107E0012010
:1012B00010BD002084F83C00204600F01FF80220FA
:1012C00084F83D00211D206801F06CF8012084F8AD
:1012D000460084F83E0084F83F0084F8400084F81B
:1012E000410084F8420084F8430084F8440084F804
:1012F000450084F83D00002010BD000010B586B008
:10130000044614216846FEF7A7FF17492068884263
:1013100028D116480021026842F0010202600068EC
:1013200000F00100059011481438026842F01002E4
:101330000260006800F0100005904FF420600090FB
:101340000220CDE901010120CDE9031069460848DA
:10135000FFF70AFB002211461B20FFF771FC1B2040
:10136000FFF760FC06B010BD0000014044380240A9
:101370000010024070B5044690F83C00002501289A
:1013800017D0012684F83C60022084F83D002068D4
:10139000826822F0770222F47F4282600868502837
:1013A00038D00DDC20284FD005DC90B3102811D1A7
:1013B0004AE0022070BD302846D040280AD13BE0E8
:1013C00060282FD070280DD0B0F5805F03D0B0F525
:1013D000005F12D0012584F83D60002084F83C00B5
:1013E000284670BDCB68D1E90121206801F053F88F
:1013F0002068816841F0770109E0CB68D1E90121DB
:10140000206801F048F82068816841F480418160DB
:10141000E1E719E0CA684968206801F04EF85021F8
:10142000206806E0CA684968206801F097F86021E2
:10143000206801F03AF8CEE7CA684968206801F0F0
:101440003CF840212068F4E7226801461046F0E7A6
:101450002DE9F0413C4D06462DED048BA84245D1C7
:10146000307F00279FED398ADFED398A394C4FF004
:101470000208B6EE009A01281AD194F9100001284A
:1014800038D0022832D10021284600F08FFA00EE31
:10149000100A00212846F8EE400A80EE880A20EE65
:1014A000280A20EE090A84ED000A00F09BF927744F
:1014B000307F02281AD194F9110001282DD002287A
:1014C00014D10421204800F071FA00EE100A042122
:1014D0001D48B8EE400AC0EE080A20EEA80A20EE29
:1014E000090A84ED010A00F07DF96774BDEC048BF4
:1014F000BDE8F081286847622868016A21F00A0186
:1015000001622868016A41F00201016284F81080DA
:1015100000210D4800F0E0F8CAE728684762286813
:10152000016A21F0A00101622868016A41F02001EE
:10153000016284F811800421BDEC048BBDE8F04108
:10154000014800F0C9B800001800002000247449C8
:101550000000AA43FC0200202DE9F041054690F866
:101560003C0000260C46012810D0012085F83C00E4
:1015700072B1042A1CD0082A2CD00C2A50D0012683
:10158000002085F83C003046BDE8F0810220FBE7F2
:10159000D4E90012E368286800F0A0FF2868816998
:1015A00021F00C01816128688169A26811430FE074
:1015B000D4E90012E368286800F0E2FF2868816936
:1015C00021F44061816128688169A26841EA0221B1
:1015D0008161D5E72868D4E9002C277B036A016A7A
:1015E00021F480710162C16923F4206321F00301B9
:1015F00041EA0C0121F0F00C39074FF420674CEA66
:10160000116107EA02221A43C16102622868C169B6
:1016100021F00C01C1612868C169A26811432BE067
:101620002868D4E90021E768036AD0F820C02CF4C8
:10163000805CC0F820C0D0F81CC023F420432CF4F8
:10164000407C4CEA012121F4704C4FF6FF7101EA15
:1016500007314FF4204741EA0C0107EA02321A43EE
:10166000C16102622868C16921F44061C1612868D2
:10167000C169A26841EA0221C16181E710B5040095
:1016800003D094F83D0010B107E0012010BD002008
:1016900084F83C00204600F01EF8022084F83D004B
:1016A000211D206800F07EFE012084F8460084F8A9
:1016B0003E0084F83F0084F8400084F8410084F83C
:1016C000420084F8430084F8440084F8450084F81C
:1016D0003D00002010BD704730B50446002551B1D3
:1016E00004290DD0082910D094F8410094F8452021
:1016F000012811D10EE094F83E0094F84220F7E75B
:1017000094F83F0094F84320F2E794F8400094F8EE
:101710004420EDE7012A01D0012030BD022059B15B
:10172000042912D0082919D084F8410084F8450012
:101730000C2944D0012540E084F83E0084F84200A2
:101740002068C26842F0020210E084F83F0084F88A
:1017500043002068C26842F0040207E084F84000B9
:1017600084F844002068C26842F00802C260012286
:10177000206800F083FE14492068884214D0B0F13C
:10178000804F11D0114988420ED0114988420BD0A8
:101790001049884208D01049884205D00F49884234
:1017A00002D00F49884204D1816801F0070106295F
:1017B00003D0016841F001010160284630BD206876
:1017C000C26842F01002D1E700000140000400406E
:1017D00000080040000C00400004014000400140AF
:1017E0000018004070B50D0004464FF0000607D009
:1017F000042D0AD0082D0DD00C2D10D001262FE07D
:101800002068C16821F002010DE02068C16821F064
:10181000040108E02068C16821F0080103E02068A5
:10182000C16821F01001C16000222946206800F043
:1018300025FE2068016A41F21112114207D1016AA6
:101840009210114203D1016821F0010101600120D1
:1018500045B1042D09D0082D0AD004F8410F20719C
:10186000304670BD04F83E0FF9E704F83F0FF6E785
:1018700004F8400FF3E72DE9F04104460068C6681C
:1018800005694FF00007A90713D5B10711D5F91E57
:10189000016101202077206880698007204602D0FE
:1018A000FFF7D6FD04E000F07EF8204600F07CF85B
:1018B0002777680716D5700714D521686FF00400E4
:1018C0000861022020772068806910F4407F20465C
:1018D00002D0FFF7BDFD04E000F065F8204600F0FF
:1018E00063F82777280715D5300713D521686FF0DF
:1018F00008000861042020772068C069800720461E
:1019000002D0FFF7A5FD04E000F04DF8204600F0FE
:101910004BF82777E80616D5F00614D521686FF046
:1019200010000861082020772068C06910F4407F0B
:10193000204602D0FFF78CFD04E000F034F820468A
:1019400000F032F82777E80708D0F00706D02168C2
:101950006FF001000861204600F027F8280608D53E
:10196000300606D521686FF0800008612046FFF739
:101970004DFC680608D5700606D521686FF040005A
:101980000861204600F027F8A8060AD5B00608D559
:1019900021686FF0200008612046BDE8F041FFF7A4
:1019A00036BCBDE8F08170477047704702460020A2
:1019B00041B1042909D008290AD00C2901D11068A5
:1019C000006C70471068406B70471068806B704700
:1019D0001068C06B7047704718B5034690F8420016
:1019E000202801D0022018BD61B15AB1012018632E
:1019F00000205863184600F0F5FE0028F3D1196B5B
:101A0000012901D0012018BD19680A6849680091B0
:101A100019680C3151E8002F42F0100241E800240F
:101A2000002CF5D118BD000070B51549884225D1AC
:101A3000052214491448FEF733FC144C144D18B910
:101A40002078287000202070052212490E48FEF7E9
:101A500027FC40B932220C490F48FEF7E4FB2078FE
:101A600028700220207032210748FEF7F5FBBDE800
:101A70007040322204490248FFF7AEBF70BD00003B
:101A8000A8000020813500088C02002015000020ED
:101A9000000000207C350008BE02002070470000D6
:101AA000F8B5016804460868CA684B6910F00F0F62
:101AB0004FF0000559D003F0010602F49077374348
:101AC00065D0C10705D0D10503D5616C41F0010196
:101AD0006164410705D5D90703D0616C41F002016B
:101AE0006164810705D5D90703D0616C41F0040119
:101AF0006164010707D502F02001314303D0616C16
:101B000041F008016164616C00293AD0800604D577
:101B1000900602D5204600F07DFD20684069616C8A
:101B2000C0F38010090700D460B3204600F04BFDDD
:101B300020684069400621D52068143050E8001F15
:101B400021F0400140E80012002AF5D1E06BA8B175
:101B50006E490165E06BFEF7E2FE002811D0E06BF4
:101B6000016D01B0BDE8F040084783060FD593062C
:101B70000DD52046BDE8F84000F04CBD2046FFF7EB
:101B80008DFFF8BD2046FFF789FF6564F8BD266B21
:101B90002023012E7DD1C6067BD5D60679D50868CF
:101BA0004868009048694FF00206400641D5E16B55
:101BB000086840680004000CE8D0A28D8242E5D994
:101BC000E085C869B0F5807F2DD020680C3050E8E2
:101BD000001F21F4807140E80012002AF5D120682E
:101BE000143050E8001F21F0010140E80012002AE3
:101BF000F5D12068143050E8001F21F0400140E882
:101C00000012002AF5D184F84230256320680C3098
:101C100050E8001F21F0100140E80012002AF5D121
:101C2000E06BFEF733FE6663A08DE18D401A81B252
:101C30002AE0A08DE18D401A81B2E08D0028A5D068
:101C40000029A3D022680C3252E8000F20F49070D3
:101C500042E80007002FF5D12068143050E8002F2B
:101C600022F0010240E80027002FF5D184F842302D
:101C7000256320680C3050E8002F22F0100240E865
:101C80000023002BF5D166632046FFF7CDFEF8BD9B
:101C9000FFE705062BD5150629D594F84100212824
:101CA000F5D1A068B0F5805F01D12069B0B1206A9C
:101CB000411C2162216800784860E08C401E0004CD
:101CC000000CE084E3D12068C16821F08001C1608C
:101CD0002068C16841F04001C160D8E7206A0088EF
:101CE000C0F308004860206A801C2062E5E74006D7
:101CF000CDD55006CBD5CA68204622F04002CA6036
:101D000084F8413000F0C8F9C1E70000B7250008A9
:101D100070B5040004D094F84100002510B106E02D
:101D2000012070BD84F84050204600F023F82420A4
:101D300084F841002068C16821F40051C160204648
:101D400000F0CAFC2068016921F49041016120681B
:101D5000416921F02A0141612068C16841F40051C4
:101D6000C1606564202084F8410084F84200656306
:101D7000002070BDF0B587B0044614216846FEF718
:101D80006BFA434B276800224249022403250726A9
:101D900041489F4221D13F4B14331F6847F0100741
:101DA0001F601B6803F0100305930B6843F00103E9
:101DB0000B60096802AB01F0010105916902CDE9F0
:101DC000001483E864006946FEF7CEFD0022114648
:101DD0002520FEF735FF252024E02E4BDFF8BCC080
:101DE0001033674522D11F6847F400371F601B6816
:101DF00003F4003305930B6843F001030B6009689B
:101E000002AF01F0010105910C21CDE9001487E832
:101E100064006946FEF7A8FD002211462620FEF761
:101E20000FFF2620FEF7FEFE07B0F0BD1C488742DC
:101E3000FAD1186840F480201860186800F48020F7
:101E40000590086840F002000860086802AF00F0E2
:101E5000020005904FF44060CDE9000487E864007B
:101E600069461048FEF780FD002211462720FEF744
:101E7000E7FE2720FEF7D6FE0B480168CA6842F04D
:101E80002002CA600068C16841F01001C160CBE760
:101E90000010014030380240000002400044004081
:101EA0000048004000040240F00000202DE9F84FF7
:101EB000044690F842009A4616460D46202802D065
:101EC0000220BDE8F88FB5B1AEB1002060642221D8
:101ED00084F842102063FEF745FEA6858146E6851C
:101EE000A0684FF480582027404501D1206920B1D7
:101EF0002E46002529E00120E3E7002625E04B4699
:101F0000002220212046CDF800A000F086FC18B168
:101F100084F842700320D4E726B1A06840451AD067
:101F200038B108E020684068C0F3080025F8020BCB
:101F300008E0206978B12068406800F07F0000BFA9
:101F400006F8010BE08D401EE085E08D0028D6D11B
:101F500084F84270B5E720684068F1E790F84230B5
:101F6000202B01D00220704721B11AB10023036356
:101F700000F038BC0120704770B51A4988421BD167
:101F800019480026194C0178242900D16680184888
:101F900062888154521C95B265800278242A07D148
:101FA00002794D2A04D14079432801D10A2904D06D
:101FB000C82D01D3C820608070BD50210D48FEF7A8
:101FC0004BF92A460A490B48FEF72DF90949012029
:101FD00081F850006680BDE87040C8210448FEF7D3
:101FE0003BB9000060000020140000200000002029
:101FF00038010020000200202DE9F843044690F843
:102000004100984616460D46202802D00220BDE821
:10201000F88385B17EB100206064212084F84100FE
:10202000FEF7A0FDA6848146E684A0682027B0F5CF
:10203000805F02D003E00120E9E7206910B12E465D
:1020400000250EE000260CE08021204600F0E5FB94
:10205000A8B9C6B116F8010B21684860E08C401E93
:10206000E084E08C4B464FF00002CDF80080002861
:10207000EAD14FF04001204600F0CFFB40B184F898
:1020800041700320C3E735F8020BC0F30800E3E713
:1020900084F841700020BAE77047FEE770B586B05B
:1020A00014216846FEF7D8F81E480025016841F063
:1020B00004010160016801F004010591016841F02B
:1020C00080010160016801F080010591016841F023
:1020D00001010160016801F001010591016841F011
:1020E00010010160016801F010010591016841F0E3
:1020F0000201016000680C4E00F002004FF4A4548D
:102100000590002221463046FEF726FD0120CDE94C
:1021100000400220CDE9020569463046FEF724FC66
:1021200006B070BD303802400010024010B58AB0D1
:10213000002427480494059406940794089409946D
:10214000009401940294214903940160A621C0E9FE
:1021500001144FF6FF71C0E903148021C0E9054165
:10216000FFF79EF808B1FEF763FB4FF48050049030
:1021700004A91748FFF7FEF808B1FEF759FB144809
:10218000FFF77CFA08B1FEF753FB089408A9104842
:102190000994FFF73DF808B1FEF74AFB0120CDE9AD
:1021A000004002940022694609480394FFF7D4F9DD
:1021B00008B1FEF73DFB042269460548FFF7CCF95C
:1021C000002801D0FEF734FB0AB010BD000001402A
:1021D000180000200E4810B50C4901604FF416514C
:1021E0004160002181600C22C160C0E9041281615C
:1021F000C161FFF78DFD08B1FEF71AFBBDE8104085
:10220000012204490248FFF7A9BE00000010014066
:1022100060000020140000200C4810B50A4901603D
:102220004FF4E1314160002181600C22C160C0E9BE
:1022300004128161C161FFF76BFD002803D0BDE886
:102240001040FEF7F5BA10BD00440040A800002081
:102250000C4810B50A4901604FF4E131416000219A
:1022600081600C22C160C0E904128161C161FFF785
:102270004FFD002803D0BDE81040FEF7D9BA10BDCD
:1022800000480040F0000020FEE700008AB201464E
:1022900064230148FFF7B0BEF0000020FEE7000015
:1022A00010B5002001F074F800F0C8FF012001F023
:1022B00079F806A001F050F8012001F007F801F0CC
:1022C0002FF8BDE8104000F0F1BF00006874747092
:1022D0003A2F2F3130312E33322E33362E35323ADB
:1022E000363636362F706F737400000070477047B3
:1022F000FEF73EBC30B593B030216846FDF7ACFF29
:1023000014210CA8FDF7A8FF1D480025016841F025
:1023100080510160006800F08050119019480168F8
:1023200041F4804101600068022400F48040119073
:1023300001200090000401908001CDE9064008AA28
:102340000420A82182E813000B906846FEF794FD54
:1023500008B172B6FEE70CA90F2081E831004FF4F6
:10236000A0500F904FF48050109005210CA8FEF75C
:1023700099FC002801D072B6FEE713B030BD000012
:1023800040380240007000400248016841F470018A
:102390000160704788ED00E00148FFF76CBA00006B
:1023A00018000020F0B50268294C2A4D2A4E2B4F08
:1023B0002B4B4FF0804CA04209D0604507D0A8427B
:1023C00005D0B04203D0B84201D0984204D122F0E7
:1023D000700E4A6842EA0E02A0421BD0604519D036
:1023E000A84217D0B04215D0B84213D0984211D0AD
:1023F0001C4DA8420ED01C4DA8420BD01B4DA8422C
:1024000008D01B4DA84205D01A4DA84202D01A4D43
:10241000A84203D122F44075CA682A434D6922F0CC
:1024200080022A4302608A68C2620A688262A0420D
:1024300001D0984201D1096901630121416101691B
:10244000C90703D0016921F001010161F0BD00005D
:10245000000001400004004000080040000C004063
:102460000004014000400140004401400048014098
:1024700000180040001C00400020004010B501F092
:102480001F030121046A99408C430462016A9A4047
:102490001143016210BD10B5846842EA032224F49E
:1024A0007F440A432243826010BD826822F070029A
:1024B0000A4342F007018160704710B5036A046A5D
:1024C00024F001040462846924F0F00444EA021454
:1024D00023F00A020A438461026210BD70B5056AE6
:1024E000046A24F0010404628469154EB04214D0D9
:1024F000B0F1804F11D0134EB0420ED0124EB04208
:102500000BD0124EB04208D0114EB04205D0114E41
:10251000B04202D0104EB04203D124F00304144361
:1025200001E044F001041A0724F0F00444EA1262C6
:1025300025F00A0301F00A0119438261016270BDAE
:10254000000001400004004000080040000C004072
:1025500000040140004001400018004010B5036A2B
:10256000046A24F010040462846923F0A00324F4B4
:10257000704444EA023243EA01118261016210BDF3
:1025800030B5046A056A25F010050562856925F4F1
:10259000407545EA022222F470454FF6FF7202EAC6
:1025A000033224F0A0032A43A02404EA01111943B2
:1025B0008261016230BD10B5806B0021C185C1848C
:1025C000FFF76CFA10BD01680C3151E8002F22F4BE
:1025D000907241E80023002BF5D10168143151E8D5
:1025E000002F22F0010241E80023002BF5D1016BFE
:1025F000012909D101680C3151E8002F22F01002A5
:1026000041E80023002BF5D1202180F84210002161
:102610000163704708B590F84210222901D00220CA
:1026200008BD82684FF480539A4201D1016921B1FB
:10263000816A9A421BD04AB10AE00268816A5268F4
:10264000C2F308020A80816A891C08E0026972B13B
:102650000268526802F07F020A70816A491C816236
:10266000C18D491E0904090CC18503D01BE0026815
:102670005268F1E70168CA6822F02002CA60016866
:10268000CA6822F48072CA6001684A6922F00102B5
:102690004A61202180F8421000214163026B012A27
:1026A00003D0FFF769FC002008BD016301680C310D
:1026B00051E8002F22F0100241E80023002BF5D151
:1026C00001680A68D20602D50A6849680091818DBE
:1026D000FFF7AAF9E7E7000070B504460068016952
:1026E000E26821F44051114301612169A068E26967
:1026F00008436169114308432168CA6849F20C63C1
:102700009A430243CA6020684169A26921F440717A
:102710001143416131492068884202D030498842E2
:1027200002D1FEF769FB01E0FEF756FBE2690023E8
:10273000192164253226B2F5004F626828D0A0FB2B
:102740000101930F9200FDF73DFD0146B0FBF5F04E
:102750006FF01802504301EB800006EB0010B0FB55
:10276000F5F000F0F002B1FBF5F002EB0012B1FB66
:10277000F5F06FF01803584301EB800006EB0010F2
:10278000B0FBF5F000F00F0021681044886070BDC8
:10279000A0FB010192185B41FDF714FD0146B0FB5F
:1027A000F5F00201B1FBF5F06FF01803584301EBAF
:1027B000800006EBC000B0FBF5F000F0F80002EB83
:1027C0004002B1FBF5F0584301EB800006EBC0007E
:1027D000B0FBF5F000F00700D6E700000010014064
:1027E0000014014081628285C2850021416422215A
:1027F00080F84210016921B10168CA6842F4807210
:10280000CA6001684A6942F001024A610068C16811
:1028100041F02001C160002070472DE9F84398463F
:1028200017460D460446089E24E0701C22D0FEF791
:1028300099F9A0EB0800B0421AD8CEB12068C1685F
:10284000490717D5802D15D0402D13D00168C943F5
:1028500009070FD401680025406800902046FFF763
:10286000B2FE0820606484F840500120BDE8F8837F
:102870000320FBE72068006835EA000004D0002050
:10288000B842D2D00020F1E70120F9E710B50548A1
:10289000FFF706F9BDE81040012203490148FFF7A0
:1028A0005DBB000060000020140000200148FFF71D
:1028B000F7B80000A800002010B5FDF76DFFBDE8D7
:1028C00010400148FFF7ECB8F0000020FEE70000E0
:1028D0000FB47CB50C0009AD01D0611E00E00021F1
:1028E000CDE90001064B6A462946089800F012F926
:1028F000002C02D0009A002111707CBC5DF814FB02
:102900001B3200080FB4084B10B504A902AA0398A3
:1029100000F000F9044602A9002000F089FC2046DE
:1029200010BC5DF814FB00003132000837B51446C6
:102930000846064B6A46214600F0ECF80446694614
:10294000002000F075FC20463EBD0000313200083A
:102950000907090E002804DB00F1E02080F80014CC
:10296000704700F00F0000F1E02080F8141D704760
:1029700002E008C8121F08C1002AFAD17047704748
:10298000002001E001C1121F002AFBD170470000A6
:102990002DE9FF5F82B00021DDE90430020DDDF892
:1029A00040B0034318D044F61050A2F2FF32424325
:1029B0001514119801281FD0A5EB0B00401C5FEAED
:1029C000000A4FF000064E4FDFF83891B0465046EF
:1029D00015D5CAF1000413E0119801244AA3012877
:1029E00001D16FEA0B010298119AC0E90031C0E9E8
:1029F000024206B0BDE8F09FCBF10000DFE70446DD
:102A00000021404A491842EB0450CDE9001012E081
:102A1000E00707D032463B4640464946FDF7F4FC06
:102A20008046894632463B4610461946FDF7ECFC87
:102A300006460F466410002CEAD1DDE90401DDE909
:102A40000023BAF1000F06DAFDF7DEFC42464B46E2
:102A5000FDF7DAFC05E0FDF749FD42464B46FDF780
:102A600045FD04460E460022284BFDF76BFE03D8B9
:102A70004FF0FF30014607E00022254B204631464B
:102A8000FDF71BFCFDF745FE102409E0002C0ADBD6
:102A90000A220023FDF796FB039B30321A55641E71
:102AA00050EA0102F2D1641C039AC4F111031444E8
:102AB000119A012A03D0012208430DD10AE00843EC
:102AC00004D000204FF0110B119072E7A3EB0B051F
:102AD0006D1E0DE05B4504DD4FF0000205F10105C0
:102AE00004E003DA4FF00002A5F10105002AECD062
:102AF00002981199C0E90231C0E9004579E7000068
:102B0000000014400000F03F300000000000F043DF
:102B10000000E03F2DE9FF4F95B09A4688460646F3
:102B20000025EEE1252877D100242746F94A012126
:102B3000039400E0044316F8013F203B01FA03F040
:102B40001042F7D130782A2811D06FF02F03307857
:102B5000A0F13002092A16D8039A44F0020402EBCD
:102B6000820203EB42021044761C0390EFE758F810
:102B7000042B0392002A03DA504244F400540390D9
:102B800044F00204761C30782E2816D116F8010F76
:102B900044F004042A280DD06FF02F023078A0F101
:102BA0003003092B09D807EB870302EB4303C7184F
:102BB000761CF3E758F8047B761C30786C280FD02D
:102BC00006DC4C2817D068280DD06A2814D104E000
:102BD000742810D07A280FD10DE044F400140AE0D4
:102BE00044F4801401E044F440147278824202D12B
:102BF00004F58014761C761C307866280BD013DC24
:102C0000582877D009DC002875D04528F6D046280A
:102C1000F4D047281AD193E118E0632835D064280E
:102C200079D0652812D18BE1702873D008DC672831
:102C3000F1D069286FD06E280DD06F2806D1ACE096
:102C400073282CD0752874D0782853D05246179901
:102C500090476D1C54E1C4F30250022809D00328A8
:102C60000DD0D8F8001004280DD00D6008F104082C
:102C700046E1D8F80010EA17C1E90052F6E7D8F8A3
:102C800000100D80F2E70D70F0E718F8041B8DF8C6
:102C9000001000208DF80100EB46012003E058F8F9
:102CA00004BB4FF0FF3061074FF0000102D40DE08C
:102CB00009F101018946B9420FDA8145F8DB1BF8B9
:102CC00009100029F4D108E009F101018946814287
:102CD000FADB1BF809100029F6D103985346A0EB44
:102CE000090721463846179A00F080FA284400EB7D
:102CF000090507E044E008E10DE01BF8010B52462E
:102D000017999047B9F10109F7D253462146384641
:102D1000179AF2E039E00A21C4F302524FF0000B97
:102D20000091022A06D058F8040BC117032A09D0D3
:102D30000AE023E008F1070020F00702F2E80201B0
:102D4000904605E000B2C117042A01D140B2C11774
:102D5000002906DA0A460021404261EB02012D22D9
:102D600002E0220504D52B228DF80420012203E085
:102D7000E20701D02022F7E7914657E00A2100E060
:102D800010214FF0000B00910BE010214FF0000BD1
:102D900044F004040827009103E008204FF0000BE2
:102DA0000090C4F30252022A05D058F8040B002107
:102DB000032A08D008E008F1070020F00702F2E833
:102DC0000201904603E080B2042A00D1C0B24FF065
:102DD000000922072AD53278702A07D0DDF800C012
:102DE0008CF0100C5CEA0B0C05D00EE040228DF844
:102DF0000420012208E050EA010306D030238DF8B8
:102E000004308DF8052002229146009B83F00803D0
:102E100053EA0B030AD150EA010201D1620705D53A
:102E200030228DF804204FF001097F1E3278582A95
:102E300004D039A20C920CAA02920BE03BA2F9E753
:102E40005B46009AFDF7BEF90C9B9B5C029A521EF2
:102E50000292137050EA0102F2D1029804A9081AF2
:102E600000F1200B600702D524F4803400E0012734
:102E70005F4502DDA7EB0B0000E0002000EB0B013B
:102E8000009003984944401A0390E00306D4534647
:102E90002146179A039800F0A9F90544002706E097
:102EA00001A85246C05D179990476D1C7F1C4F4585
:102EB000F6DBE0030CD553462146179A039800F041
:102EC00095F9054404E030205246179990476D1C4F
:102ED0000099481E00900029F5DC08E0029802994C
:102EE00052460078491C0291179990476D1CBBF11E
:102EF0000001ABF1010BF1DC5BE100F065F9054489
:102F0000761C307800287FF40DAE19B02846BDE855
:102F1000F08F000009280100303132333435363764
:102F20003839616263646566000000003031323315
:102F300034353637383941424344454600000000B5
:102F4000600700D4062708F1070020F00700F0E82A
:102F50000223804603F0004C5FEA0C0001D097A0EA
:102F600009E0200501D596A005E0E00701D095A075
:102F700001E0AFF24C001390307823F00043652855
:102F80000CD006DC452809D046281DD047287FD123
:102F90003BE0662818D067287AD136E00021112F4F
:102FA00001DB112000E0781CCDE9000104A90CA888
:102FB000FFF7EEFCDDE90D010C9A4FF0000B07F175
:102FC0000109109200914EE04FF000400097CDE9CA
:102FD000011004A90CA8FFF7DBFCDDE90D020C9B36
:102FE0000F994FF0000B91461093009211B9791C84
:102FF00000EB0109B7EB090003D4C0F1FF3B07F177
:103000000109A9EB0700019042E0012F00DA012736
:103010000021112F01DD112000E03846CDE900012B
:1030200004A90CA8FFF7B4FCDDE90D010C9A00918E
:103030004FF0000BB946109221070FD4009A4A4571
:1030400003DA914601E0A9F10109B9F1010F05DDAB
:10305000109AA9F10101515C3029F4D0B84202DA8A
:1030600010F1040F03DA0121CDE9011010E000286E
:1030700003DC8344A9EB000102E0411C494500DD6B
:103080008946A0EB0B00401C01904FF000400290DD
:10309000200705D40198484502DB4FF0FF3001902E
:1030A00000208DF84B0002980DF14B07B0F1004F56
:1030B00025D002200C902B200D90029800280CDACD
:1030C000404202902D200D9007E00A210298FDF762
:1030D0007CFA3031029007F8011D0C99481E0C90C3
:1030E0000029F2DC02980028EFD1791E0D980870B3
:1030F000307800F0200040F0450007F8020D11A8DC
:10310000C01BC01D02901398007800B1012000EB95
:103110000901019801EBE071029801440398401AFB
:10312000401E0390E00306D453462146179A0398A5
:1031300000F05CF805441398007818B152461799CE
:1031400090476D1CE00323D553462146179A0398F8
:1031500000F04CF805441BE0BBF1000F07DB0098C2
:10316000584504DD1098179910F80B0001E01799E5
:1031700030205246904701980BF1010B401E05F19B
:103180000105019004D12E205246179990476D1CDD
:10319000B9F10001A9F10109DEDC05E017F8010B26
:1031A0005246179990476D1C0299481E02900029BB
:1031B000F4DC53462146179A03989EE62D00000042
:1031C0002B000000200000002DE9F04104460025FE
:1031D0001E461746880404D405E039462020B0472F
:1031E0006D1C641EF9D52846BDE8F0812DE9F0413B
:1031F000044600251E469046C80301D5302700E04E
:103200002027880404D505E041463846B0476D1CA8
:10321000641EF9D52846BDE8F0814A68002A06D028
:103220000A68531C0B6010704868401E4860704765
:103230000A68531C0B6010707047000070B50024C2
:103240004FF47A752A4606A106A000F013F900286B
:1032500004D0641CE4B20A2CF4D3012070BD000039
:103260004F4B00004154000010B500F051F90CA084
:1032700000F026F94FF47A7422460AA1002000F0EB
:10328000F9F858B900F044F906A000F019F92246FF
:1032900005A1002000F0EEF8002800D0012010BDAC
:1032A0002B2B2B0061746B004F4B000010B54FF4BB
:1032B0007A7204A104A000F0DDF8002800D00120FB
:1032C00010BD00004F4B000041544F0000B58DB0C1
:1032D00020B1012804D003200DB000BD08A200E0F9
:1032E00008A20AA16846FFF70DFB4FF47A720BA102
:1032F000684600F0BFF80028EED00120ECE700009F
:1033000047455400504F53540000000041542B488F
:103310005454504D443D2225732200004F4B000071
:1033200000B58DB007A16846FFF7ECFA4FF47A724A
:1033300008A1684600F09EF8002800D001200DB0DA
:1033400000BD000041542B48545450544D3D22318F
:10335000302200004F4B000000B5B3B0024607A179
:103360006846FFF7CFFA4FF47A7208A1684600F07A
:1033700081F8002800D0012033B000BD41542B4813
:1033800054545055524C3D22257322004F4B00009F
:1033900010B5FFF769FFFFF751FF002800D00120AB
:1033A00010BD000000B589B0072820D2DFE800F08A
:1033B00004061517191B1D000EA100E011A1684697
:1033C000FFF7A0FA4FF47A7212A1684600F052F8A3
:1033D000002800D0012009B000BD0FA1EFE712A125
:1033E000EDE716A1EBE71AA1E9E71EA1E7E7032045
:1033F000F1E7000041542B574F524B3D224E4554AC
:103400002200000041542B574F524B3D2248545448
:10341000502200004F4B000041542B574F524B3D60
:10342000224D51545422000041542B574F524B3DD2
:1034300022414C4959554E220000000041542B575F
:103440004F524B3D224F4E454E4554220000000046
:1034500041542B574F524B3D2242414944555955F7
:103460004E22000041542B574F524B3D22524E44A6
:103470004953220070B514460E46050005D000F0F1
:1034800047F829460CA000F01BF846B13CB100BF3C
:1034900000F02EF838B13146FCF7E9FE08B1002003
:1034A00070BD00F035F80120641EFDF74BFA002CCA
:1034B000EED1022070BD000025730D0A000000004F
:1034C0000FB4094810B503AA0299FFF72FFA06486E
:1034D000FCF7DFFE82B24FF0FF3303490348FEF7EB
:1034E0008BFD10BC5DF814FB12070020F0000020DB
:1034F0000649B1F80004020405D5C0F30E0000220D
:103500000A5408467047002070470000100300204E
:103510000348B0F800146FF30F01A0F800147047CF
:1035200010030020FDF72CFBFEF7E4FEFEF7B6FDCE
:10353000FEF750FEFEF770FEFEF7F8FDFEF788FE80
:103540004FF47A70FDF7FEF9FEF7AAFE40F6C410BC
:10355000FDF7F8F9FDF76EF940F2DC542046FDF76F
:10356000F1F9FBE700000000000000000102030485
:103570000607080900000000010203040000FF0C18
:10358000F40000FF00FF0000A83500080000002044
:103590001800000070290008C0350008180000203D
:1035A000000D00008029000801000000010000005B
:1035B00010000000000000000024F40000000000E3
:040000050800018965
:00000001FF
