:020000040800F2
:10000000E8060020A10100080B290008632700086A
:10001000092900086D100008AD2F0008000000003D
:10002000000000000000000000000000E1290008BE
:100030006F100008000000000D290008E3290008E7
:10004000BB010008BB010008BB010008BB010008A0
:10005000BB010008BB010008BB010008BB01000890
:10006000BB010008BB010008BB010008BB01000880
:10007000BB010008BB010008BB010008BB01000870
:10008000BB010008BB010008BB010008BB01000860
:10009000BB010008BB010008BB010008BB01000850
:1000A000BB010008BB010008BB0100088D2A000845
:1000B000BB010008BB010008BB010008BB01000830
:1000C000BB010008BB010008BB010008BB01000820
:1000D000BB010008812F0008A12F0008BB01000808
:1000E000BB010008BB010008BB010008BB01000800
:1000F000BB010008BB010008BB010008BB010008F0
:10010000BB010008BB010008BB010008BB010008DF
:10011000BB010008BB010008BB010008BB010008CF
:10012000BB010008BB010008BB010008BB010008BF
:10013000BB010008BB010008BB010008BB010008AF
:10014000BB010008BB010008BB010008BB0100089F
:10015000BB010008BB010008BB010008BB0100088F
:10016000BB010008BB010008BB010008BB0100087F
:10017000BB010008BB010008BB0100080000000033
:10018000BB010008BB010008DFF810D000F07EFDC5
:1001900000480047A93B0008AFF30080E8060020B4
:1001A0000648804706480047FEE7FEE7FEE7FEE711
:1001B000FEE7FEE7FEE7FEE7FEE7FEE77D2A000832
:1001C000890100082DE9F05F0546002092469B4614
:1001D00088460646814640241BE02846414647465D
:1001E000224600F00AFC53465A46C01A914110D3E9
:1001F00011461846224600F0F1FB2D1A67EB010864
:100200004F4622460120002100F0E8FB17EB0009D1
:100210004E41201EA4F10104DFDC484631462A4647
:100220004346BDE8F09F002800DA4042704740EAAC
:1002300001039B0703D009E008C9121F08C0042A64
:10024000FAD203E011F8013B00F8013B521EF9D24B
:100250007047D2B201E000F8012B491EFBD2704773
:100260000022F6E710B513460A4604461946FFF782
:10027000F0FF204610BD30B505462A460B4612F861
:10028000010B13F8014B08B1A042F8D01CB10028B3
:1002900002D06D1CF1E7284630BD30B50446002081
:1002A000034600E05B1C934203D2E05CCD5C401B44
:1002B000F8D030BD0FB400B58DB010A909900B90E7
:1002C00000914FF0FF300A9000200C9005480690F6
:1002D000054807906A4609A80F9900F0B7FB0DB0D2
:1002E0005DF814FB690A0008870A00082DE9FF4F32
:1002F000087883B09946FF2805D0491C2D2804D0E2
:100300000024002008E000200BE00124F9E700EBC6
:10031000800003EB4000491C0B78FF2BF7D104B1A0
:10032000404200230293147819461D462D2C01D01B
:100330002B2C04D1521C2D2C13D000240294AA463D
:100340001478FF2C0FD00A25A3FB057801FB05814B
:100350004FF0000C03FB0C11521CE3194AEB010196
:10036000EEE70124EAE7814453EA010002D019F5DF
:10037000C87F06DA03980021C0E9001107B0BDE884
:10038000F08F0025AE4E2F46DFF8B882184600F0F9
:1003900070FCCDE90001B9F1000002DAC9F10004F6
:1003A00000E004460023A74A1AEB030B42EB045A71
:1003B00012E0E00707D02A4633463846414600F0AF
:1003C000ECF9074688462A4633461046194600F09F
:1003D000E4F905460E466410002CEAD1DDE900017F
:1003E000B9F1000F5A46534606DA00F048FA3A4689
:1003F000434600F044FA05E000F0CFF93A464346A0
:1004000000F0CBF9029A0AB181F00041039AC2E9E7
:100410000001B3E72DE9FF4F1F468DB0D7E9014634
:100420004FF0FF382E2045464FF000090B90B96978
:100430006D1C0E988847396A824688470028F6D195
:10044000BAF1FF3F0AD024F4D064002E11DDBAF1D6
:100450002B0F08D0BAF12D0F0BD102E0404611B09E
:100460008DE744F48064B9696D1C0E988847824614
:10047000761E6946600501D52D2000E02B208DF801
:10048000000001F1010B0DF1200809E0B9696D1CB4
:100490000E98884782460F9844F40074761E0560D3
:1004A000002E02DDBAF1300FF0D00B998A453ED113
:1004B00044F0800406E00F99681CA9F1010944F496
:1004C00000740860B9696D1C761E0E9888478246D4
:1004D0003028F0D02BE00B998A4505D1200603D4B3
:1004E00044F08004761E18E0504603F0BBFA08B3CF
:1004F0000DF11301761E44F400748B4508D2AAF165
:1005000030000BF8010B200607D5A9F1010003E02C
:10051000200602D409F101008146A00502D50F99F9
:10052000681C0860B9696D1C0E9888478246002EC9
:10053000D1DC53E0002E51DDBAF1650F02D0BAF1E3
:10054000450F4BD1A00549D5B9696D1C24F4407401
:10055000761E0E9888478246002E0CDD2B2804D08C
:10056000BAF12D0F07D144F48074B9696D1C0E984F
:1005700088478246761EE00501D52D2100E02B211B
:1005800008F8011BCDF82C8021E00DF12901761E21
:1005900044F4007488450CD2AAF1300010F0FF003A
:1005A00088F8000002D10B99884509D908F10108A3
:1005B00006E0E00501D5244801E042F20F708146D3
:1005C000B9696D1C0E98884782460F980560002E09
:1005D00004DD504603F046FA0028D6D1F9690E989A
:1005E0008847FF208BF8000088F800000020069064
:1005F00007904B466A4608A906A8FFF777FEA005B4
:1006000002D46FF001002AE714F0240F0AD0E007AB
:1006100014D1DDE906123868031D3B600068C0E9AB
:1006200000120BE0DDE9060100F0BCF90146E0072D
:1006300004D13868021D3A600068016028460EE760
:10064000000014400000F03FF1D8FFFF2DE9FE4FFD
:10065000804681EA0300C00F0C46009021F0004163
:1006600023F00045B8EB0200A94105D240462146DF
:1006700090461C460B46024623F00040104347D0EC
:10068000270DC7F30A00C3F30A510290401A0190E4
:1006900040286BDAC3F3130040F4801B00989246A5
:1006A00020B10023D2EB030A63EB0B0B01985946F0
:1006B000C0F14002504600F091F906460D46504602
:1006C0005946019A00F0A9F910EB08006141002495
:1006D00087EA115284EAE7731A4340D0009A62B362
:1006E000019A012A4FEA075215DC001B61EB020157
:1006F0004FF0004202EA0752CDE90042001C41F5EA
:10070000801132462B4600F015FA03B0BDE8F08F99
:1007100040462146F9E7001B61EB0201001C41F550
:10072000801300185B412018A2F5001747EB030166
:1007300040EAD570B6196D4111E06D084FEA3606F2
:1007400045EAC0754FEA0752001B61EB0201001C2D
:1007500041F5801149084FEA3000001951413246F5
:100760002B4603B0BDE8F04F00F0D5B90098012248
:1007700040000023D0EB020263EBE07300982146B7
:100780004FEAE074B8EB000061EB0401E9E783F0A5
:1007900000435BE781F0004158E72DE9FE4F81EA15
:1007A000030404F0004421F0004100944FF0000BDA
:1007B00023F0004350EA01045ED052EA03045BD008
:1007C000C3F30A54C1F30A552C44A4F2F334019440
:1007D000A0FB0254C1F3130141F48011C3F31303CE
:1007E00043F4801301FB024400FB034E840A970A82
:1007F00044EA815447EA8357A4FB076802958D0AAF
:1008000005FB07854FEA932C04FB0C542705029D3A
:100810004FEA065847EA1637B5EB08056EEB070CAA
:10082000870E920E47EA811742EA8312A7FB020164
:10083000B6EB0B0164EB00042B0D43EA0C335E189E
:1008400044EB1C50DA465146E7FB0201C5F31304A2
:100850004FEA0B3343EA14534FEA0432019C43EA54
:100860000603A4F10C040294009CCDE900B400F04E
:1008700061F903B0BDE8F08F00200146F9E72DE9EA
:10088000F04D81EA030404F0004B21F000451446CA
:100890004FF0000A23F0004150EA050220D054EA4C
:1008A00001021DD0C5F30A570246C5F31303C1F375
:1008B0001300C1F30A5640F4801543F48013A7EBEC
:1008C0000608101BD64608F2FD3873EB050002D36C
:1008D00008F1010801E092185B41B8F1000F03DA5A
:1008E00000200146BDE8F08D00204FF4801106463F
:1008F00084460EE0171B73EB050705D3121B63EB51
:10090000050306434CEA010C49084FEA30009218EF
:100910005B4150EA0107EDD152EA030012D082EAAE
:10092000040083EA0501084305D0101BAB4106D241
:100930000122002306E000224FF0004302E06FF0A6
:10094000010253101AEB06004CEB085110EB0A00A1
:1009500041EB0B01BDE8F04D00F0DDB80EB5C10F65
:1009600080EAE0700844CA07002140F233438DE872
:100970000E000A460B4600F0DDF803B000BD00F0A3
:10098000004230F000400AD0C10D01F56071C0F3A3
:10099000160042EA0151C208400711437047002087
:1009A0000146704701F0004330B421F0004150EAA5
:1009B000010206D00A0DA2F56072C1F31301002AEC
:1009C00002DC30BC00207047440F44EAC104C1007F
:1009D000E01830BC00EBC25000F066B8202A04DBFF
:1009E000203A00FA02F1002070479140C2F1200342
:1009F00020FA03F3194390407047202A04DB203A81
:100A000021FA02F00021704721FA02F3D040C2F12E
:100A100020029140084319467047202A06DBCB1775
:100A2000203A41FA02F043EAE07306E041FA02F3A9
:100A3000D040C2F12002914008431946704700009F
:100A4000026811441378016018467047D160044968
:100A500051610449116200211161114600F02EB963
:100A6000410A0008B10C0008426842B1016811F85F
:100A7000013B23B1521EC0E9001218467047012104
:100A8000C160881E704742685AB1C368016843B9A3
:100A900083688B4205D0491E521CC0E90012002019
:100AA00070474FF0FF3070470029A8BF7047401CC7
:100AB000490008BF20F00100704710B4B0FA80FC74
:100AC00000FA0CF050EA010404BF10BC704749B1B1
:100AD000CCF1200421FA04F411FA0CF118BF012121
:100AE00021430843A3EB0C01CB1D4FEA00614FEA01
:100AF000102042BF002010BC704700EBC3501044D0
:100B00000029A4BF10BC7047401C490008BF20F05A
:100B1000010010BC704710B5141E73F1000408DA10
:100B2000401C41F1000192185B411A4301D120F0B1
:100B3000010010BD2DE9F04D92469B4611B1B1FA6E
:100B400081F202E0B0FA80F220329046FFF746FFD1
:100B500004460F4640EA0A0041EA0B0153465A4652
:100B6000084313D0114653EA010019D0C8F14002DE
:100B70005046FFF742FF05460E465046594642464C
:100B8000FFF72CFF084305D0012004E0204639463A
:100B9000BDE8F08D0020054346EAE0762C4337435C
:100BA0000A986305E40AA0EB08000022FD0A44EA63
:100BB00047540A3002D500200146E9E70105101923
:100BC0006941DDE9084500196941BDE8F04DA2E73A
:100BD0002DE9F04D00231A461B1A8A4103DB002041
:100BE0000146BDE8F08DC1F30A52C1F3130141F48F
:100BF00080154FF0000BD10702D100186D41521E35
:100C00000027044640F2FF11384601EB620A3E46D7
:100C10008046024600204FF48011FFF7EEFEC21915
:100C20007141BB1846EB0100B4EB030C75EB000CF3
:100C300004D3E41A65EB000517460E46241908F1A3
:100C400001006D4180463428E3DDF91946EB0600CA
:100C5000091BA84103D24FF0FF32134601E00022E6
:100C600013461BEB070046EB0A51BDE8F04DFFF7BA
:100C700052BF0EB540F2334202920022CDE900226B
:100C80001346FFF757FF03B000BD0000064C074DA9
:100C900006E0E06840F0010394E80700984710344C
:100CA000AC42F6D3FFF774FA30470008504700080B
:100CB000C0B24FF4F05100F0C5B900002DE9F34F78
:100CC0008BB04FF0000801F10C000C464FF0010B07
:100CD00046460DF1080A019062690121019890478A
:100CE000051E2DD0252D2CD0216A8847C0B1626900
:100CF000012101989047216A88470028F7D1411EB9
:100D000062690198904700E0761CA1690B988847BA
:100D1000216A88470028F7D1E1690B988847DBE70B
:100D2000A1690B9888470746A84201D1761CD3E7F2
:100D3000E1690B9888477F1C02D1B8F1000F6FD092
:100D400047E1002762693D463946019890472A28C5
:100D500004D162690121019890470125DFF888924A
:100D60006269012101989047A0F130010A290AD255
:100D70004F45E5DC07EB870100EB4107303FDFD44F
:100D800045F01005ECE7E90601D46FF000476C2848
:100D90000AD04C2814D0682815D06A280DD07428A1
:100DA0001CD07A281AD01DE0626901210198904771
:100DB0006C2802D045F0040514E045F002050DE072
:100DC00045F020050AE062690121019890476828F2
:100DD00002D045F0080505E045F40065626901218F
:100DE00001989047C4E9015765283DD019DC58287F
:100DF0007AD00CDC452837D004DC252826D04128C1
:100E000031D131E046282FD047282CD12CE05B2867
:100E100077D0612828D063287CD0642823D15AE079
:100E2000D1E06F2848D008DC66281DD067281BD089
:100E3000692821D06E2816D127E0702845D0732864
:100E400068D0752847D078280DD14DE0A1690B985E
:100E50008847054625283FF469AFE1690B98884724
:100E60006D1C3FF46AAFB4E023466A466FF00100A0
:100E70000B99FFF7CFFA9FE045F040006060A807AC
:100E800023464FF0000236D43EE0E8077FF447AF38
:100E90002068011D21600068290501D506701BE747
:100EA000290701D5068017E7A90703D5F117C0E97F
:100EB000006111E706600FE745F040006060A80799
:100EC00023464FF0080216D41EE040F60E0125EA34
:100ED0000100606016E045F040006060A80723460E
:100EE0004FF00A0207D40FE045F040006060A80709
:100EF00008D5234610226FF001000B99AFF3008054
:100F00005AE007E0234610226FF001000B99AFF37F
:100F1000008051E04FF000094F464B46632802D055
:100F20005B2807D041E02079C00601D40120A060F1
:100F300001273AE062690121019890475E2805D1B6
:100F40004FF001096269494601989047216939B912
:100F500000210A46534643F82120491C0829FADBA0
:100F6000B0B3216969B9C11700EBD16253110AEB23
:100F7000830122F01F02821A01200B689040034374
:100F80000B6062690121019890475D28E8D1B9F1B1
:100F9000000F09D00020514651F82020D24341F8DB
:100FA0002020401C0828F7DB02AB224600976FF098
:100FB00001000B99AFF3008000280CDA401C08D127
:100FC000BBF1000F05D04FF0FF300DB0BDE8F08F42
:100FD000FFE74046F9E7E90701D108F101080644B7
:100FE0004FF0000B78E60000CCCCCC0C0EB540F2F4
:100FF000334102910021CDE900110A460B46FFF76B
:1010000099FD03B000BD70B5C1F30A5201F000456F
:101010000024C1F3130140F2FF3341F480119A42DE
:1010200001DA002070BD40F233439A42A2F233420B
:1010300003DC5242FFF7E1FC00E090402C43F1D08A
:10104000404270BD7F2801D9002208E0064A02EB29
:101050005002C007127800D1120902F00F020120DD
:101060009040084070470000F0460008FEE77047D7
:1010700072B6FEE72DE9F0410446876D00F066F98F
:10108000064694F835000025022806D080206065C9
:1010900084F834500120BDE8F0812068016821F017
:1010A000160101602068416921F080014161206CD6
:1010B00008B9A06C20B12068016821F00801016026
:1010C0002068016821F0010101600CE000F03EF9A8
:1010D000801B052807D920206065032084F835008F
:1010E00084F83450D7E720680068C007EED194F840
:1010F0005C103F208840B860012084F8350084F8F7
:1011000034500020C7E790F83510022903D0802121
:10111000416501207047052180F83510006801689D
:1011200021F00101016000207047000070B5044605
:1011300000F00CF90546601C02D004480078044415
:1011400000F004F9401BA042FAD370BD0400002057
:101150002DE9F84FDFF8BCA10022012503264FF04E
:101160000F090AF1040BAAF1040E00BF0B6805FA7F
:1011700002F42340A34270D10F7907F00307012F37
:1011800001D0022F16D187684FEA420806FA08FC00
:1011900027EA0C07D1F80CC00CFA08FC4CEA070C43
:1011A000C0F808C04768A7430C79C4F30014944002
:1011B0003C4344600C79E443A4070AD0C4684FEA76
:1011C000420C06FA0CF7BC438F6807FA0CF727436A
:1011D000C7600C7904F00304022C12D1D40800EB90
:1011E000840CDCF820405707FF0E09FA07F824EAC0
:1011F0000804D1F8108008FA07F848EA0408CCF887
:10120000208004684FEA420C06FA0CF7BC430F79C1
:1012100007F0030707FA0CF7274307604C6814F43C
:10122000403F70D03C4C276847F4804727602468D3
:1012300022F0030704F480440094384C07EB040CBC
:10124000DCF8084897074FEA177809FA08F7BC4313
:10125000334FB84202D1002724E054E0314FB84266
:1012600001D101271EE0304FB84201D1022719E019
:101270002E4FB84201D1032714E02D4FB84201D1BF
:1012800004270FE02B4FB84201D105270AE02A4F6F
:10129000B84201D1062705E0284FB84201D10727FF
:1012A00000E0082707FA08F72743CCF80878DAF8AF
:1012B00000405746D1F804C09C435FEACC2C00D5CF
:1012C0001C433C60DBF800405F46D1F804C09C43FF
:1012D0005FEA8C2C00D51C433C60DEF8004077466A
:1012E000D1F804C09C435FEA8C3C00D51C433C60B1
:1012F000084F083F3C68D1F804C09C435FEACC3CEF
:1013000000D51C433C60521C102AFFF42FAFBDE8EF
:10131000F88F0000083C0140443802400030014092
:10132000000002400004024000080240000C02409D
:10133000001002400014024000180240001C02404D
:101340000AB1816170470904FBE700000148806829
:1013500070470000040000200248816802781144B0
:1013600081607047040000200B4810B5016841F40B
:1013700000710160016841F480610160016841F41D
:1013800080710160032000F06FF80F2000F006F874
:1013900000F024F8002010BD003C024070B50D4D57
:1013A00004464FF47A712878B1FBF0F00A490968D5
:1013B000B1FBF0F000F00AFB48B9102C07D2002274
:1013C0002146501E00F030F800206C6070BD0120F6
:1013D00070BD000004000020100000200A4808B57D
:1013E000016841F480410160006800F48040009091
:1013F0000548001F016841F080510160006800F05D
:101400008050009008BD000044380240002809DBED
:1014100000F01F02012191404009800000F1E0200E
:10142000C0F8001170470000F0B40E4B1B680C466A
:10143000C3F30223C3F10705042D00D90425191DA8
:10144000072901D2002300E0DB1E012606FA05F180
:10145000491E214099409E40761E16403143F0BC03
:1014600001F0BDBD0CED00E0064900F00702086880
:101470004FF6FF03184040EA0220034A1043086079
:10148000704700000CED00E00000FA052DE9F04780
:101490000E46050065D0DFF81481D8F80000F7B2D9
:1014A00000F00700B04207D288F80070D8F80000BA
:1014B00000F00700B04254D128683D4C810712D596
:1014C000400703D5206840F4E050206028780007EA
:1014D00003D5206840F4604020602068A96820F0AF
:1014E000F000084320602878C0072DD03049686894
:1014F0000839012812D0022813D0032811D0096816
:10150000890700292DDA216821F0030101432160B8
:10151000FFF71CFF814641F2883A0EE00968890313
:10152000EFE709688901ECE7FFF710FFA0EB09017D
:10153000514502D90320BDE8F0872068696800F0B2
:101540000C00B0EB810FEFD1D8F80010404601F04D
:101550000701B14207D90770006800F00700B042E8
:1015600001D00120E7E72878400705D52068E96821
:1015700020F4E050084320602878000706D5206852
:10158000296920F4604040EAC100206000F038F88A
:101590002168084AC1F30311515CC840064908603C
:1015A00006480068FFF7FAFE0020C4E7003C02404E
:1015B000083802408845000810000020080000207C
:1015C0000448054900680968044AC1F38221515C56
:1015D000C8407047100000200838024098450008B5
:1015E0000448054900680968044AC1F34231515C66
:1015F000C840704710000020083802409845000895
:10160000154810B5006810F00C02144813D04110B2
:10161000042A0FD0082A0ED10F4C241F22682368F9
:1016200002F03F025B0207D52068C0F38810A0FBE0
:10163000010106E0084610BD2168C1F38811A1FB35
:1016400000010023FEF7BEFD2168C1F30141491CE2
:101650004900B0FBF1F010BD083802400024F4004E
:101660002DE9F84F04006ED02078DFF84C93C007C6
:10167000A9F104054AD009F104000168C1F3810110
:10168000012908D00068C0F3810002280AD1D9F8E6
:101690000000400206D52868800337D5606800281E
:1016A000E1D033E06068B0F5803F10D0B0F5A02FF6
:1016B000286810D020F480302860286820F480202A
:1016C00028606068A8B1FFF741FE06460DE0286873
:1016D00040F48030F4E740F480202860F7E700BF52
:1016E000FFF734FE801B642873D828688003F7D581
:1016F0000CE0FFF72BFE064605E000BFFFF726FED5
:10170000801B6428F0D828688003F7D42078DFF89D
:10171000AC8280074FF0000A3ED5A748001D016843
:1017200011F00C0F08D00068C0F3810002280BD123
:10173000D9F80000400207D42868800716D5E06871
:10174000012800D112E033E1E068B8B10120C8F807
:101750000000FFF7FBFD064605E000BFFFF7F6FDC2
:10176000801B0228C0D828688007F7D5286821691F
:1017700020F0F80040EAC10028600DE0C8F800A0A1
:10178000FFF7E4FD064604E0FFF7E0FD801B0228BA
:101790001FD828688007F7D42078000722D5864F05
:1017A00087486169703771B101210160FFF7CEFD93
:1017B000064604E0FFF7CAFD801B022809D83868F6
:1017C0008007F7D50EE0C0F800A0FFF7BFFD064682
:1017D00005E082E0FFF7BAFD801B02287DD838685B
:1017E0008007F7D42078400768D5DFF8CCB1002710
:1017F0000BF13C0BDBF80000C0000BD4DBF8001051
:1018000041F08051CBF80010DBF80000012700F018
:10181000805000906B4E3068C00510D4306840F4A2
:1018200080703060FFF792FD009005E0FFF78EFDBD
:101830000099401A022850D83068C005F6D55E4E8F
:10184000A0686C3601280FD00528306810D020F031
:1018500001003060306820F004003060A068B8B14A
:10186000FFF774FD00900FE0306840F00100F4E7EE
:1018700040F004003060F7E7FFF768FD0099411A77
:1018800041F28830814266D830688007F4D50EE096
:10189000FFF75CFD009007E0FFF758FD0099411A43
:1018A00041F28830814256D830688007F4D42FB195
:1018B000DBF8001021F08051CBF80010A069C8B30C
:1018C0003D49091D0968C1F3810102294AD0022856
:1018D000504607D0C8F8600000E03CE0FFF736FD56
:1018E00004463BE04746C8F86000FFF72FFD064678
:1018F00005E000BFFFF72AFD801B02282BD82868CF
:101900008001F7D4D4E907010843A16A2E4A4908A7
:1019100002EB0141626A41EA8211084394F82C10FB
:1019200040EA0161C9F8001001203866FFF70EFD9A
:10193000044606E03EE000BFFFF708FD001B02285A
:1019400009D828688001F7D534E000BFFFF7FEFC16
:10195000001B022802D90320BDE8F88F2868800107
:10196000F4D427E00128F7D0D9F80000E26900F4A8
:10197000800191421CD1226A00F03F01914217D1AF
:1019800047F6C071626A0140B1EB821F10D1A26AB2
:101990004FF0FF3300F4403103EB5202B1EB024F42
:1019A00006D194F82C1000F07060B0EB016F01D0FC
:1019B0000120D1E70020CFE7043802400000474271
:1019C000800E4742007000400000FFFF10B5401E2F
:1019D000B0F1807F01D3012010BD4FF0E0246061A1
:1019E0000F21601701F0FBFA0020A06107202061A1
:1019F000002010BD7047704770B590F83C20012A58
:101A000032D0012480F83C40022280F83D20036857
:101A10005A689D6822F070060A6832435A60134B78
:101A200002689A4214D0B2F1804F11D0104B9A4202
:101A30000ED0104B9A420BD00F4B9A4208D00F4B4E
:101A40009A4205D00E4B9A4202D00E4B9A4204D1D4
:101A5000496825F080031943916080F83D400021DA
:101A600080F83C10084670BD022070BD00000140A7
:101A70000004004000080040000C00400004014049
:101A8000004001400018004010B5040003D094F855
:101A90003D0010B107E0012010BD002084F83C009B
:101AA000204600F01FF8022084F83D00211D206828
:101AB00000F0F2FF012084F8460084F83E0084F82C
:101AC0003F0084F8400084F8410084F8420084F824
:101AD000430084F8440084F8450084F83D00002069
:101AE00010BD000010B586B0044614216846FEF70C
:101AF000B7FB17492068884228D1164800210268A0
:101B000042F001020260006800F0010005901148F7
:101B10001438026842F010020260006800F0100001
:101B200005904FF4206000900220CDE901010120D2
:101B3000CDE9031069460848FFF70AFB0022114669
:101B40001B20FFF771FC1B20FFF760FC06B010BDE7
:101B500000000140443802400010024070B50446C5
:101B600090F83C000025012817D0012684F83C603D
:101B7000022084F83D002068826822F0770222F477
:101B80007F4282600868502838D00DDC20284FD072
:101B900005DC90B3102811D14AE0022070BD302836
:101BA00046D040280AD13BE060282FD070280DD0C5
:101BB000B0F5805F03D0B0F5005F12D0012584F846
:101BC0003D60002084F83C00284670BDCB68D1E918
:101BD0000121206800F0D9FF2068816841F0770179
:101BE00009E0CB68D1E90121206800F0CEFF206830
:101BF000816841F480418160E1E719E0CA68496881
:101C0000206800F0D4FF5021206806E0CA684968C7
:101C1000206801F01DF86021206800F0C0FFCEE7C9
:101C2000CA684968206800F0C2FF40212068F4E7D4
:101C3000226801461046F0E72DE9F0413C4D06468A
:101C40002DED048BA84245D1307F00279FED398AC6
:101C5000DFED398A394C4FF00208B6EE009A0128C0
:101C60001AD194F91000012838D0022832D100216D
:101C7000284600F08FFA00EE100A00212846F8EE00
:101C8000400A80EE880A20EE280A20EE090A84ED38
:101C9000000A00F09BF92774307F02281AD194F9CA
:101CA000110001282DD0022814D10421204800F071
:101CB00071FA00EE100A04211D48B8EE400AC0EE89
:101CC000080A20EEA80A20EE090A84ED010A00F0B5
:101CD0007DF96774BDEC048BBDE8F081286847622C
:101CE0002868016A21F00A0101622868016A41F04E
:101CF0000201016284F8108000210D4800F0E0F834
:101D0000CAE7286847622868016A21F0A0010162D9
:101D10002868016A41F02001016284F811800421E1
:101D2000BDEC048BBDE8F041014800F0C9B80000EB
:101D300034000020002474490000AA43D00200208F
:101D40002DE9F041054690F83C0000260C4601289C
:101D500010D0012085F83C0072B1042A1CD0082A5A
:101D60002CD00C2A50D00126002085F83C003046AB
:101D7000BDE8F0810220FBE7D4E90012E36828689F
:101D800000F026FF2868816921F00C018161286834
:101D90008169A26811430FE0D4E90012E368286862
:101DA00000F068FF2868816921F44061816128683A
:101DB0008169A26841EA02218161D5E72868D4E9F6
:101DC000002C277B036A016A21F480710162C169DA
:101DD00023F4206321F0030141EA0C0121F0F00C0F
:101DE00039074FF420674CEA116107EA02221A43CF
:101DF000C16102622868C16921F00C01C1612868D3
:101E0000C169A26811432BE02868D4E90021E76882
:101E1000036AD0F820C02CF4805CC0F820C0D0F851
:101E20001CC023F420432CF4407C4CEA012121F413
:101E3000704C4FF6FF7101EA07314FF4204741EA39
:101E40000C0107EA02321A43C16102622868C169C3
:101E500021F44061C1612868C169A26841EA022198
:101E6000C16181E710B5040003D094F83D0010B1C2
:101E700007E0012010BD002084F83C00204600F05F
:101E80001EF8022084F83D00211D206800F004FEA9
:101E9000012084F8460084F83E0084F83F0084F86E
:101EA000400084F8410084F8420084F8430084F83C
:101EB000440084F8450084F83D00002010BD7047C0
:101EC00030B50446002551B104290DD0082910D0A1
:101ED00094F8410094F84520012811D10EE094F8BF
:101EE0003E0094F84220F7E794F83F0094F843202E
:101EF000F2E794F8400094F84420EDE7012A01D07D
:101F0000012030BD022059B1042912D0082919D06E
:101F100084F8410084F845000C2944D0012540E0B4
:101F200084F83E0084F842002068C26842F0020251
:101F300010E084F83F0084F843002068C26842F053
:101F4000040207E084F8400084F844002068C26876
:101F500042F00802C2600122206800F009FE144924
:101F60002068884214D0B0F1804F11D011498842C6
:101F70000ED0114988420BD01049884208D0104930
:101F8000884205D00F49884202D00F49884204D1C7
:101F9000816801F00701062903D0016841F00101C1
:101FA0000160284630BD2068C26842F01002D1E7C7
:101FB000000001400004004000080040000C004008
:101FC00000040140004001400018004070B50D00C1
:101FD00004464FF0000607D0042D0AD0082D0DD07E
:101FE0000C2D10D001262FE02068C16821F00201DD
:101FF0000DE02068C16821F0040108E02068C16894
:1020000021F0080103E02068C16821F01001C160DF
:1020100000222946206800F0ABFD2068016A41F2E9
:102020001112114207D1016A9210114203D10168C5
:1020300021F001010160012045B1042D09D0082DD6
:102040000AD004F8410F2071304670BD04F83E0FED
:10205000F9E704F83F0FF6E704F8400FF3E72DE93E
:10206000F04104460068C66805694FF00007A907FB
:1020700013D5B10711D5F91E016101202077206821
:1020800080698007204602D0FFF7D6FD04E000F00B
:102090007EF8204600F07CF82777680716D5700791
:1020A00014D521686FF004000861022020772068B1
:1020B000806910F4407F204602D0FFF7BDFD04E0A8
:1020C00000F065F8204600F063F82777280715D55B
:1020D000300713D521686FF00800086104202077CD
:1020E0002068C0698007204602D0FFF7A5FD04E004
:1020F00000F04DF8204600F04BF82777E80616D59B
:10210000F00614D521686FF01000086108202077D0
:102110002068C06910F4407F204602D0FFF78CFD94
:1021200004E000F034F8204600F032F82777E807A2
:1021300008D0F00706D021686FF001000861204642
:1021400000F027F8280608D5300606D521686FF07C
:10215000800008612046FFF74DFC680608D5700630
:1021600006D521686FF040000861204600F027F88E
:10217000A8060AD5B00608D521686FF020000861CE
:102180002046BDE8F041FFF736BCBDE8F08170475E
:10219000704770470246002041B1042909D0082940
:1021A0000AD00C2901D11068006C70471068406B90
:1021B00070471068806B70471068C06B704770473D
:1021C00018B5034690F84200202801D0022018BD1F
:1021D00061B15AB10120186300205863184600F01D
:1021E0007BFE0028F3D1196B012901D0012018BD15
:1021F00019680A684968009119680C3151E8002F84
:1022000042F0100241E80024002CF5D118BD000076
:1022100070B51549884225D1052214491448FEF7A6
:102220003CF8144C144D18B9207828700020207008
:10223000052212490E48FEF730F840B932220C4907
:102240000F48FDF7F4FF207828700220207032211B
:102250000748FEF705F8BDE87040322204490248FD
:10226000FFF7AEBF70BD0000C4000020C8450008E5
:10227000600200202000002000000020A04500088F
:102280009202002070470000F8B501680446086813
:10229000CA684B6910F00F0F4FF0000559D003F0DA
:1022A000010602F49077374365D0C10705D0D10508
:1022B00003D5616C41F001016164410705D5D9077F
:1022C00003D0616C41F002016164810705D5D90733
:1022D00003D0616C41F004016164010707D502F08D
:1022E0002001314303D0616C41F008016164616CED
:1022F00000293AD0800604D5900602D5204600F089
:1023000003FD20684069616CC0F38010090700D4A8
:1023100060B3204600F0D1FC20684069400621D51A
:102320002068143050E8001F21F0400140E80012FE
:10233000002AF5D1E06BA8B16E490165E06BFEF7AC
:10234000E2FE002811D0E06B016D01B0BDE8F04065
:10235000084783060FD593060DD52046BDE8F84003
:1023600000F0D2BC2046FFF78DFFF8BD2046FFF7F6
:1023700089FF6564F8BD266B2023012E7DD1C6063A
:102380007BD5D60679D508684868009048694FF033
:102390000206400641D5E16B086840680004000C65
:1023A000E8D0A28D8242E5D9E085C869B0F5807F8A
:1023B0002DD020680C3050E8001F21F4807140E8D7
:1023C0000012002AF5D12068143050E8001F21F0D7
:1023D000010140E80012002AF5D12068143050E8CD
:1023E000001F21F0400140E80012002AF5D184F8D6
:1023F0004230256320680C3050E8001F21F01001A6
:1024000040E80012002AF5D1E06BFEF733FE666368
:10241000A08DE18D401A81B22AE0A08DE18D401A95
:1024200081B2E08D0028A5D00029A3D022680C320B
:1024300052E8000F20F4907042E80007002FF5D119
:102440002068143050E8002F22F0010240E80027F5
:10245000002FF5D184F84230256320680C3050E815
:10246000002F22F0100240E80023002BF5D1666314
:102470002046FFF7CDFEF8BDFFE705062BD5150674
:1024800029D594F841002128F5D1A068B0F5805FE6
:1024900001D12069B0B1206A411C21622168007815
:1024A0004860E08C401E0004000CE084E3D120680A
:1024B000C16821F08001C1602068C16841F040011D
:1024C000C160D8E7206A0088C0F308004860206A2D
:1024D000801C2062E5E74006CDD55006CBD5CA6802
:1024E000204622F04002CA6084F8413000F038F9FA
:1024F000C1E70000AB2C000870B5040004D094F8CC
:102500004100002510B106E0012070BD84F8405064
:10251000204600F023F8242084F841002068C16898
:1025200021F40051C160204600F050FC2068016990
:1025300021F4904101612068416921F02A01416143
:102540002068C16841F40051C1606564202084F8AE
:10255000410084F842006563002070BDF0B587B08B
:10256000044614216846FDF77BFE2A4F23680022AB
:1025700029490224032507262848BB4221D1264B9E
:1025800014331F6847F010071F601B6803F0100327
:1025900005930B6843F001030B60096802AB01F07F
:1025A000010105916902CDE9001483E864006946E0
:1025B000FEF7CEFD002211462520FEF735FF25202F
:1025C00023E0174FBB4222D1134B10331F6847F44F
:1025D00000371F601B6803F4003305930B6843F05A
:1025E00001030B60096802AB01F0010105910C21A8
:1025F000CDE9001483E864006946FEF7A9FD0022D6
:1026000011462620FEF710FF2620FEF7FFFE07B03A
:10261000F0BD0000001001403038024000000240D0
:102620000044004090F84230202B01D00220704737
:1026300021B11AB10023036300F04EBC01207047A2
:1026400070B51A4988421BD119480026194C0178E7
:10265000242900D16680184862888154521C95B2A2
:1026600065800278242A07D102794D2A04D1407965
:10267000432801D10A2904D0C82D01D3C820608085
:1026800070BD50210D48FDF7EBFD2A460A490B4865
:10269000FDF7CDFD0949012081F850006680BDE8B5
:1026A0007040C8210448FDF7DBBD00007C0000201D
:1026B00014000020000000200C010020D4010020A4
:1026C0002DE9F843044690F84100984616460D4619
:1026D000202802D00220BDE8F88385B17EB1002019
:1026E0006064212084F84100FEF730FEA684814614
:1026F000E684A0682027B0F5805F02D003E00120C7
:10270000E9E7206910B12E4600250EE000260CE016
:102710008021204600F0FBFBA8B9C6B116F8010BDA
:1027200021684860E08C401EE084E08C4B464FF00E
:102730000002CDF800800028EAD14FF04001204689
:1027400000F0E5FB40B184F841700320C3E735F8A1
:10275000020BC0F30800E3E784F841700020BAE7F9
:102760007047FEE770B586B014216846FDF778FD26
:102770001A480025016841F004010160016801F078
:1027800004010591016841F080010160016801F0D8
:1027900080010591016841F001010160016801F0CB
:1027A00001010591016841F01001016000680C4EC3
:1027B00000F010004FF4A45405900022214630464A
:1027C000FEF7BEFD0120CDE900400220CDE9020563
:1027D00069463046FEF7BCFC06B070BD303802409A
:1027E0000010024010B58AB00024274804940594D4
:1027F0000694079408940994009401940294214942
:1028000003940160A621C0E901144FF6FF71C0E9ED
:1028100003148021C0E90541FFF736F908B1FEF73E
:1028200027FC4FF48050049004A91748FFF796F94D
:1028300008B1FEF71DFC1448FFF714FB08B1FEF7C2
:1028400017FC089408A910480994FFF7D5F808B1B7
:10285000FEF70EFC0120CDE90040029400226946FB
:1028600009480394FFF76CFA08B1FEF701FC042253
:1028700069460548FFF764FA002801D0FEF7F8FB27
:102880000AB010BD00000140340000200E4810B511
:102890000C4901604FF416514160002181600C2207
:1028A000C160C0E904128161C161FFF725FE08B172
:1028B000FEF7DEFBBDE81040012204490248FFF7A5
:1028C000B1BE0000001001407C0000201400002078
:1028D0000C4810B50A4901604FF4E1314160002114
:1028E00081600C22C160C0E904128161C161FFF7FF
:1028F00003FE002803D0BDE81040FEF7B9BB10BDB1
:1029000000440040C4000020FEE7FEE770470000DE
:102910002DE9F047274D284C284E287C01274FF4FD
:10292000347800BB4FF48069012249463046FEF7F7
:1029300007FD00BF00BF0220414600BF401C884287
:10294000FBDB002249463046FEF7FAFC2068016AAC
:1029500021F00A0101622068016A01620021164823
:10296000FFF7AEFA2F74687C002820D14FF480590D
:10297000012249463046FEF7E3FC00BF00BF0220BB
:10298000414600BF401C8842FBDB002249463046DE
:10299000FEF7D6FC2068016A21F0A00101622068E0
:1029A000016A016204210448FFF78AFA6F74BDE8E6
:1029B000F0870000D0020020340000200010024008
:1029C00006489FED050A002180ED000A80ED010A0E
:1029D000017441747047000000000000D002002024
:1029E0007047FEF7B9BC000030B593B0302168469F
:1029F000FDF736FC14210CA8FDF732FC1D4800251C
:102A0000016841F080510160006800F08050119031
:102A10001948016841F4804101600068022400F413
:102A20008040119001200090000401908001CDE9C8
:102A3000064008AA0420A82182E813000B906846EB
:102A4000FEF70EFE08B172B6FEE70CA90F2081E872
:102A500031004FF4A0500F904FF48050109005219A
:102A60000CA8FEF713FD002801D072B6FEE713B0E4
:102A700030BD00004038024000700040024801684C
:102A800041F470010160704788ED00E00148FFF7F4
:102A9000E6BA000034000020F0B50268294C2A4D47
:102AA0002A4E2B4F2B4B4FF0804CA04209D0604553
:102AB00007D0A84205D0B04203D0B84201D0984216
:102AC00004D122F0700E4A6842EA0E02A0421BD0E6
:102AD000604519D0A84217D0B04215D0B84213D0E3
:102AE000984211D01C4DA8420ED01C4DA8420BD0CC
:102AF0001B4DA84208D01B4DA84205D01A4DA84234
:102B000002D01A4DA84203D122F44075CA682A4364
:102B10004D6922F080022A4302608A68C2620A6814
:102B20008262A04201D0984201D10969016301216A
:102B300041610169C90703D0016921F00101016107
:102B4000F0BD00000000014000040040000800400B
:102B5000000C0040000401400040014000440140DE
:102B60000048014000180040001C004000200040C8
:102B700010B501F01F030121046A99408C430462DF
:102B8000016A9A401143016210BD10B5846842EA9F
:102B9000032224F47F440A432243826010BD8268EA
:102BA00022F070020A4342F007018160704710B5BD
:102BB000036A046A24F001040462846924F0F004C6
:102BC00044EA021423F00A020A438461026210BD3F
:102BD00070B5056A046A24F0010404628469154E24
:102BE000B04214D0B0F1804F11D0134EB0420ED08D
:102BF000124EB0420BD0124EB04208D0114EB0422D
:102C000005D0114EB04202D0104EB04203D124F094
:102C10000304144301E044F001041A0724F0F00413
:102C200044EA126225F00A0301F00A0119438261A5
:102C3000016270BD00000140000400400008004037
:102C4000000C00400004014000400140001800401A
:102C500010B5036A046A24F010040462846923F046
:102C6000A00324F4704444EA023243EA0111826171
:102C7000016210BD30B5046A056A25F010050562D1
:102C8000856925F4407545EA022222F470454FF625
:102C9000FF7202EA033224F0A0032A43A02404EACC
:102CA000011119438261016230BD10B5806B0021B2
:102CB000C185C184FFF7E6FA10BD01680C3151E807
:102CC000002F22F4907241E80023002BF5D1016817
:102CD000143151E8002F22F0010241E80023002BBB
:102CE000F5D1016B012909D101680C3151E8002FA0
:102CF00022F0100241E80023002BF5D1202180F8BA
:102D0000421000210163704708B590F84210222953
:102D100001D0022008BD82684FF480539A4201D14D
:102D2000016921B1816A9A421BD04AB10AE0026866
:102D3000816A5268C2F308020A80816A891C08E02D
:102D4000026972B10268526802F07F020A70816AF9
:102D5000491C8162C18D491E0904090CC18503D03B
:102D60001BE002685268F1E70168CA6822F020029D
:102D7000CA600168CA6822F48072CA6001684A6940
:102D800022F001024A61202180F8421000214163B3
:102D9000026B012A03D0FFF753FC002008BD01633A
:102DA00001680C3151E8002F22F0100241E80023A5
:102DB000002BF5D101680A68D20602D50A68496875
:102DC0000091818DFFF724FAE7E7000070B5044613
:102DD00000680169E26821F44051114301612169F1
:102DE000A068E26908436169114308432168CA6821
:102DF00049F20C639A430243CA6020684169A269A0
:102E000021F440711143416131492068884202D068
:102E10003049884202D1FEF7E3FB01E0FEF7D0FB28
:102E2000E2690023192164253226B2F5004F626859
:102E300028D0A0FB0101930F9200FDF7C3F90146D2
:102E4000B0FBF5F06FF01802504301EB800006EB89
:102E50000010B0FBF5F000F0F002B1FBF5F002EB72
:102E60000012B1FBF5F06FF01803584301EB80003E
:102E700006EB0010B0FBF5F000F00F0021681044E5
:102E8000886070BDA0FB010192185B41FDF79AF9C3
:102E90000146B0FBF5F00201B1FBF5F06FF018034D
:102EA000584301EB800006EBC000B0FBF5F000F0EA
:102EB000F80002EB4002B1FBF5F0584301EB800053
:102EC00006EBC000B0FBF5F000F00700D6E700000D
:102ED000001001400014014081628285C2850021FA
:102EE0004164222180F84210016921B10168CA6859
:102EF00042F48072CA6001684A6942F001024A6184
:102F00000068C16841F02001C160002070472DE9D0
:102F1000F843984617460D460446089E24E0701C68
:102F200022D0FEF713FAA0EB0800B0421AD8CEB1B7
:102F30002068C168490717D5802D15D0402D13D0C2
:102F40000168C94309070FD4016800254068009053
:102F50002046FFF7B2FE0820606484F8405001204C
:102F6000BDE8F8830320FBE72068006835EA00002D
:102F700004D00020B842D2D00020F1E70120F9E7C8
:102F800010B50548FFF780F9BDE81040012203495C
:102F90000148FFF747BB00007C0000201400002020
:102FA0000148FFF771B90000C4000020FEE703B438
:102FB00001984100009850EAC12018BF04204A0D32
:102FC00018BF40F0010040F2FF72B2EB515F08BF42
:102FD00040F00200012808BF052002B07047090731
:102FE000090E002804DB00F1E02080F8001470478F
:102FF00000F00F0000F1E02080F8141D7047000081
:1030000010B52F499FED2C1B2DED020B84B00598B8
:1030100020F000408842D8BF9DED040B2DDD2949EA
:10302000884209D1049840B94FF0010000F014FD26
:1030300000F0E2FC06B010BD05DB9DED040B00F0D6
:10304000CFFC06B010BD68469DED040B00F0E0F823
:1030500010F0030004BF9DED021B9DED000B0CD092
:1030600001280ED09DED021B9DED000B022817D00C
:10307000012000F01DFC06B010BD00F0E5FA06B01E
:1030800010BD9DED021B9DED000B012000F010FC1A
:1030900051EC100B81F0004106B041EC100B10BD5B
:1030A00000F0D2FA51EC100B81F0004106B041EC77
:1030B000100B10BD00000000000000000000000028
:1030C000FB21E93F0000F07F10B52F499FED2C1B3D
:1030D0002DED020B84B0059820F000408842DCBF43
:1030E00000209DED040B32DD2849884209D1049867
:1030F00040B94FF0010000F0AFFC00F07DFC06B0DD
:1031000010BD05DB9DED040B00F06AFC06B010BDA0
:1031100068469DED040B00F07BF810F0030011D021
:10312000012818D09DED021B9DED000B02281AD03E
:1031300000F08AFA51EC100B81F0004106B041EC2E
:10314000100B10BD9DED021B9DED000B012000F04A
:10315000AFFB06B010BD9DED021B9DED000B00F016
:1031600073FA06B010BD012000F0A2FB51EC100B69
:1031700081F0004106B041EC100B10BD00000000D2
:103180000000000000000000FB21E93F0000F07F8C
:1031900000B52DED048BB0EE409AF0EE609A83B04E
:1031A00051EC190BFDF714FD41EC180B18EE100A49
:1031B00018EE901A8DED008B002818BF01200843EF
:1031C00020F00040C0F17F6000F1E040C00F14D05B
:1031D00019EE101A19EE900A8DED009B002918BF08
:1031E0000121084320F00040C0F17F6000F1E04081
:1031F000C00F04BF012000F02FFCB0EE480A03B05E
:10320000F0EE680ABDEC048B00BD00000000000079
:103210002DE9F14F04462DED020B2DED088B8AB000
:103220009FEDE70B80ED020B139EE74826F000456B
:1032300085420ADC9DED120B002084ED000B0AB0E4
:10324000BDEC088B03B0BDE8F08FE0489FEDE0AB2C
:103250009FEDE1BBA84247DDE14F9FEDE39B9FED72
:10326000E48B9DED120B53EC1A2B51EC100B002E3E
:103270001CDDFDF78CFA41EC100BBD4208D053EC7D
:103280001B2B51EC100BFDF782FAC4E900010BE097
:1032900053EC192B51EC100BFDF779FA53EC182B6A
:1032A000FDF775FAC4E900010120C8E7FDF7CEF982
:1032B00041EC100BBD4208D053EC1B2B51EC100B12
:1032C000FDF7C4F9C4E900010BE053EC192B51ECF4
:1032D000100BFDF7BBF953EC182BFDF7B7F9C4E958
:1032E00000014FF0FF30AAE7C348A84279DB9DED0B
:1032F000120B51EC100B00F009FC41EC180B9FED88
:10330000C00B53EC102BFDF748FA9FEDBF1B53EC9D
:10331000112BFDF79BF9FDF776FE0746FDF71EFB27
:1033200041EC190B53EC1A2BFDF737FA53EC182B21
:10333000FDF730FA41EC180B53EC1B2B51EC190B39
:10334000FDF72BFADFF8C8A241EC100B4FEA155835
:103350000125FA4453EC102B51EC180BFDF717FA2A
:10336000032DC4E900013DD0C1F30A5005EB45111E
:10337000A8EB00001139814234DA0AEB051BB0EEEC
:1033800048AA9BED000BF0EE68AA53EC102B51EC11
:10339000190BFDF702FA41EC1B0B51EC1A0B53EC25
:1033A0001B2BFDF7F4F941EC180B51EC1A0B53EC05
:1033B000182BFDF7ECF953EC1B2BFDF7E8F99BED0F
:1033C000020B41EC1A0B53EC102B51EC190BFDF7CF
:1033D000E4F953EC1A2BFDF7DAF941EC100B6D1CF4
:1033E000B8E70EE0002EA8BF3846BFF628AF94ED30
:1033F000000B51EC100B81F00041C4E90001784250
:103400001DE7C6F3130040F4801EC6F30A50A0F275
:10341000F530471100F01F05C5F12000DDF848B078
:1034200008900020069007900520EC467949002D71
:1034300007EB0002794408BF51F8221009D051F877
:10344000223001EB8201AB404A68089922FA01F16F
:103450001943A1FB0E26A1FB0B131A449A4234BF59
:103460000123002303EB06080CEB8003D3E901A63C
:103470000E448E4234BF0121002192448A4411B18E
:10348000924502D903E0924501D2012100E00021DA
:10349000C3E901A641444CF82010011EA0F101002F
:1034A000C4DC029800F10050850F0298DDE9036743
:1034B0008000DDF81480FDF751FA41EC1A0B30461C
:1034C000FDF794FD9FED541B53EC112BFDF765F9AF
:1034D00041EC1B0B3846FDF789FD9FED511B53EC6A
:1034E000112BFDF75AF941EC180B4046FDF77EFD14
:1034F0009FED4D1B53EC112BFDF74FF941EC190BD0
:1035000051EC180B53EC192BFDF7A0F853EC1B2BC7
:10351000FDF79CF853EC1A2BFDF798F8CDE908015C
:10352000002008909DED080B53EC1A2B51EC100B6A
:10353000FDF72DF953EC1B2BFDF729F953EC182B54
:10354000FDF725F953EC192BFDF724F99FED381BF6
:1035500053EC112BFDF721F99FED370B41EC180BC4
:1035600053EC102B9DED080B51EC100BFDF715F9EA
:1035700053EC182BFDF76AF89FED310B41EC180B5B
:1035800053EC102B9DED080B51EC100BFDF705F9DA
:1035900053EC182BFDF75AF841EC100B139810F070
:1035A000004F06D06D4251EC100B81F0004141EC10
:1035B000100B284684ED000B41E6000000000000DF
:1035C0000000000000000000FB21E93F7CD9024020
:1035D00000004054FB21F93F3163621A61B4D03DD1
:1035E000FB21F93F000000000000601A61B4D03DEB
:1035F0007370032E8A19A33BFB21394100000000A0
:1036000083C8C96D305FE43F000000000000E03F68
:10361000AA120000F8110000000000000000103E97
:10362000000000000000103C000000000000103A04
:10363000182D4454FB21F93D3326A611460B113CAD
:1036400000000054FB21F93D10B52DED040B2DEDCC
:10365000088B82B0B0EE419AF0EE619A0B9820F0A0
:1036600000449FED4BABB4F1795F11DA9DED0A0B8D
:1036700051EC100BFDF7C7FC002801BFB0EE4A0A61
:10368000F0EE6A0A02B0BDEC088B04BF04B010BDB6
:103690009DED0A0B53EC102B51EC100BFDF77DF850
:1036A00041EC180B3C480621B0EE480AF0EE680ADF
:1036B000784400F081F853EC182B51EC100BFDF717
:1036C0006CF89DED0A0B41EC1B0B53EC192B51ECE4
:1036D000100BFDF762F841EC190B53EC1B2B51EC6E
:1036E000180BFDF75AF853EC192BFDF750F89FED26
:1036F0002C0B41EC190B53EC102B51EC180BFDF774
:103700004CF841EC100B2848844210DA53EC192B8A
:1037100051EC100BFDF73BF853EC1A2BFDF73AF880
:1037200041EC100B02B0BDEC088B04B010BD1F487B
:10373000A042BCBF9FED1E1B8DED001B06DBA4F558
:1037400000100190002000909DED001B51EC100B2B
:1037500053EC112BFDF71BF89DED000B41EC180B02
:1037600053EC102B51EC1A0BFDF711F841EC1A0B2E
:1037700053EC192B51EC180BFDF709F853EC1A2BED
:10378000FDF708F841EC100BCCE70000000000004A
:10379000000000000000F03F1C0F000000000000CF
:1037A000000000000000E03F3333D33F0000E93F5A
:1037B000000000000000D23F70B504462DED028BE2
:1037C0004D1E00EBC500B0EE408AF0EE608A90ED31
:1037D000000B35F0060017D053EC182B51EC100BF2
:1037E000FCF7DBFF41EC100B6D1E04EBC50090ED08
:1037F000001B51EC100B53EC112BFCF727FF41EC95
:10380000100B35F00600E7D1022D36D0042D1CD068
:10381000062D1CBFBDEC028B70BD53EC182B51EC78
:10382000100BFCF7BAFF94ED0A1B53EC112BFCF7BD
:103830000DFF53EC182BFCF7B0FF94ED081B53EC75
:10384000112BFCF703FF41EC100B53EC182B51EC40
:10385000100BFCF7A2FF94ED061B53EC112BFCF7A9
:10386000F5FE53EC182BFCF798FF94ED040B53EC8A
:10387000102BFCF7EBFE41EC100B53EC182B51EC2A
:10388000100BFCF78AFF94ED021B53EC112BFCF795
:10389000DDFE53EC182BFCF780FF94ED001B53EC7E
:1038A000112BFCF7D3FEBDEC028B41EC100B70BD6D
:1038B00031B504462DED040B2DED0A8BB0EE41BA67
:1038C000F0EE61BA0B989DED0A0B20F00040B0F1CC
:1038D000795F0DDA51EC100BFFF769FB042808BF84
:1038E00000F09AF89DED0A0BBDEC0A8B05B030BDD7
:1038F00053EC102B51EC100BFCF74FFF41EC180B65
:103900009DED0A0B53EC182B51EC100BFCF745FF07
:1039100041EC190B2C48B0EE480AF0EE680A05217C
:103920007844FFF749FF9FED2ACBB0EE40AAF0EEB6
:1039300060AA9CB353EC1C2B51EC190BFCF72DFF28
:1039400041EC1C0B53EC1A2B51EC190BFCF725FF27
:103950009FED210B41EC190B53EC102B51EC1B0B81
:10396000FCF71BFF53EC192BFCF711FF53EC182B42
:10397000FCF713FF53EC1B2BFCF709FF53EC1C2B3C
:10398000FCF705FF9DED0A1B53EC112BFCF702FF22
:10399000BDEC0A8B05B041EC100B30BDFFE753ECDA
:1039A0001A2B51EC180BFCF7F8FE53EC1C2BFCF710
:1039B0004DFE53EC192BFCF7F0FE9DED0A1B53EC6A
:1039C000112BFCF743FEE3E7A40D0000000000000C
:1039D000495555555555C5BF000000000000E03F52
:1039E00010B553EC102B51EC100BFCF72FFE41ECF3
:1039F000100B10BD000000009FED050B10B553EC3F
:103A0000102B51EC100BFCF73AFF41EC100B10BDE2
:103A100000000000000000009FED050B10B553EC06
:103A2000102B51EC100BFCF7B8FE41EC100B10BD45
:103A3000000000000000001002E008C8121F08C1CA
:103A4000002AFAD170477047002001E001C1121F1F
:103A5000002AFBD170470000014908607047000050
:103A60003000002030380A2801D2012070470020A1
:103A70007047000070B5224A1F4C20482DED028B84
:103A8000B2F90430A1685AB2F1B1012923D000255E
:103A90009FED1C8A1C4E02290DD009B3032924D0A6
:103AA00004290ED194F902108B420ADDA270002283
:103AB0008021FDF745FCA560656086ED038A86EDF3
:103AC000028ABDEC028B70BD94F902108B4207DDB7
:103AD0000120A060A27060680028F2D0022009E0F6
:103AE00061680029EDD00321A16001228021FDF74A
:103AF00027FC0420A060E4E724000020001002401E
:103B0000C402002000000000D002002082B0CDE9F5
:103B1000000121F0004001909DED000B02B051EC3E
:103B2000100B70472DE9F0411B4D1C4FDFF87080E2
:103B300028680126C1191B4C414508D8FDF706FC31
:103B400000EE100AB8EE400A85ED020A2670686899
:103B5000C119414508D8FDF7F9FB00EE100AB8EE8F
:103B6000400A85ED030A66702078002811D060783D
:103B700000280ED0D5ED030A95ED020A0020F4EEE0
:103B8000C00AF1EE10FA01DD666000E0606060706E
:103B90002070BDE8F0810000D00200203333B3C1B3
:103BA0003333330124000020FDF7DEFBFEF71CFF5A
:103BB000FEF7D8FDFEF76AFEFEF78AFEFEF712FE5C
:103BC0004FF47A70FDF7B2FA322211491148FEF72C
:103BD000F7FA00F023F86420FDF7A8FA00F030F8B7
:103BE000FEF7EEFE0C4C4FF4FA7500BF00F050F8F3
:103BF000FEF78EFE2846FDF799FA00F021F82168BD
:103C000009B1012901D1FFF78DFFFFF733FFEDE780
:103C100060020020C40000202C0000200548002184
:103C20006423016081608180182203490348FEF704
:103C300047BD0000C4020020A5450008C4000020C4
:103C400070B564230B220E490E48FEF739FD0E4D68
:103C5000012419222C700D490A48FEF7E3FC0B4899
:103C60000A49643002688260D1F83F1009BA8A427A
:103C700004D001608188491C81806C7070BD000097
:103C8000BD450008C4000020200000206002002084
:103C90002DE9F04F794C00272DED028B85B094F87B
:103CA000500000287DD0BB46204684F850B000F17B
:103CB0005D0102910D317830CDE900010FE077B15F
:103CC0006D1C6FA12846FCF7D6FA06000CD0082F11
:103CD00015D2DFE807F0140A0FAEB2B7BBC068A177
:103CE0006648FCF7C8FA0546BEE06448721B2946E0
:103CF000523002E0721B294603A8FCF798FA94F8A8
:103D00005D0094F85E10303800EB80026FF02F08F1
:103D100008EB420001EB000994F85F0094F8601092
:103D2000303800EB800208EB420001EB000A554AF4
:103D300055A150340298FCF7BDFA524D95ED000A9A
:103D4000FDEEC00AF8EEE00A70EE600A00EE10AA7E
:103D5000B8EEC00A9FED4D8A80EE081A00EE109A68
:103D6000B8EEC00A31EE000A80EE881A30EE010A81
:103D700085ED000AA07E217F303800EBC00202EB07
:103D8000001001EB8000E17E414A01EB810102EB72
:103D9000410100EB0109607FA17F303800EB800218
:103DA00000E066E008EB420001EB00082A1D36A1A6
:103DB0000198FCF77FFA95ED010A3049FDEEC00A43
:103DC0008031081DF8EEE00A30EE600A00EE908ABD
:103DD000F8EEE00A80EE881A00EE909AF8EEE00A1B
:103DE00071EE200A80EE081A30EE810A85ED010A94
:103DF000D5ED000AC4ED0C0A84ED0D0A00F0D8FAE6
:103E00001E4A21A188320098FCF754FA94ED0E0A5C
:103E1000DFED200A0120354680EE201A84ED0E1ACF
:103E200060709DF80C10503C412918D056291BD1C8
:103E300018E0721B294602985FE71048721B29465A
:103E400068305AE7721B2946019856E70B48721BE7
:103E50002946763051E7721B294600984DE784F8D1
:103E60007D0001E084F87DB07F1CFFB2072F7FF654
:103E700026AF05B0BDEC028BBDE8F08FD401002069
:103E80002C00000018000020256600000000704291
:103E9000F0FDFFFF560EED3F10B52DED0E8BF0EE51
:103EA000408AB0EE608A18EE900AFCF768FD41EC9B
:103EB000100BFCF7B8F9FCF751FD41EC100BFFF7C4
:103EC00067F99FED861B51EC100B53EC112BFCF79F
:103ED00064FC41EC190B9FED830AF0EE000AB0EE92
:103EE00008EA08EEA00A08EE0E0ADFED7F0A68EE87
:103EF000200A00EE880ADFED7D0A68EEA00A00EED7
:103F0000880A10EE100AFCF73AFD53EC192BFCF767
:103F10009DFBFCF747FD044618EE900AFCF72FFDC9
:103F20009FED73AB53EC1A2BFCF737FC9FED729BA4
:103F300053EC192BFCF731FC41EC100BFFF7C4F8E4
:103F40009FED6FBB51EC100B53EC1B2BFCF725FCCA
:103F500041EC1C0B18EE900AFCF711FD9FED6A1B5B
:103F600053EC112BFCF719FC53EC192BFCF715FC47
:103F700041EC100BFFF7A8F853EC1B2B51EC100B86
:103F8000FCF70BFC53EC1C2BFCF760FB53EC1A2BDF
:103F9000FCF703FC9FED5ECB53EC1C2BFCF76FFC96
:103FA00041EC1D0B2046FCF7EAFC53EC1D2BFCF703
:103FB0004DFBFCF7F7FC88EE0E0A044610EE100AE3
:103FC000FCF7DDFC53EC192BFCF7E7FB41EC100B85
:103FD000FFF77AF89FED501B51EC100B53EC112BAF
:103FE000FCF7DBFB41EC1D0B18EE100AFCF7C7FCDD
:103FF00053EC192BFCF7D1FB41EC100BFFF764F8E5
:1040000053EC1B2B51EC100BFCF7C7FB53EC1D2B97
:10401000FCF71CFB53EC1A2BFCF7BFFB53EC1C2BDF
:10402000FCF72DFC41EC1B0B2046FCF7A8FC53ECE5
:104030001B2BFCF70BFBFCF7B5FC044618EE100A33
:10404000FCF79DFC53EC192BFCF7A7FB9FED341BF1
:1040500053EC112BFCF713FC41EC100BFFF734F879
:104060009FED311B51EC100B53EC112BFCF795FB22
:10407000F2EE080A41EC1B0B88EE200A10EE100A43
:10408000FCF77DFC53EC192BFCF787FB41EC100B84
:10409000FFF71AF89FED261B51EC100B53EC112B78
:1040A000FCF77BFB53EC1B2BFCF7D0FA53EC1A2BE1
:1040B000FCF773FB53EC1C2BFCF7E1FB41EC180BFA
:1040C0002046FCF75CFC53EC182BFCF7BFFAFCF71E
:1040D00069FCBDEC0E8B00EE100A10BD000000A0C4
:1040E0009999C93F0000C8C2CDCC4C3ECDCCCC3D47
:1040F0000000000000000040182D4454FB2109403E
:1041000000000000000034400000000000001840E3
:1041100000000000000008400000000000004440D3
:104120000000000000003E4000000000000074405D
:10413000000000000000644010B52DED0C8BB0EEC7
:10414000408AF0EE608A18EE100AFCF718FC41EC89
:10415000100BFCF768F8FCF701FC41EC100BFFF7C3
:1041600017F89FED811B51EC100B53EC112BFCF752
:1041700014FB41EC190B9FED7E0AB0EE00AA38EE5D
:10418000000A08EE8A0ADFED7B0A68EE200A00EEDC
:10419000880A00EEA80A10EE100AFCF7F0FB53ECB8
:1041A000192BFCF753FAFCF7FDFB28EE0A0A04462C
:1041B00010EE100AFCF7E3FB9FED6F9B53EC192BFD
:1041C000FCF7EBFA41EC100BFEF77EFF9FED6CABBA
:1041D00051EC100B53EC1A2BFCF7DFFAB1EE080A86
:1041E00041EC1B0B28EE000A10EE100AFCF7C7FB8F
:1041F00053EC192BFCF7D1FA41EC100BFEF764FFDE
:1042000053EC1A2B51EC100BFCF7C7FA53EC1B2B99
:10421000FCF71CFA9FED5CCB53EC1C2BFCF7BDFAB2
:104220009FED5BBB53EC1B2BFCF729FB41EC1D0BFB
:104230002046FCF7A4FB53EC1D2BFCF707FAFCF718
:10424000B1FBF0EE080A044688EE200A10EE100AD0
:10425000FCF795FB53EC192BFCF79FFA41EC100B84
:10426000FEF732FF9FED4C1B51EC100B53EC112B62
:10427000FCF793FA41EC1D0B18EE100AFCF77FFBDC
:1042800053EC192BFCF789FA41EC100BFEF71CFFDD
:1042900053EC1A2B51EC100BFCF77FFA53EC1D2B4F
:1042A000FCF7D4F953EC1C2BFCF777FA53EC1B2BDF
:1042B000FCF7E5FA41EC1A0B2046FCF760FB53ECE7
:1042C0001A2BFCF7C3F9FCF76DFBF3EE0E0A04465C
:1042D00088EE200A10EE100AFCF751FB53EC192B64
:1042E000FCF75BFA41EC100BFEF7EEFE9FED2C1B8A
:1042F00051EC100B53EC112BFCF74FFAF2EE080ABD
:1043000041EC1A0B88EE200A10EE100AFCF737FB7E
:1043100053EC192BFCF741FA41EC100BFEF7D4FEDD
:104320009FED211B51EC100B53EC112BFCF735FAD0
:1043300053EC1A2BFCF78AF953EC1C2BFCF72DFAE3
:1043400053EC1B2BFCF79BFA41EC180B2046FCF7B7
:1043500016FB53EC182BFCF779F9FCF723FBBDECAB
:104360000C8B00EE100A10BD000000A09999B93F17
:1043700000009643CDCCCC3D182D4454FB21094080
:104380000000000000003440000000000000004079
:104390000000000000000840000000000000444051
:1043A0000000000000C072400000000000C0624039
:1043B0002DE9F0470C462DED088B054691ED000ADE
:1043C000DFED638A70EE680A90ED000A9FED618A66
:1043D00030EE480AFFF760FD10EE108A94ED000AF7
:1043E00070EE680A95ED000A30EE480AFFF7A4FE69
:1043F00010EE109A2068FCF7C2FA9FED579B53EC21
:10440000192BFCF73CFA9FED56AB53EC1A2BFCF73B
:10441000C4F9FCF7C7FA0646FCF7B1FA41EC100BF9
:10442000FEF752FE51EC100BFCF7BCFA0746FCF706
:10443000A6FA41EC180B3846FCF7A1FA9FED4A1B8F
:1044400053EC112BFCF7A9F953EC182BFCF7A5F949
:104450009FED471B53EC112BFCF79CF9FCF7A2FADC
:1044600008EE900A18EE900AFCF789FA41EC100B5E
:10447000FEF78EFE51EC100BFCF794FA08EE100AD2
:1044800028EE880A10EE100AFCF779FA41EC100BBE
:1044900053EC102B9FED380B51EC100BFCF7EFF9A0
:1044A00053EC1A2BFCF779F941EC1B0B4046FCF757
:1044B00066FA53EC192BFCF770F953EC1B2BFCF745
:1044C000DEF9FCF76FFA08EE900A3046FCF757FA6F
:1044D00041EC100BFEF794FDB0EE40BAF0EE60BA7E
:1044E00018EE100AFCF74BFA41EC100B53EC102BB2
:1044F0009FED230B51EC100BFCF7C1F953EC1B2B78
:10450000FCF74BF953EC1A2BFCF747F941EC1A0B6B
:104510004846FCF734FA53EC192BFCF73EF953EC00
:104520001A2BFCF7ACF9FCF73DFAD4ED000A00EECB
:10453000100A95ED001A70EEA80A31EE000AC4EDDB
:10454000000A85ED000ABDEC088BBDE8F08700008D
:1045500000000C420000D2420000000000806640D3
:10456000182D4454FB2109400BEF80AF8F6A7B3F2D
:10457000000000000000F03FC155E32D102B584112
:1045800000000040C154584100000000000000003D
:1045900001020304060708090000000001020304E9
:1045A0000000FF0CF4555500000000000000000062
:1045B0000000000000FF03FDD4140117000000FFFD
:1045C00004FCD44A0200E0000000FF00FF000000ED
:1045D0004C5555555555A53F7751C1166CC156BF21
:1045E0009015CB19A001FA3EAD529C804F7E92BE31
:1045F000C4B1B4BD9EEE213ED43888BEE9FAA8BD50
:1046000000004054FB21F93F3163621A61B4D03D90
:104610000000601A61B4D03D7370032E8A19A33B69
:104620000000002E8A19A33BC14920259A837B39BB
:1046300000000000000000006E83F9A22915444E1E
:10464000D15727FCC0DD34F5999562DB4190433C9E
:10465000AB6351FE61C5BBDE3A6E24B7E0D24D427A
:10466000EA2E49061C92D1091CEB1DFE3EA729B17A
:10467000F53582E88444BB2E26709CE9417E5FB408
:1046800039D69139F43953838B5F849C3B28F9BD2B
:10469000FF97F81F0F9805DE8B112FEF1F6D0A5A39
:1046A000CF7E366DB709CB27663F464F2DEA5F9E1A
:1046B000C7BA27757BF1E5EBF739073DEA92528AD5
:1046C000B15FFB6B085D8D1FA6F810111111813FC2
:1046D000D561C119A0012ABF7DFEB157E31DC73EB8
:1046E000EB9C2B8AE6E55ABE7CD5CF5A3AD9E53DFC
:1046F000DDDDDDDDDCBBBBDDDDDDDDDDDDDDDDDD2F
:10470000988888888888888877777777778888886E
:104710008555555666666666666666666668888806
:104720008333333222222222222222222228888DFF
:10473000504700080000002034000000383A00080C
:104740008447000834000020B4060000483A0008FE
:104750000100000001000000100000000000000047
:104760000024F40000000000000000000000000031
:104770000000000000000000000000000000000039
:044780000000000035
:040000050800018965
:00000001FF
