:020000040800F2
:1000000078060020A1010008AB120008EF110008DB
:10001000A9120008ED0200085916000800000000AF
:10002000000000000000000000000000AF12000807
:10003000EF02000800000000AD120008B112000835
:10004000BB010008BB010008BB010008BB010008A0
:10005000BB010008BB010008BB010008BB01000890
:10006000BB010008BB010008BB010008BB01000880
:10007000BB010008BB010008BB010008BB01000870
:10008000BB010008BB010008BB010008BB01000860
:10009000BB010008BB010008BB010008BB01000850
:1000A000BB010008BB010008BB010008BB01000840
:1000B000BB010008BB010008BB010008BB01000830
:1000C000BB010008BB010008BB010008BB01000820
:1000D000BB0100082D1600084D160008BB010008E2
:1000E000BB010008BB010008BB010008BB01000800
:1000F000BB010008BB010008BB010008BB010008F0
:10010000BB010008BB010008BB010008BB010008DF
:10011000BB010008BB010008BB010008BB010008CF
:10012000BB010008BB010008BB010008BB010008BF
:10013000BB010008BB010008BB010008BB010008AF
:10014000BB010008BB010008BB010008BB0100089F
:10015000BB010008BB010008BB010008BB0100088F
:10016000BB010008BB010008BB010008BB0100087F
:10017000BB010008BB010008BB0100080000000033
:10018000BB010008BB010008DFF810D000F09CF8AC
:100190000048004799160008AFF300807806002059
:1001A0000648804706480047FEE7FEE7FEE7FEE711
:1001B000FEE7FEE7FEE7FEE7FEE7FEE7491300087D
:1001C000890100082DE9F05F0546002092469B4614
:1001D00088460646814640241BE02846414647465D
:1001E000224600F060F853465A46C01A914110D397
:1001F00011461846224600F047F82D1A67EB010811
:100200004F4622460120002100F03EF817EB00097E
:100210004E41201EA4F10104DFDC484631462A4647
:100220004346BDE8F09F40EA01039B0703D009E085
:1002300008C9121F08C0042AFAD203E011F8013BD2
:1002400000F8013B521EF9D27047D2B201E000F82B
:10025000012B491EFBD270470022F6E710B513466A
:100260000A4604461946FFF7F0FF204610BD30B598
:1002700004460020034600E05B1C934203D2E05C8E
:10028000CD5C401BF8D030BD202A04DB203A00FAB8
:1002900002F1002070479140C2F1200320FA03F3DD
:1002A000194390407047202A04DB203A21FA02F0DB
:1002B0000021704721FA02F3D040C2F120029140A0
:1002C0000843194670470000064C074D06E0E068F9
:1002D00040F0010394E8070098471034AC42F6D38D
:1002E000FFF756FF7017000890170008FEE77047E9
:1002F00072B6FEE72DE9F0410446876D00F060F923
:10030000064694F835000025022806D08020606556
:1003100084F834500120BDE8F0812068016821F0A4
:10032000160101602068416921F080014161206C63
:1003300008B9A06C20B12068016821F008010160B3
:100340002068016821F0010101600CE000F038F93B
:10035000801B052807D920206065032084F835001C
:1003600084F83450D7E720680068C007EED194F8CD
:100370005C103F208840B860012084F8350084F884
:1003800034500020C7E790F83510022903D08021AF
:10039000416501207047052180F83510006801682B
:1003A00021F00101016000207047000070B5044693
:1003B00000F006F90546601C02D0044800780444A9
:1003C00000F0FEF8401BA042FAD370BD04000020EC
:1003D0002DE9F84FDFF8BCA10022012503264FF0DC
:1003E0000F090AF1040BAAF1040E00BF0B6805FA0D
:1003F00002F42340A34270D10F7907F00307012FC5
:1004000001D0022F16D187684FEA420806FA08FC8D
:1004100027EA0C07D1F80CC00CFA08FC4CEA070CD0
:10042000C0F808C04768A7430C79C4F3001494408F
:100430003C4344600C79E443A4070AD0C4684FEA03
:10044000420C06FA0CF7BC438F6807FA0CF72743F7
:10045000C7600C7904F00304022C12D1D40800EB1D
:10046000840CDCF820405707FF0E09FA07F824EA4D
:100470000804D1F8108008FA07F848EA0408CCF814
:10048000208004684FEA420C06FA0CF7BC430F794F
:1004900007F0030707FA0CF7274307604C6814F4CA
:1004A000403F70D03C4C276847F480472760246861
:1004B00022F0030704F480440094384C07EB040C4A
:1004C000DCF8084897074FEA177809FA08F7BC43A1
:1004D000334FB84202D1002724E054E0314FB842F4
:1004E00001D101271EE0304FB84201D1022719E0A7
:1004F0002E4FB84201D1032714E02D4FB84201D14D
:1005000004270FE02B4FB84201D105270AE02A4FFC
:10051000B84201D1062705E0284FB84201D107278C
:1005200000E0082707FA08F72743CCF80878DAF83C
:1005300000405746D1F804C09C435FEACC2C00D55C
:100540001C433C60DBF800405F46D1F804C09C438C
:100550005FEA8C2C00D51C433C60DEF800407746F7
:10056000D1F804C09C435FEA8C3C00D51C433C603E
:10057000084F083F3C68D1F804C09C435FEACC3C7C
:1005800000D51C433C60521C102AFFF42FAFBDE87D
:10059000F88F0000083C0140443802400030014020
:1005A000000002400004024000080240000C02402B
:1005B000001002400014024000180240001C0240DB
:1005C00001488068704700000400002002488168EC
:1005D0000278114481607047040000200B4810B578
:1005E000016841F400710160016841F480610160BB
:1005F000016841F480710160032000F06FF80F2062
:1006000000F006F800F024F8002010BD003C024085
:1006100070B50D4D04464FF47A712878B1FBF0F0B7
:100620000A490968B1FBF0F000F00CFB48B9102C46
:1006300007D200222146501E00F030F800206C60E6
:1006400070BD012070BD00000400002010000020DB
:100650000A4808B5016841F480410160006800F46F
:10066000804000900548001F016841F08051016002
:10067000006800F08050009008BD0000443802403F
:10068000002809DB00F01F02012191404009800091
:1006900000F1E020C0F8001170470000F0B40E4BEC
:1006A0001B680C46C3F30223C3F10705042D00D9D0
:1006B0000425191D072901D2002300E0DB1E0126B5
:1006C00006FA05F1491E214099409E40761E1640CB
:1006D0003143F0BC00F0C1BF0CED00E0064900F072
:1006E000070208684FF6FF03184040EA0220034A59
:1006F00010430860704700000CED00E00000FA05B0
:100700002DE9F0470E46050065D0DFF81481D8F8D2
:100710000000F7B200F00700B04207D288F800707E
:10072000D8F8000000F00700B04254D128683D4CD2
:10073000810712D5400703D5206840F4E0502060BF
:100740002878000703D5206840F4604020602068C6
:10075000A96820F0F000084320602878C0072DD059
:10076000304968680839012812D0022813D00328BC
:1007700011D00968890700292DDA216821F00301C9
:1007800001432160FFF71CFF814641F2883A0EE0E9
:1007900009688903EFE709688901ECE7FFF710FFB3
:1007A000A0EB0901514502D90320BDE8F08720687C
:1007B000696800F00C00B0EB810FEFD1D8F80010A1
:1007C000404601F00701B14207D90770006800F008
:1007D0000700B04201D00120E7E72878400705D59F
:1007E0002068E96820F4E05008432060287800077A
:1007F00006D52068296920F4604040EAC1002060E5
:1008000000F038F82168084AC1F30311515CC84070
:100810000649086006480068FFF7FAFE0020C4E7B2
:10082000003C024008380240301700081000002049
:10083000080000200448054900680968044AC1F31B
:100840008221515CC84070471000002008380240E7
:10085000401700080448054900680968044AC1F3C4
:100860004231515CC84070471000002008380240F7
:1008700040170008154810B5006810F00C02144825
:1008800013D01449042A0FD0082A0ED10F4C241F6C
:100890002268236802F03F025B0207D52068C0F39C
:1008A0008810A0FB010106E0084610BD2168C1F3D5
:1008B0008811A1FB00010023FFF784FC2168C1F32C
:1008C0000141491C4900B0FBF1F010BD083802405D
:1008D0000024F40040787D012DE9F84F04006ED02B
:1008E0002078DFF84C93C007A9F104054AD009F13C
:1008F00004000168C1F38101012908D00068C0F338
:10090000810002280AD1D9F80000400206D52868E3
:10091000800337D560680028E1D033E06068B0F527
:10092000803F10D0B0F5A02F286810D020F4803080
:100930002860286820F4802028606068A8B1FFF74C
:100940003FFE06460DE0286840F48030F4E740F4AE
:1009500080202860F7E700BFFFF732FE801B642885
:1009600073D828688003F7D50CE0FFF729FE064608
:1009700005E000BFFFF724FE801B6428F0D828683C
:100980008003F7D42078DFF8AC8280074FF0000AAC
:100990003ED5A748001D016811F00C0F08D0006873
:1009A000C0F3810002280BD1D9F80000400207D41F
:1009B0002868800716D5E068012800D112E033E1ED
:1009C000E068B8B10120C8F80000FFF7F9FD06465D
:1009D00005E000BFFFF7F4FD801B0228C0D828689F
:1009E0008007F7D52868216920F0F80040EAC100A7
:1009F00028600DE0C8F800A0FFF7E2FD064604E01D
:100A0000FFF7DEFD801B02281FD828688007F7D477
:100A10002078000722D5864F87486169703771B109
:100A200001210160FFF7CCFD064604E0FFF7C8FD99
:100A3000801B022809D838688007F7D50EE0C0F877
:100A400000A0FFF7BDFD064605E082E0FFF7B8FD18
:100A5000801B02287DD838688007F7D420784007AB
:100A600068D5DFF8CCB100270BF13C0BDBF80000B8
:100A7000C0000BD4DBF8001041F08051CBF800101F
:100A8000DBF80000012700F0805000906B4E3068CA
:100A9000C00510D4306840F480703060FFF790FDDE
:100AA000009005E0FFF78CFD0099401A022850D80D
:100AB0003068C005F6D55E4EA0686C3601280FD0B0
:100AC0000528306810D020F001003060306820F038
:100AD00004003060A068B8B1FFF772FD00900FE02D
:100AE000306840F00100F4E740F004003060F7E7C0
:100AF000FFF766FD0099411A41F28830814266D8BD
:100B000030688007F4D50EE0FFF75AFD009007E04B
:100B1000FFF756FD0099411A41F28830814256D8BC
:100B200030688007F4D42FB1DBF8001021F0805139
:100B3000CBF80010A069C8B33D49091D0968C1F38D
:100B4000810102294AD00228504607D0C8F8600027
:100B500000E03CE0FFF734FD04463BE04746C8F8C0
:100B60006000FFF72DFD064605E000BFFFF728FDFA
:100B7000801B02282BD828688001F7D4D4E907010C
:100B80000843A16A2E4A490802EB0141626A41EA20
:100B90008211084394F82C1040EA0161C9F8001052
:100BA00001203866FFF70CFD044606E03EE000BF7A
:100BB000FFF706FD001B022809D828688001F7D539
:100BC00034E000BFFFF7FCFC001B022802D9032021
:100BD000BDE8F88F28688001F4D427E00128F7D019
:100BE000D9F80000E26900F4800191421CD1226A28
:100BF00000F03F01914217D147F6C071626A01408F
:100C0000B1EB821F10D1A26A4FF0FF3300F44031E4
:100C100003EB5202B1EB024F06D194F82C1000F016
:100C20007060B0EB016F01D00120D1E70020CFE769
:100C30000438024000004742800E474200700040E6
:100C40000000FFFF10B5401EB0F1807F01D30120EE
:100C500010BD4FF0E02460610F21601700F0FDFC33
:100C60000020A06107202061002010BD18B50346B8
:100C700090F84200202801D0022018BD61B15AB17D
:100C80000120186300205863184600F07BFC002800
:100C9000F3D1196B012901D0012018BD19680A6828
:100CA0004968009119680C3151E8002F42F0100298
:100CB00041E80024002CF5D118BD00000F4910B503
:100CC000884219D10E48007801280AD105220D4921
:100CD0000D48FFF7CCFA20B932220B490B48FFF739
:100CE000A2FA32210848FFF7B7FABDE810403222D5
:100CF00005490248FFF7BABF10BD000060000020A0
:100D00001500002048170008F80100202A020020E2
:100D100070470000F8B5016804460868CA684B6966
:100D200010F00F0F4FF0000559D003F0010602F448
:100D30009077374365D0C10705D0D10503D5616CE5
:100D400041F001016164410705D5D90703D0616C09
:100D500041F002016164810705D5D90703D0616CB8
:100D600041F004016164010707D502F0200131431D
:100D700003D0616C41F008016164616C00293AD0D4
:100D8000800604D5900602D5204600F014FB2068AA
:100D90004069616CC0F38010090700D460B320463D
:100DA00000F0E2FA20684069400621D5206814303E
:100DB00050E8001F21F0400140E80012002AF5D160
:100DC000E06BA8B16E490165E06BFFF7DCFA002823
:100DD00011D0E06B016D01B0BDE8F040084783061B
:100DE0000FD593060DD52046BDE8F84000F0E3BAD4
:100DF0002046FFF78DFFF8BD2046FFF789FF6564A9
:100E0000F8BD266B2023012E7DD1C6067BD5D606E4
:100E100079D508684868009048694FF00206400696
:100E200041D5E16B086840680004000CE8D0A28D51
:100E30008242E5D9E085C869B0F5807F2DD0206871
:100E40000C3050E8001F21F4807140E80012002AA5
:100E5000F5D12068143050E8001F21F0010140E86E
:100E60000012002AF5D12068143050E8001F21F04C
:100E7000400140E80012002AF5D184F84230256391
:100E800020680C3050E8001F21F0100140E80012EB
:100E9000002AF5D1E06BFFF72DFA6663A08DE18D96
:100EA000401A81B22AE0A08DE18D401A81B2E08D16
:100EB0000028A5D00029A3D022680C3252E8000FE8
:100EC00020F4907042E80007002FF5D1206814301C
:100ED00050E8002F22F0010240E80027002FF5D152
:100EE00084F84230256320680C3050E8002F22F04F
:100EF000100240E80023002BF5D166632046FFF77F
:100F0000DDFEF8BDFFE705062BD5150629D594F8BB
:100F100041002128F5D1A068B0F5805F01D120699A
:100F2000B0B1206A411C2162216800784860E08CE1
:100F3000401E0004000CE084E3D12068C16821F069
:100F40008001C1602068C16841F04001C160D8E7FC
:100F5000206A0088C0F308004860206A801C206274
:100F6000E5E74006CDD55006CBD5CA68204622F02D
:100F70004002CA6084F8413000F038F9C1E700004F
:100F80005913000870B5040004D094F841000025FE
:100F900010B106E0012070BD84F84050204600F0FA
:100FA00023F8242084F841002068C16821F400510E
:100FB000C160204600F060FA2068016921F4904188
:100FC00001612068416921F02A0141612068C168FE
:100FD00041F40051C1606564202084F8410084F828
:100FE00042006563002070BDF0B587B0044614214F
:100FF0006846FFF731F92A4F236800222949022465
:10100000032507262848BB4221D1264B14331F68ED
:1010100047F010071F601B6803F0100305930B686F
:1010200043F001030B60096802AB01F00101059177
:101030006902CDE9001483E864006946FFF7C8F946
:10104000002211462520FFF729FB252023E0174F1A
:10105000BB4222D1134B10331F6847F400371F6087
:101060001B6803F4003305930B6843F001030B6026
:10107000096802AB01F0010105910C21CDE90014D2
:1010800083E864006946FFF7A3F900221146262091
:10109000FFF704FB2620FFF7F3FA07B0F0BD0000CE
:1010A000001001403038024000000240004400407F
:1010B00090F84230202B01D00220704721B11AB1A4
:1010C0000023036300F05EBA0120704770B51A492F
:1010D00088421BD119480026194C0178242900D1D7
:1010E0002680184822888154521C95B225800278A7
:1010F000242A07D102794D2A04D14079432801D10D
:101100000A2904D0C82D01D3C820208070BD5021E9
:101110000D48FFF7A1F82A460A490B48FFF783F864
:101120000949012081F850002680BDE87040C8219F
:101130000448FFF791B800001800002014000020B8
:1011400000000020A8000020700100202DE9F843D5
:10115000044690F84100984616460D46202802D0D5
:101160000220BDE8F88385B17EB1002060642120B3
:1011700084F84100FFF724FAA6848146E684A0683B
:101180002027B0F5805F02D003E00120E9E7206965
:1011900010B12E4600250EE000260CE080212046EE
:1011A00000F00BFAA8B9C6B116F8010B2168486027
:1011B000E08C401EE084E08C4B464FF00002CDF8FE
:1011C00000800028EAD14FF04001204600F0F5F9F8
:1011D00040B184F841700320C3E735F8020BC0F337
:1011E0000800E3E784F841700020BAE77047FEE7A3
:1011F0000D4808B5016841F004010160016801F083
:1012000004010091016841F080010160016801F072
:1012100080010091016841F001010160006800F067
:101220000100009008BD0000303802400E4810B5A3
:101230000C4901604FF416514160002181600C227D
:10124000C160C0E904128161C161FFF79BFE08B172
:10125000FFF74EF8BDE81040012204490248FFF7AD
:1012600027BF0000001001401800002014000020DB
:101270000C4810B50A4901604FF4E131416000218A
:1012800081600C22C160C0E904128161C161FFF775
:1012900079FE002803D0BDE81040FFF729B810BD43
:1012A0000044004060000020FEE7FEE77047704702
:1012B000FFF78CB930B593B030216846FEF7CCFF0C
:1012C00014210CA8FEF7C8FF1D480025016841F055
:1012D00080510160006800F0805011901948016849
:1012E00041F4804101600068022400F480401190C4
:1012F0000120039010200490009406940820CDE96A
:101300000750A820CDE9090404200B906846FFF798
:10131000E3FA08B172B6FEE70CA90F2081E83100AC
:101320004FF4A0500F904FF48050109005210CA85E
:10133000FFF7E6F9002801D072B6FEE713B030BD22
:1013400040380240007000400248016841F47001DA
:101350000160704788ED00E010B5806B0021C18509
:10136000C184FFF7D5FC10BD01680C3151E8002F96
:1013700022F4907241E80023002BF5D1016814316A
:1013800051E8002F22F0010241E80023002BF5D1A3
:10139000016B012909D101680C3151E8002F22F0BD
:1013A000100241E80023002BF5D1202180F84210E3
:1013B00000210163704708B590F84210222901D03E
:1013C000022008BD82684FF480539A4201D101691E
:1013D00021B1816A9A421BD04AB10AE00268816A4F
:1013E0005268C2F308020A80816A891C08E0026917
:1013F00072B10268526802F07F020A70816A491C69
:101400008162C18D491E0904090CC18503D01BE00E
:1014100002685268F1E70168CA6822F02002CA60D7
:101420000168CA6822F48072CA6001684A6922F0C1
:1014300001024A61202180F8421000214163026BC1
:10144000012A03D0FFF742FE002008BD01630168B6
:101450000C3151E8002F22F0100241E80023002B4C
:10146000F5D101680A68D20602D50A684968009178
:10147000818DFFF723FCE7E770B50446006801693A
:10148000E26821F44051114301612169A068E269D9
:1014900008436169114308432168CA6849F20C6333
:1014A0009A430243CA6020684169A26921F44071ED
:1014B0001143416131492068884202D03049884255
:1014C00002D1FFF7C7F901E0FFF7B4F9E2690023A1
:1014D000192164253226B2F5004F626828D0A0FB9E
:1014E0000101930F9200FEF76DFE0146B0FBF5F08F
:1014F0006FF01802504301EB800006EB0010B0FBC8
:10150000F5F000F0F002B1FBF5F002EB0012B1FBD8
:10151000F5F06FF01803584301EB800006EB001064
:10152000B0FBF5F000F00F0021681044886070BD3A
:10153000A0FB010192185B41FEF744FE0146B0FB9F
:10154000F5F00201B1FBF5F06FF01803584301EB21
:10155000800006EBC000B0FBF5F000F0F80002EBF5
:101560004002B1FBF5F0584301EB800006EBC000F0
:10157000B0FBF5F000F00700D6E7000000100140D6
:101580000014014081628285C285002141642221CC
:1015900080F84210016921B10168CA6842F4807282
:1015A000CA6001684A6942F001024A610068C16884
:1015B00041F02001C160002070472DE9F8439846B2
:1015C00017460D460446089E24E0701C22D0FEF704
:1015D000F7FFA0EB0800B0421AD8CEB12068C1686E
:1015E000490717D5802D15D0402D13D00168C94368
:1015F00009070FD401680025406800902046FFF7D6
:10160000B3FE0820606484F840500120BDE8F883F0
:101610000320FBE72068006835EA000004D00020C2
:10162000B842D2D00020F1E70120F9E710B5054813
:10163000FFF770FBBDE81040012203490148FFF7A6
:1016400037BD000018000020140000200148FFF7FB
:1016500061BB000060000020FEE70907090E0028BA
:1016600004DB00F1E02080F80014704700F00F0068
:1016700000F1E02080F8141D704702E008C8121F36
:1016800008C1002AFAD170477047002001E001C16B
:10169000121F002AFBD17047FEF7A0FFFFF70AFEDA
:1016A000FFF7A6FDFFF7C2FDFFF7E2FD3222094971
:1016B0000948FFF7DBFA00F011F86420FEF776FE28
:1016C00000F016F84FF47A742046FEF76FFE00F033
:1016D0000FF8F9E7F80100206000002064231822C9
:1016E00001490248FFF732BD4D1700086000002095
:1016F00010B564230B220A490A48FFF727FD0A495F
:1017000001201922087009490648FFF7D1FC074952
:1017100018223231BDE8104001F13600FEF783BDDA
:10172000651700086000002015000020F801002067
:101730000000000000000000010203040607080981
:1017400000000000010203040000FF0CF4555500E6
:1017500000000000000000000000000000FF03FD8A
:10176000D4140117000000FF04FCD44A0200E0007A
:101770009017000800000020180000007A160008EA
:10178000A817000818000020600600008A1600084C
:101790000000000001000000100000000000000038
:0817A0000024F4000000000029
:040000050800018965
:00000001FF
