:020000040800F2
:10000000380D0020A10100082D2C00082B2A000823
:10001000192C00089D110008113300080000000091
:10002000000000000000000000000000312D00086A
:100030009F110008000000007D2C0008332D0008EF
:10004000BB010008BB010008BB010008BB010008A0
:10005000BB010008BB010008BB010008BB01000890
:10006000BB010008BB010008BB010008BB01000880
:10007000BB010008BB010008BB010008BB01000870
:10008000BB010008BB010008BB010008BB01000860
:10009000BB010008BB010008BB010008BB01000850
:1000A000BB010008BB010008BB010008DD2D0008F2
:1000B000BB010008BB010008BB010008BB01000830
:1000C000BB010008BB010008BB010008BB01000820
:1000D000BB010008D1320008F1320008FD320008EF
:1000E000BB010008BB010008BB010008BB01000800
:1000F000BB010008BB010008BB010008BB010008F0
:10010000BB010008BB010008BB010008BB010008DF
:10011000BB010008BB010008BB010008BB010008CF
:10012000BB010008BB010008BB010008BB010008BF
:10013000BB010008BB010008BB010008BB010008AF
:10014000BB010008BB010008BB010008BB0100089F
:10015000BB010008BB010008BB010008BB0100088F
:10016000BB010008BB010008BB010008BB0100087F
:10017000BB010008BB010008BB0100080000000033
:10018000BB010008BB010008DFF810D000F0CCFD77
:1001900000480047254B0008AFF30080380D0020D1
:1001A0000648804706480047FEE7FEE7FEE7FEE711
:1001B000FEE7FEE7FEE7FEE7FEE7FEE7CD2D0008DF
:1001C000890100082DE9F05F0546002092469B4614
:1001D00088460646814640241BE02846414647465D
:1001E000224600F028FC53465A46C01A914110D3CB
:1001F00011461846224600F00FFC2D1A67EB010845
:100200004F4622460120002100F006FC17EB0009B2
:100210004E41201EA4F10104DFDC484631462A4647
:100220004346BDE8F09F002800DA4042704740EAAC
:1002300001039B0703D009E008C9121F08C0042A64
:10024000FAD203E011F8013B00F8013B521EF9D24B
:100250007047D2B201E000F8012B491EFBD2704773
:100260000022F6E710B513460A4604461946FFF782
:10027000F0FF204610BD30B505462A460B4612F861
:10028000010B13F8014B08B1A042F8D01CB10028B3
:1002900002D06D1CF1E7284630BD421C10F8011B4E
:1002A0000029FBD1801A704730B504460020034670
:1002B00000E05B1C934203D2E05CCD5C401BF8D0B5
:1002C00030BD00000FB400B58DB010A909900B909F
:1002D00000914FF0FF300A9000200C9005480690E6
:1002E000054807906A4609A80F9900F0CDFB0DB0AC
:1002F0005DF814FBA50A0008C30A00082DE9FF4FAA
:10030000087883B09946FF2805D0491C2D2804D0D1
:100310000024002008E000200BE00124F9E700EBB6
:10032000800003EB4000491C0B78FF2BF7D104B190
:10033000404200230293147819461D462D2C01D00B
:100340002B2C04D1521C2D2C13D000240294AA462D
:100350001478FF2C0FD00A25A3FB057801FB05813B
:100360004FF0000C03FB0C11521CE3194AEB010186
:10037000EEE70124EAE7814453EA010002D019F5CF
:10038000C87F06DA03980021C0E9001107B0BDE874
:10039000F08F0025AE4E2F46DFF8B882184600F0E9
:1003A00086FCCDE90001B9F1000002DAC9F10004D0
:1003B00000E004460023A74A1AEB030B42EB045A61
:1003C00012E0E00707D02A4633463846414600F09F
:1003D000ECF9074688462A4633461046194600F08F
:1003E000E4F905460E466410002CEAD1DDE900016F
:1003F000B9F1000F5A46534606DA00F048FA3A4679
:10040000434600F044FA05E000F0CFF93A4643468F
:1004100000F0CBF9029A0AB181F00041039AC2E9D7
:100420000001B3E72DE9FF4F1F468DB0D7E9014624
:100430004FF0FF382E2045464FF000090B90B96968
:100440006D1C0E988847396A824688470028F6D185
:10045000BAF1FF3F0AD024F4D064002E11DDBAF1C6
:100460002B0F08D0BAF12D0F0BD102E0404611B08E
:100470008DE744F48064B9696D1C0E988847824604
:10048000761E6946600501D52D2000E02B208DF8F1
:10049000000001F1010B0DF1200809E0B9696D1CA4
:1004A0000E98884782460F9844F40074761E0560C3
:1004B000002E02DDBAF1300FF0D00B998A453ED103
:1004C00044F0800406E00F99681CA9F1010944F486
:1004D00000740860B9696D1C761E0E9888478246C4
:1004E0003028F0D02BE00B998A4505D1200603D4A3
:1004F00044F08004761E18E0504603F069FD08B30E
:100500000DF11301761E44F400748B4508D2AAF154
:1005100030000BF8010B200607D5A9F1010003E01C
:10052000200602D409F101008146A00502D50F99E9
:10053000681C0860B9696D1C0E9888478246002EB9
:10054000D1DC53E0002E51DDBAF1650F02D0BAF1D3
:10055000450F4BD1A00549D5B9696D1C24F44074F1
:10056000761E0E9888478246002E0CDD2B2804D07C
:10057000BAF12D0F07D144F48074B9696D1C0E983F
:1005800088478246761EE00501D52D2100E02B210B
:1005900008F8011BCDF82C8021E00DF12901761E11
:1005A00044F4007488450CD2AAF1300010F0FF002A
:1005B00088F8000002D10B99884509D908F1010893
:1005C00006E0E00501D5244801E042F20F708146C3
:1005D000B9696D1C0E98884782460F980560002EF9
:1005E00004DD504603F0F4FC0028D6D1F9690E98DA
:1005F0008847FF208BF8000088F800000020069054
:1006000007904B466A4608A906A8FFF777FEA005A3
:1006100002D46FF001002AE714F0240F0AD0E0079B
:1006200014D1DDE906123868031D3B600068C0E99B
:1006300000120BE0DDE9060100F0BCF90146E0071D
:1006400004D13868021D3A600068016028460EE750
:10065000000014400000F03FF1D8FFFF2DE9FE4FED
:10066000804681EA0300C00F0C46009021F0004153
:1006700023F00045B8EB0200A94105D240462146CF
:1006800090461C460B46024623F00040104347D0DC
:10069000270DC7F30A00C3F30A510290401A0190D4
:1006A00040286BDAC3F3130040F4801B0098924695
:1006B00020B10023D2EB030A63EB0B0B01985946E0
:1006C000C0F14002504600F0A7F906460D465046DC
:1006D0005946019A00F0BFF910EB0800614100246F
:1006E00087EA115284EAE7731A4340D0009A62B352
:1006F000019A012A4FEA075215DC001B61EB020147
:100700004FF0004202EA0752CDE90042001C41F5D9
:10071000801132462B4600F02BFA03B0BDE8F08F73
:1007200040462146F9E7001B61EB0201001C41F540
:10073000801300185B412018A2F5001747EB030156
:1007400040EAD570B6196D4111E06D084FEA3606E2
:1007500045EAC0754FEA0752001B61EB0201001C1D
:1007600041F5801149084FEA3000001951413246E5
:100770002B4603B0BDE8F04F00F0EBB90098012222
:1007800040000023D0EB020263EBE07300982146A7
:100790004FEAE074B8EB000061EB0401E9E783F095
:1007A00000435BE781F0004158E72DE9FE4F81EA05
:1007B000030404F0004421F0004100944FF0000BCA
:1007C00023F0004350EA01045ED052EA03045BD0F8
:1007D000C3F30A54C1F30A552C44A4F2F334019430
:1007E000A0FB0254C1F3130141F48011C3F31303BE
:1007F00043F4801301FB024400FB034E840A970A72
:1008000044EA815447EA8357A4FB076802958D0A9E
:1008100005FB07854FEA932C04FB0C542705029D2A
:100820004FEA065847EA1637B5EB08056EEB070C9A
:10083000870E920E47EA811742EA8312A7FB020154
:10084000B6EB0B0164EB00042B0D43EA0C335E188E
:1008500044EB1C50DA465146E7FB0201C5F3130492
:100860004FEA0B3343EA14534FEA0432019C43EA44
:100870000603A4F10C040294009CCDE900B400F03E
:1008800077F903B0BDE8F08F00200146F9E72DE9C4
:10089000F04D81EA030404F0004B21F000451446BA
:1008A0004FF0000A23F0004150EA050220D054EA3C
:1008B00001021DD0C5F30A570246C5F31303C1F365
:1008C0001300C1F30A5640F4801543F48013A7EBDC
:1008D0000608101BD64608F2FD3873EB050002D35C
:1008E00008F1010801E092185B41B8F1000F03DA4A
:1008F00000200146BDE8F08D00204FF4801106462F
:1009000084460EE0171B73EB050705D3121B63EB40
:10091000050306434CEA010C49084FEA30009218DF
:100920005B4150EA0107EDD152EA030012D082EA9E
:10093000040083EA0501084305D0101BAB4106D231
:100940000122002306E000224FF0004302E06FF096
:10095000010253101AEB06004CEB085110EB0A0091
:1009600041EB0B01BDE8F04D00F0F3B80EB5C10F3F
:1009700080EAE0700844CA07002140F233438DE862
:100980000E000A460B4600F0F3F803B000BD00F07D
:10099000004230F000400AD0C10D01F56071C0F393
:1009A000160042EA0151C208400711437047002077
:1009B0000146704701F0004330B421F0004150EA95
:1009C000010206D00A0DA2F56072C1F31301002ADC
:1009D00002DC30BC00207047440F44EAC104C1006F
:1009E000E01830BC00EBC25000F07CB830B50B46CC
:1009F000014600202022012409E021FA02F59D424F
:100A000005D303FA02F5491B04FA02F52844151E22
:100A1000A2F10102F1DC30BD202A04DB203A00FA09
:100A200002F1002070479140C2F1200320FA03F345
:100A3000194390407047202A04DB203A21FA02F043
:100A40000021704721FA02F3D040C2F12002914008
:100A5000084319467047202A06DBCB17203A41FA93
:100A600002F043EAE07306E041FA02F3D040C2F13B
:100A70002002914008431946704700000268114463
:100A80001378016018467047D160044951610449E8
:100A9000116200211161114600F05EB97D0A000863
:100AA0004D0D0008426842B1016811F8013B23B1C5
:100AB000521EC0E90012184670470121C160881E0D
:100AC000704742685AB1C368016843B983688B4272
:100AD00005D0491E521CC0E90012002070474FF09B
:100AE000FF3070470029A8BF7047401C490008BF6D
:100AF00020F00100704710B4B0FA80FC00FA0CF04E
:100B000050EA010404BF10BC704749B1CCF1200485
:100B100021FA04F411FA0CF118BF01212143084312
:100B2000A3EB0C01CB1D4FEA00614FEA102042BF3E
:100B3000002010BC704700EBC35010440029A4BF34
:100B400010BC7047401C490008BF20F0010010BCD9
:100B5000704710B5141E73F1000408DA401C41F10F
:100B6000000192185B411A4301D120F0010010BD31
:100B70002DE9F04D92469B4611B1B1FA81F202E0A7
:100B8000B0FA80F220329046FFF746FF04460F4647
:100B900040EA0A0041EA0B0153465A46084313D083
:100BA000114653EA010019D0C8F140025046FFF740
:100BB00042FF05460E46504659464246FFF72CFF77
:100BC000084305D0012004E020463946BDE8F08DF9
:100BD0000020054346EAE0762C4337430A98630534
:100BE000E40AA0EB08000022FD0A44EA47540A3058
:100BF00002D500200146E9E7010510196941DDE948
:100C0000084500196941BDE8F04DA2E72DE9F04D16
:100C100000231A461B1A8A4103DB00200146BDE867
:100C2000F08DC1F30A52C1F3130141F480154FF066
:100C3000000BD10702D100186D41521E0027044657
:100C400040F2FF11384601EB620A3E4680460246FA
:100C500000204FF48011FFF7EEFEC2197141BB185E
:100C600046EB0100B4EB030C75EB000C04D3E41A63
:100C700065EB000517460E46241908F101006D4189
:100C800080463428E3DDF91946EB0600091BA8412C
:100C900003D24FF0FF32134601E0002213461BEB54
:100CA000070046EB0A51BDE8F04DFFF752BF0EB505
:100CB00040F2334202920022CDE900221346FFF7B0
:100CC00057FF03B000BDC1F30A52C1F3130140F254
:100CD000FF3341F480119A4202DA00200146704746
:100CE00040F233439A42A2F2334202DC5242FFF70F
:100CF000A2BEFFF791BE000030B5041E71F10004E2
:100D000004DB4FF00044404264EB0101141E73F118
:100D1000000405DB1C464FF00043524263EB040322
:100D2000994208BF904230BD064C074D06E0E0688E
:100D300040F0010394E8070098471034AC42F6D322
:100D4000FFF726FA98550008B8550008C0B24FF4CE
:100D5000F05100F0C5B900002DE9F34F8BB04FF012
:100D6000000801F10C000C464FF0010B46460DF156
:100D7000080A01906269012101989047051E2DD053
:100D8000252D2CD0216A8847C0B1626901210198C4
:100D90009047216A88470028F7D1411E626901986F
:100DA000904700E0761CA1690B988847216A884724
:100DB0000028F7D1E1690B988847DBE7A1690B9818
:100DC00088470746A84201D1761CD3E7E1690B9812
:100DD00088477F1C02D1B8F1000F6FD047E1002790
:100DE00062693D463946019890472A2804D16269D4
:100DF0000121019890470125DFF88892626901215D
:100E000001989047A0F130010A290AD24F45E5DC4C
:100E100007EB870100EB4107303FDFD445F01005B9
:100E2000ECE7E90601D46FF000476C280AD04C28A3
:100E300014D0682815D06A280DD074281CD07A28C0
:100E40001AD01DE062690121019890476C2802D0F8
:100E500045F0040514E045F002050DE045F02005DD
:100E60000AE06269012101989047682802D045F0A4
:100E7000080505E045F40065626901210198904785
:100E8000C4E9015765283DD019DC58287AD00CDC1C
:100E9000452837D004DC252826D0412831D131E03F
:100EA00046282FD047282CD12CE05B2877D061280A
:100EB00028D063287CD0642823D15AE0D1E06F2861
:100EC00048D008DC66281DD067281BD0692821D0AF
:100ED0006E2816D127E0702845D0732868D0752871
:100EE00047D078280DD14DE0A1690B988847054679
:100EF00025283FF469AFE1690B9888476D1C3FF4E2
:100F00006AAFB4E023466A466FF001000B99FFF721
:100F100089FA9FE045F040006060A80723464FF043
:100F2000000236D43EE0E8077FF447AF2068011D99
:100F300021600068290501D506701BE7290701D546
:100F4000068017E7A90703D5F117C0E9006111E78B
:100F500006600FE745F040006060A80723464FF0A9
:100F6000080216D41EE040F60E0125EA010060607A
:100F700016E045F040006060A80723464FF00A02E3
:100F800007D40FE045F040006060A80708D523466D
:100F900010226FF001000B99AFF300805AE007E0D8
:100FA000234610226FF001000B99AFF3008051E04F
:100FB0004FF000094F464B46632802D05B2807D00C
:100FC00041E02079C00601D40120A06001273AE069
:100FD00062690121019890475E2805D14FF001090F
:100FE0006269494601989047216939B900210A464A
:100FF000534643F82120491C0829FADBB0B3216984
:1010000069B9C11700EBD16253110AEB830122F0D9
:101010001F02821A01200B68904003430B60626933
:101020000121019890475D28E8D1B9F1000F09D05E
:101030000020514651F82020D24341F82020401C86
:101040000828F7DB02AB224600976FF001000B99EE
:10105000AFF3008000280CDA401C08D1BBF1000F70
:1010600005D04FF0FF300DB0BDE8F08FFFE74046F0
:10107000F9E7E90701D108F1010806444FF0000B38
:1010800078E60000CCCCCC0C0EB540F23341029196
:101090000021CDE900110A460B46FFF769FD03B0B8
:1010A00000BD70B5C1F30A5201F000450024C1F340
:1010B000130140F2FF3341F480119A4201DA00201B
:1010C00070BD40F233439A42A2F2334203DC5242F3
:1010D000FFF7B1FC00E090402C43F1D0404270BDDE
:1010E0007F2801D9002208E0064A02EB5002C0071F
:1010F000127800D1120902F00F020120904008403E
:1011000070470000585500087CB5224D28680168DA
:10111000C943090704D40168416801910168416825
:1011200000681D4CC043800624D44FF0FF330122D9
:101130006946184801F082FBB4F8002440F2FF33FE
:10114000C2F30E014FF40030994202D29DF8002004
:1011500007E0D10BC903A4F800149DF80020C1F3E7
:101160000E016254B4F8001400EBF1304FEA704005
:10117000A4F8000428680168C943C90608D4B4F873
:10118000001441F40041A4F8001401684068019083
:101190007CBD00001001002030030020FEE77047F6
:1011A00072B6FEE72DE9F0411748A0B090F87D1027
:1011B000002926D08046D0F88800FFF7E8FB0646D5
:1011C0000F46D8F88400FFF7E2FB04460D46D8F836
:1011D0008000FFF7DCFB0B4602468DE8FC000BA20B
:1011E000642106A802F096F8014606A801F016FD53
:1011F0000948F7EE000A90ED000A30EE200A80ED73
:10120000000A20B0BDE8F081200200202125662CD4
:1012100025662C2566000000300000202DE9F041F5
:101220000446876D00F066F9064694F835000025FF
:10123000022806D08020606584F834500120BDE883
:10124000F0812068016821F0160101602068416981
:1012500021F080014161206C08B9A06C20B12068A8
:10126000016821F0080101602068016821F0010196
:1012700001600CE000F03EF9801B052807D9202012
:101280006065032084F8350084F83450D7E720687F
:101290000068C007EED194F85C103F208840B86029
:1012A000012084F8350084F834500020C7E790F816
:1012B0003510022903D080214165012070470521A6
:1012C00080F835100068016821F0010101600020FC
:1012D0007047000070B5044600F00CF90546601C2C
:1012E00002D004480078044400F004F9401BA042F6
:1012F000FAD370BD040000202DE9F84FDFF8BCA13F
:101300000022012503264FF00F090AF1040BAAF170
:10131000040E00BF0B6805FA02F42340A34270D10B
:101320000F7907F00307012F01D0022F16D187682C
:101330004FEA420806FA08FC27EA0C07D1F80CC06D
:101340000CFA08FC4CEA070CC0F808C04768A74331
:101350000C79C4F3001494403C4344600C79E4439A
:10136000A4070AD0C4684FEA420C06FA0CF7BC4343
:101370008F6807FA0CF72743C7600C7904F0030461
:10138000022C12D1D40800EB840CDCF82040570763
:10139000FF0E09FA07F824EA0804D1F8108008FAC9
:1013A00007F848EA0408CCF8208004684FEA420CA9
:1013B00006FA0CF7BC430F7907F0030707FA0CF79E
:1013C000274307604C6814F4403F70D03C4C2768BA
:1013D00047F480472760246822F0030704F4804420
:1013E0000094384C07EB040CDCF8084897074FEAE8
:1013F000177809FA08F7BC43334FB84202D10027E7
:1014000024E054E0314FB84201D101271EE0304FB3
:10141000B84201D1022719E02E4FB84201D103276B
:1014200014E02D4FB84201D104270FE02B4FB842F2
:1014300001D105270AE02A4FB84201D1062705E06D
:10144000284FB84201D1072700E0082707FA08F71C
:101450002743CCF80878DAF800405746D1F804C0A2
:101460009C435FEACC2C00D51C433C60DBF8004079
:101470005F46D1F804C09C435FEA8C2C00D51C4326
:101480003C60DEF800407746D1F804C09C435FEA38
:101490008C3C00D51C433C60084F083F3C68D1F8A9
:1014A00004C09C435FEACC3C00D51C433C60521C0A
:1014B000102AFFF42FAFBDE8F88F0000083C014070
:1014C0004438024000300140000002400004024065
:1014D00000080240000C02400010024000140240CC
:1014E00000180240001C02400AB1816170470904E3
:1014F000FBE70000014880687047000004000020FE
:10150000024881680278114481607047040000201D
:101510000B4810B5016841F400710160016841F4A5
:1015200080610160016841F480710160032000F076
:101530006FF80F2000F006F800F024F8002010BD2E
:10154000003C024070B50D4D04464FF47A71287886
:10155000B1FBF0F00A490968B1FBF0F000F00AFBBA
:1015600048B9102C07D200222146501E00F030F856
:1015700000206C6070BD012070BD000004000020E0
:10158000100000200A4808B5016841F4804101605C
:10159000006800F4804000900548001F016841F099
:1015A00080510160006800F08050009008BD00008C
:1015B00044380240002809DB00F01F02012191405D
:1015C0004009800000F1E020C0F8001170470000E1
:1015D000F0B40E4B1B680C46C3F30223C3F107059E
:1015E000042D00D90425191D072901D2002300E08C
:1015F000DB1E012606FA05F1491E214099409E4056
:10160000761E16403143F0BC01F0DCBE0CED00E06C
:10161000064900F0070208684FF6FF03184040EA49
:101620000220034A10430860704700000CED00E000
:101630000000FA052DE9F0470E46050065D0DFF8F9
:101640001481D8F80000F7B200F00700B04207D2CA
:1016500088F80070D8F8000000F00700B04254D1BC
:1016600028683D4C810712D5400703D5206840F417
:10167000E05020602878000703D5206840F46040DF
:1016800020602068A96820F0F000084320602878D6
:10169000C0072DD0304968680839012812D00228C7
:1016A00013D0032811D00968890700292DDA216891
:1016B00021F0030101432160FFF71CFF814641F245
:1016C000883A0EE009688903EFE709688901ECE7C9
:1016D000FFF710FFA0EB0901514502D90320BDE837
:1016E000F0872068696800F00C00B0EB810FEFD143
:1016F000D8F80010404601F00701B14207D9077041
:10170000006800F00700B04201D00120E7E7287828
:10171000400705D52068E96820F4E05008432060C0
:101720002878000706D52068296920F4604040EA3F
:10173000C100206000F038F82168084AC1F30311A5
:10174000515CC8400649086006480068FFF7FAFE89
:101750000020C4E7003C024008380240F053000873
:1017600010000020080000200448054900680968AE
:10177000044AC1F38221515CC84070471000002028
:101780000838024000540008044805490068096808
:10179000044AC1F34231515CC84070471000002038
:1017A0000838024000540008154810B5006810F0D1
:1017B0000C02144813D04110042A0FD0082A0ED16D
:1017C0000F4C241F2268236802F03F025B0207D5FA
:1017D0002068C0F38810A0FB010106E0084610BD98
:1017E0002168C1F38811A1FB00010023FEF7EAFC88
:1017F0002168C1F30141491C4900B0FBF1F010BD63
:10180000083802400024F4002DE9F84F04006ED09F
:101810002078DFF84C93C007A9F104054AD009F1FC
:1018200004000168C1F38101012908D00068C0F3F8
:10183000810002280AD1D9F80000400206D52868A4
:10184000800337D560680028E1D033E06068B0F5E8
:10185000803F10D0B0F5A02F286810D020F4803041
:101860002860286820F4802028606068A8B1FFF70D
:1018700041FE06460DE0286840F48030F4E740F46D
:1018800080202860F7E700BFFFF734FE801B642844
:1018900073D828688003F7D50CE0FFF72BFE0646C7
:1018A00005E000BFFFF726FE801B6428F0D82868FB
:1018B0008003F7D42078DFF8AC8280074FF0000A6D
:1018C0003ED5A748001D016811F00C0F08D0006834
:1018D000C0F3810002280BD1D9F80000400207D4E0
:1018E0002868800716D5E068012800D112E033E1AE
:1018F000E068B8B10120C8F80000FFF7FBFD06461C
:1019000005E000BFFFF7F6FD801B0228C0D828685D
:101910008007F7D52868216920F0F80040EAC10067
:1019200028600DE0C8F800A0FFF7E4FD064604E0DB
:10193000FFF7E0FD801B02281FD828688007F7D436
:101940002078000722D5864F87486169703771B1CA
:1019500001210160FFF7CEFD064604E0FFF7CAFD56
:10196000801B022809D838688007F7D50EE0C0F838
:1019700000A0FFF7BFFD064605E082E0FFF7BAFDD5
:10198000801B02287DD838688007F7D4207840076C
:1019900068D5DFF8CCB100270BF13C0BDBF8000079
:1019A000C0000BD4DBF8001041F08051CBF80010E0
:1019B000DBF80000012700F0805000906B4E30688B
:1019C000C00510D4306840F480703060FFF792FD9D
:1019D000009005E0FFF78EFD0099401A022850D8CC
:1019E0003068C005F6D55E4EA0686C3601280FD071
:1019F0000528306810D020F001003060306820F0F9
:101A000004003060A068B8B1FFF774FD00900FE0EB
:101A1000306840F00100F4E740F004003060F7E780
:101A2000FFF768FD0099411A41F28830814266D87B
:101A300030688007F4D50EE0FFF75CFD009007E00A
:101A4000FFF758FD0099411A41F28830814256D87B
:101A500030688007F4D42FB1DBF8001021F08051FA
:101A6000CBF80010A069C8B33D49091D0968C1F34E
:101A7000810102294AD00228504607D0C8F86000E8
:101A800000E03CE0FFF736FD04463BE04746C8F87F
:101A90006000FFF72FFD064605E000BFFFF72AFDB7
:101AA000801B02282BD828688001F7D4D4E90701CD
:101AB0000843A16A2E4A490802EB0141626A41EAE1
:101AC0008211084394F82C1040EA0161C9F8001013
:101AD00001203866FFF70EFD044606E03EE000BF39
:101AE000FFF708FD001B022809D828688001F7D5F8
:101AF00034E000BFFFF7FEFC001B022802D90320E0
:101B0000BDE8F88F28688001F4D427E00128F7D0D9
:101B1000D9F80000E26900F4800191421CD1226AE8
:101B200000F03F01914217D147F6C071626A01404F
:101B3000B1EB821F10D1A26A4FF0FF3300F44031A5
:101B400003EB5202B1EB024F06D194F82C1000F0D7
:101B50007060B0EB016F01D00120D1E70020CFE72A
:101B60000438024000004742800E474200700040A7
:101B70000000FFFF10B5401EB0F1807F01D30120AF
:101B800010BD4FF0E02460610F21601701F01AFCD6
:101B90000020A06107202061002010BD7047704721
:101BA00070B590F83C20012A32D0012480F83C40E6
:101BB000022280F83D2003685A689D6822F0700672
:101BC0000A6832435A60134B02689A4214D0B2F149
:101BD000804F11D0104B9A420ED0104B9A420BD02E
:101BE0000F4B9A4208D00F4B9A4205D00E4B9A42A7
:101BF00002D00E4B9A4204D1496825F08003194364
:101C0000916080F83D40002180F83C10084670BD8E
:101C1000022070BD000001400004004000080040A8
:101C2000000C00400004014000400140001800404A
:101C300010B5040003D094F83D0010B107E0012076
:101C400010BD002084F83C00204600F01FF8022060
:101C500084F83D00211D206801F0C6F8012084F8B9
:101C6000460084F83E0084F83F0084F8400084F881
:101C7000410084F8420084F8430084F8440084F86A
:101C8000450084F83D00002010BD000010B586B06E
:101C9000044614216846FEF7E3FA17492068884293
:101CA00028D116480021026842F001020260006853
:101CB00000F00100059011481438026842F010024B
:101CC0000260006800F0100005904FF42060009062
:101CD0000220CDE901010120CDE903106946084841
:101CE000FFF70AFB002211461B20FFF771FC1B20A7
:101CF000FFF760FC06B010BD000001404438024010
:101D00000010024070B5044690F83C000025012800
:101D100017D0012684F83C60022084F83D0020683A
:101D2000826822F0770222F47F428260086850289D
:101D300038D00DDC20284FD005DC90B3102811D10D
:101D40004AE0022070BD302846D040280AD13BE04E
:101D500060282FD070280DD0B0F5805F03D0B0F58B
:101D6000005F12D0012584F83D60002084F83C001B
:101D7000284670BDCB68D1E90121206801F0ADF89B
:101D80002068816841F0770109E0CB68D1E9012141
:101D9000206801F0A2F82068816841F480418160E8
:101DA000E1E719E0CA684968206801F0A8F8502105
:101DB000206806E0CA684968206801F0F1F86021EF
:101DC000206801F094F8CEE7CA684968206801F0FD
:101DD00096F840212068F4E7226801461046F0E7B3
:101DE0002DE9F0413C4D06462DED048BA84245D12E
:101DF000307F00279FED398ADFED398A394C4FF06B
:101E00000208B6EE009A01281AD194F910000128B0
:101E100038D0022832D10021284600F08FFA00EE97
:101E2000100A00212846F8EE400A80EE880A20EECB
:101E3000280A20EE090A84ED000A00F09BF92774B5
:101E4000307F02281AD194F9110001282DD00228E0
:101E500014D10421204800F071FA00EE100A042188
:101E60001D48B8EE400AC0EE080A20EEA80A20EE8F
:101E7000090A84ED010A00F07DF96774BDEC048B5A
:101E8000BDE8F081286847622868016A21F00A01EC
:101E900001622868016A41F00201016284F8108041
:101EA00000210D4800F0E0F8CAE72868476228687A
:101EB000016A21F0A00101622868016A41F0200155
:101EC000016284F811800421BDEC048BBDE8F0416F
:101ED000014800F0C9B8000038000020002474490F
:101EE0000000AA431C0300202DE9F041054690F8AC
:101EF0003C0000260C46012810D0012085F83C004B
:101F000072B1042A1CD0082A2CD00C2A50D00126E9
:101F1000002085F83C003046BDE8F0810220FBE758
:101F2000D4E90012E368286800F0FAFF28688169A4
:101F300021F00C01816128688169A26811430FE0DA
:101F4000D4E90012E368286801F03CF82868816948
:101F500021F44061816128688169A26841EA022117
:101F60008161D5E72868D4E9002C277B036A016AE0
:101F700021F480710162C16923F4206321F003011F
:101F800041EA0C0121F0F00C39074FF420674CEACC
:101F9000116107EA02221A43C16102622868C1691D
:101FA00021F00C01C1612868C169A26811432BE0CE
:101FB0002868D4E90021E768036AD0F820C02CF42F
:101FC000805CC0F820C0D0F81CC023F420432CF45F
:101FD000407C4CEA012121F4704C4FF6FF7101EA7C
:101FE00007314FF4204741EA0C0107EA02321A4355
:101FF000C16102622868C16921F44061C161286839
:10200000C169A26841EA0221C16181E710B50400FB
:1020100003D094F83D0010B107E0012010BD00206E
:1020200084F83C00204600F01EF8022084F83D00B1
:10203000211D206800F0D8FE012084F8460084F8B5
:102040003E0084F83F0084F8400084F8410084F8A2
:10205000420084F8430084F8440084F8450084F882
:102060003D00002010BD704730B50446002551B139
:1020700004290DD0082910D094F8410094F8452087
:10208000012811D10EE094F83E0094F84220F7E7C1
:1020900094F83F0094F84320F2E794F8400094F855
:1020A0004420EDE7012A01D0012030BD022059B1C2
:1020B000042912D0082919D084F8410084F8450079
:1020C0000C2944D0012540E084F83E0084F8420009
:1020D0002068C26842F0020210E084F83F0084F8F1
:1020E00043002068C26842F0040207E084F8400020
:1020F00084F844002068C26842F00802C2600122ED
:10210000206800F0DDFE14492068884214D0B0F148
:10211000804F11D0114988420ED0114988420BD00E
:102120001049884208D01049884205D00F4988429A
:1021300002D00F49884204D1816801F007010629C5
:1021400003D0016841F001010160284630BD2068DC
:10215000C26842F01002D1E70000014000040040D4
:1021600000080040000C0040000401400040014015
:102170000018004070B50D0004464FF0000607D06F
:10218000042D0AD0082D0DD00C2D10D001262FE0E3
:102190002068C16821F002010DE02068C16821F0CB
:1021A000040108E02068C16821F0080103E020680C
:1021B000C16821F01001C16000222946206800F0AA
:1021C0007FFE2068016A41F21112114207D1016AB3
:1021D0009210114203D1016821F001010160012038
:1021E00045B1042D09D0082D0AD004F8410F207103
:1021F000304670BD04F83E0FF9E704F83F0FF6E7EC
:1022000004F8400FF3E72DE9F04104460068C66882
:1022100005694FF00007A90713D5B10711D5F91EBD
:10222000016101202077206880698007204602D064
:10223000FFF7D6FD04E000F07EF8204600F07CF8C1
:102240002777680716D5700714D521686FF004004A
:102250000861022020772068806910F4407F2046C2
:1022600002D0FFF7BDFD04E000F065F8204600F065
:1022700063F82777280715D5300713D521686FF045
:1022800008000861042020772068C0698007204684
:1022900002D0FFF7A5FD04E000F04DF8204600F065
:1022A0004BF82777E80616D5F00614D521686FF0AD
:1022B00010000861082020772068C06910F4407F72
:1022C000204602D0FFF78CFD04E000F034F82046F1
:1022D00000F032F82777E80708D0F00706D0216829
:1022E0006FF001000861204600F027F8280608D5A5
:1022F000300606D521686FF0800008612046FFF7A0
:102300004DFC680608D5700606D521686FF04000C0
:102310000861204600F027F8A8060AD5B00608D5BF
:1023200021686FF0200008612046BDE8F041FFF70A
:1023300036BCBDE8F0817047704770470246002008
:1023400041B1042909D008290AD00C2901D110680B
:10235000006C70471068406B70471068806B704766
:102360001068C06B7047704718B5034690F842007C
:10237000202801D0022018BD61B15AB10120186394
:1023800000205863184600F04FFF0028F3D1196B66
:10239000012901D0012018BD19680A684968009117
:1023A00019680C3151E8002F42F0100241E8002476
:1023B000002CF5D118BD000070B51549884225D113
:1023C000052214491448FDF76FFF144C144D18B939
:1023D0002078287000202070052212490E48FDF751
:1023E00063FF40B932220C490F48FDF720FF2078E7
:1023F00028700220207032210748FDF731FFBDE828
:102400007040322204490248FFF7AEBF70BD0000A1
:10241000C800002030540008AC020020200000203A
:102420000000002008540008DE0200207047000071
:10243000F8B5016804460868CA684B6910F00F0FC8
:102440004FF0000559D003F0010602F490773743AE
:1024500065D0C10705D0D10503D5616C41F00101FC
:102460006164410705D5D90703D0616C41F00201D1
:102470006164810705D5D90703D0616C41F004017F
:102480006164010707D502F02001314303D0616C7C
:1024900041F008016164616C00293AD0800604D5DE
:1024A000900602D5204600F0D7FD20684069616C97
:1024B000C0F38010090700D460B3204600F0A5FDEA
:1024C00020684069400621D52068143050E8001F7C
:1024D00021F0400140E80012002AF5D1E06BA8B1DC
:1024E0006E490165E06BFEF7E2FE002811D0E06B5B
:1024F000016D01B0BDE8F040084783060FD5930693
:102500000DD52046BDE8F84000F0A6BD2046FFF7F7
:102510008DFFF8BD2046FFF789FF6564F8BD266B87
:102520002023012E7DD1C6067BD5D60679D5086835
:102530004868009048694FF00206400641D5E16BBB
:10254000086840680004000CE8D0A28D8242E5D9FA
:10255000E085C869B0F5807F2DD020680C3050E848
:10256000001F21F4807140E80012002AF5D1206894
:10257000143050E8001F21F0010140E80012002A49
:10258000F5D12068143050E8001F21F0400140E8E8
:102590000012002AF5D184F84230256320680C30FF
:1025A00050E8001F21F0100140E80012002AF5D188
:1025B000E06BFEF733FE6663A08DE18D401A81B2B9
:1025C0002AE0A08DE18D401A81B2E08D0028A5D0CF
:1025D0000029A3D022680C3252E8000F20F490703A
:1025E00042E80007002FF5D12068143050E8002F92
:1025F00022F0010240E80027002FF5D184F8423094
:10260000256320680C3050E8002F22F0100240E8CB
:102610000023002BF5D166632046FFF7CDFEF8BD01
:10262000FFE705062BD5150629D594F8410021288A
:10263000F5D1A068B0F5805F01D12069B0B1206A02
:10264000411C2162216800784860E08C401E000433
:10265000000CE084E3D12068C16821F08001C160F2
:102660002068C16841F04001C160D8E7206A008855
:10267000C0F308004860206A801C2062E5E740063D
:10268000CDD55006CBD5CA68204622F04002CA609C
:1026900084F8413000F0C8F9C1E70000FB2F0008C2
:1026A00070B5040004D094F84100002510B106E094
:1026B000012070BD84F84050204600F023F824200B
:1026C00084F841002068C16821F40051C1602046AF
:1026D00000F024FD2068016921F490410161206827
:1026E000416921F02A0141612068C16841F400512B
:1026F000C1606564202084F8410084F8420065636D
:10270000002070BDF0B587B0044614216846FDF77F
:10271000A7FD434B276800224249022403250726D0
:1027200041489F4221D13F4B14331F6847F01007A7
:102730001F601B6803F0100305930B6843F001034F
:102740000B60096802AB01F0010105916902CDE956
:10275000001483E864006946FEF7CEFD00221146AE
:102760002520FEF735FF252024E02E4BDFF8BCC0E6
:102770001033674522D11F6847F400371F601B687C
:1027800003F4003305930B6843F001030B60096801
:1027900002AF01F0010105910C21CDE9001487E899
:1027A00064006946FEF7A8FD002211462620FEF7C8
:1027B0000FFF2620FEF7FEFE07B0F0BD1C48874243
:1027C000FAD1186840F480201860186800F480205E
:1027D0000590086840F002000860086802AF00F049
:1027E000020005904FF44060CDE9000487E86400E2
:1027F00069461048FEF780FD002211462720FEF7AB
:10280000E7FE2720FEF7D6FE0B480168CA6842F0B3
:102810002002CA600068C16841F01001C160CBE7C6
:1028200000100140303802400000024000440040E7
:102830000048004000040240100100202DE9F84F3C
:10284000044690F842009A4616460D46202802D0CB
:102850000220BDE8F88FB5B1AEB10020606422213E
:1028600084F842102063FEF745FEA6858146E68582
:10287000A0684FF480582027404501D1206920B13D
:102880002E46002529E00120E3E7002625E04B46FF
:10289000002220212046CDF800A000F0E0FC18B175
:1028A00084F842700320D4E726B1A06840451AD0CE
:1028B00038B108E020684068C0F3080025F8020B32
:1028C00008E0206978B12068406800F07F0000BF10
:1028D00006F8010BE08D401EE085E08D0028D6D182
:1028E00084F84270B5E720684068F1E790F842301C
:1028F000202B01D00220704721B11AB100230363BD
:1029000000F092BC0120704770B51A4988421BD173
:1029100019480026194C0178242900D166801848EE
:1029200062888154521C95B265800278242A07D1AE
:1029300002794D2A04D14079432801D10A2904D0D3
:10294000C82D01D3C820608070BD50210D48FDF70F
:1029500087FC2A460A490B48FDF769FC0949012012
:1029600081F850006680BDE87040C8210448FDF73A
:1029700077BC000080000020140000200000002030
:1029800058010020200200202DE9F843044690F869
:102990004100984616460D46202802D00220BDE888
:1029A000F88385B17EB100206064212084F8410065
:1029B000FEF7A0FDA6848146E684A0682027B0F536
:1029C000805F02D003E00120E9E7206910B12E46C4
:1029D00000250EE000260CE08021204600F03FFCA0
:1029E000A8B9C6B116F8010B21684860E08C401EFA
:1029F000E084E08C4B464FF00002CDF800800028C8
:102A0000EAD14FF04001204600F029FC40B184F8A3
:102A100041700320C3E735F8020BC0F30800E3E779
:102A200084F841700020BAE77047FEE770B586B0C1
:102A300014216846FDF714FC1E480025016841F08A
:102A400004010160016801F004010591016841F091
:102A500080010160016801F080010591016841F089
:102A600001010160016801F001010591016841F077
:102A700010010160016801F010010591016841F049
:102A80000201016000680C4E00F002004FF4A454F3
:102A90000590002221463046FEF726FD0120CDE9B3
:102AA00000400220CDE9020569463046FEF724FCCD
:102AB00006B070BD303802400010024010B58AB038
:102AC00000242748049405940694079408940994D4
:102AD000009401940294214903940160A621C0E965
:102AE00001144FF6FF71C0E903148021C0E90541CC
:102AF000FFF79EF808B1FEF753FB4FF480500490A7
:102B000004A91748FFF7FEF808B1FEF749FB14487F
:102B1000FFF77CFA08B1FEF743FB089408A91048B8
:102B20000994FFF73DF808B1FEF73AFB0120CDE923
:102B3000004002940022694609480394FFF7D4F943
:102B400008B1FEF72DFB042269460548FFF7CCF9D2
:102B5000002801D0FEF724FB0AB010BD00000140A0
:102B6000380000200E4810B50C4901604FF4165192
:102B70004160002181600C22C160C0E904128161C2
:102B8000C161FFF78DFD08B1FEF70AFBBDE81040FB
:102B9000012204490248FFF7A9BE000000100140CD
:102BA00080000020140000200C4810B50A49016084
:102BB0004FF4E1314160002181600C22C160C0E925
:102BC00004128161C161FFF76BFD002803D0BDE8ED
:102BD0001040FEF7E5BA10BD00440040C8000020D8
:102BE0000C4810B50A4901604FF4E1314160002101
:102BF00081600C22C160C0E904128161C161FFF7EC
:102C00004FFD002803D0BDE81040FEF7C9BA10BD43
:102C10000048004010010020FEE700008AB2014693
:102C200064230148FFF7B0BE10010020FEE700005A
:102C300010B5002001F012FE01F066FD012001F048
:102C400017FE06A001F0EEFD012001F0A5FD01F048
:102C5000CDFDBDE8104001F08FBD000068747470B8
:102C60003A2F2F3130312E33322E33362E35323A41
:102C7000363636362F706F737400000070470000D0
:102C80002DE9F047274D284C284E287C01274FF48A
:102C9000347800BB4FF48069012249463046FEF784
:102CA00023FC00BF00BF0220414600BF401C8842F9
:102CB000FBDB002249463046FEF716FC2068016A1D
:102CC00021F00A0101622068016A016200211648B0
:102CD000FFF7CAF92F74687C002820D14FF480597F
:102CE000012249463046FEF7FFFB00BF00BF02202D
:102CF000414600BF401C8842FBDB0022494630466B
:102D0000FEF7F2FB2068016A21F0A0010162206851
:102D1000016A016204210448FFF7A6F96F74BDE857
:102D2000F08700001C030020380000200010024043
:102D30007047FEF7E5BB000030B593B03021684620
:102D4000FDF78EFA14210CA8FDF78AFA1D4800251C
:102D5000016841F080510160006800F080501190DE
:102D60001948016841F4804101600068022400F4C0
:102D70008040119001200090000401908001CDE975
:102D8000064008AA0420A82182E813000B90684698
:102D9000FEF73AFD08B172B6FEE70CA90F2081E8F4
:102DA00031004FF4A0500F904FF480501090052147
:102DB0000CA8FEF73FFC002801D072B6FEE713B066
:102DC00030BD0000403802400070004002480168F9
:102DD00041F470010160704788ED00E00148FFF7A1
:102DE00012BA000038000020F0B50268294C2A4DC4
:102DF0002A4E2B4F2B4B4FF0804CA04209D0604500
:102E000007D0A84205D0B04203D0B84201D09842C2
:102E100004D122F0700E4A6842EA0E02A0421BD092
:102E2000604519D0A84217D0B04215D0B84213D08F
:102E3000984211D01C4DA8420ED01C4DA8420BD078
:102E40001B4DA84208D01B4DA84205D01A4DA842E0
:102E500002D01A4DA84203D122F44075CA682A4311
:102E60004D6922F080022A4302608A68C2620A68C1
:102E70008262A04201D0984201D109690163012117
:102E800041610169C90703D0016921F001010161B4
:102E9000F0BD0000000001400004004000080040B8
:102EA000000C00400004014000400140004401408B
:102EB0000048014000180040001C00400020004075
:102EC00010B501F01F030121046A99408C4304628C
:102ED000016A9A401143016210BD10B5846842EA4C
:102EE000032224F47F440A432243826010BD826897
:102EF00022F070020A4342F007018160704710B56A
:102F0000036A046A24F001040462846924F0F00472
:102F100044EA021423F00A020A438461026210BDEB
:102F200070B5056A046A24F0010404628469154ED0
:102F3000B04214D0B0F1804F11D0134EB0420ED039
:102F4000124EB0420BD0124EB04208D0114EB042D9
:102F500005D0114EB04202D0104EB04203D124F041
:102F60000304144301E044F001041A0724F0F004C0
:102F700044EA126225F00A0301F00A011943826152
:102F8000016270BD000001400004004000080040E4
:102F9000000C0040000401400040014000180040C7
:102FA00010B5036A046A24F010040462846923F0F3
:102FB000A00324F4704444EA023243EA011182611E
:102FC000016210BD30B5046A056A25F0100505627E
:102FD000856925F4407545EA022222F470454FF6D2
:102FE000FF7202EA033224F0A0032A43A02404EA79
:102FF000011119438261016230BD10B5806B00215F
:10300000C185C184FFF712FA10BD01680C3151E887
:10301000002F22F4907241E80023002BF5D10168C3
:10302000143151E8002F22F0010241E80023002B67
:10303000F5D1016B012909D101680C3151E8002F4C
:1030400022F0100241E80023002BF5D1202180F866
:10305000421000210163704708B590F84210222900
:1030600001D0022008BD82684FF480539A4201D1FA
:10307000016921B1816A9A421BD04AB10AE0026813
:10308000816A5268C2F308020A80816A891C08E0DA
:10309000026972B10268526802F07F020A70816AA6
:1030A000491C8162C18D491E0904090CC18503D0E8
:1030B0001BE002685268F1E70168CA6822F020024A
:1030C000CA600168CA6822F48072CA6001684A69ED
:1030D00022F001024A61202180F842100021416360
:1030E000026B012A03D0FFF70FFC002008BD01632B
:1030F00001680C3151E8002F22F0100241E8002352
:10310000002BF5D101680A68D20602D50A68496821
:103110000091818DFFF750F9E7E7000070B5044694
:1031200000680169E26821F440511143016121699D
:10313000A068E26908436169114308432168CA68CD
:1031400049F20C639A430243CA6020684169A2694C
:1031500021F440711143416131492068884202D015
:103160003049884202D1FEF70FFB01E0FEF7FCFA7E
:10317000E2690023192164253226B2F5004F626806
:1031800028D0A0FB0101930F9200FDF71BF8014628
:10319000B0FBF5F06FF01802504301EB800006EB36
:1031A0000010B0FBF5F000F0F002B1FBF5F002EB1F
:1031B0000012B1FBF5F06FF01803584301EB8000EB
:1031C00006EB0010B0FBF5F000F00F002168104492
:1031D000886070BDA0FB010192185B41FCF7F2FF13
:1031E0000146B0FBF5F00201B1FBF5F06FF01803FA
:1031F000584301EB800006EBC000B0FBF5F000F097
:10320000F80002EB4002B1FBF5F0584301EB8000FF
:1032100006EBC000B0FBF5F000F00700D6E70000B9
:10322000001001400014014081628285C2850021A6
:103230004164222180F84210016921B10168CA6805
:1032400042F48072CA6001684A6942F001024A6130
:103250000068C16841F02001C160002070472DE97D
:10326000F843984617460D460446089E24E0701C15
:1032700022D0FEF73FF9A0EB0800B0421AD8CEB139
:103280002068C168490717D5802D15D0402D13D06F
:103290000168C94309070FD4016800254068009000
:1032A0002046FFF7B2FE0820606484F840500120F9
:1032B000BDE8F8830320FBE72068006835EA0000DA
:1032C00004D00020B842D2D00020F1E70120F9E775
:1032D00010B50548FFF7ACF8BDE8104001220349DE
:1032E0000148FFF703BB000080000020140000200D
:1032F0000148FFF79DB80000C800002010B5FDF799
:1033000003FFBDE810400148FFF792B8100100200C
:10331000FEE700000FB47CB50C0009AD01D0611EC2
:1033200000E00021CDE90001064B6A4629460898D5
:1033300000F056FE002C02D0009A002111707CBCD7
:103340005DF814FBE74600080FB4084B10B504A95C
:1033500002AA039800F044FE044602A9002001F0EE
:10336000CDF9204610BC5DF814FB0000FD460008B6
:1033700037B514460846064B6A46214600F030FE33
:1033800004466946002001F0B9F920463EBD000020
:10339000FD46000803B401984100009850EAC1209E
:1033A00018BF04204A0D18BF40F0010040F2FF7220
:1033B000B2EB515F08BF40F00200012808BF0520B2
:1033C00002B070470907090E002804DB00F1E02075
:1033D00080F80014704700F00F0000F1E02080F842
:1033E000141D70470000000010B52F499FED2C1BE5
:1033F0002DED020B84B0059820F000408842D8BF24
:103400009DED040B2DDD2949884209D1049840B96E
:103410004FF0010000F014FD00F0E2FC06B010BD1A
:1034200005DB9DED040B00F0CFFC06B010BD684637
:103430009DED040B00F0E0F810F0030004BF9DEDDB
:10344000021B9DED000B0CD001280ED09DED021B40
:103450009DED000B022817D0012000F01DFC06B0E6
:1034600010BD00F0E5FA06B010BD9DED021B9DED0C
:10347000000B012000F010FC51EC100B81F000411A
:1034800006B041EC100B10BD00F0D2FA51EC100B5D
:1034900081F0004106B041EC100B10BD00000000AF
:1034A0000000000000000000FB21E93F0000F07F69
:1034B00010B52F499FED2C1B2DED020B84B0059804
:1034C00020F000408842DCBF00209DED040B32DD7F
:1034D0002849884209D1049840B94FF0010000F012
:1034E000AFFC00F07DFC06B010BD05DB9DED040BCC
:1034F00000F06AFC06B010BD68469DED040B00F0BC
:103500007BF810F0030011D0012818D09DED021BAC
:103510009DED000B02281AD000F08AFA51EC100B36
:1035200081F0004106B041EC100B10BD9DED021B77
:103530009DED000B012000F0AFFB06B010BD9DED2E
:10354000021B9DED000B00F073FA06B010BD0120C8
:1035500000F0A2FB51EC100B81F0004106B041ECF1
:10356000100B10BD00000000000000000000000073
:10357000FB21E93F0000F07F00B52DED048BB0EE9C
:10358000409AF0EE609A83B051EC190BFDF73EFBC8
:1035900041EC180B18EE100A18EE901A8DED008B06
:1035A000002818BF0120084320F00040C0F17F60D0
:1035B00000F1E040C00F14D019EE101A19EE900A75
:1035C0008DED009B002918BF0121084320F0004029
:1035D000C0F17F6000F1E040C00F04BF012000F0A7
:1035E0002FFCB0EE480A03B0F0EE680ABDEC048B85
:1035F00000BD0000000000002DE9F14F04462DED54
:10360000020B2DED088B8AB09FEDE70B80ED020BCE
:10361000139EE74826F0004585420ADC9DED120B1B
:10362000002084ED000B0AB0BDEC088B03B0BDE8B0
:10363000F08FE0489FEDE0AB9FEDE1BBA84247DD96
:10364000E14F9FEDE39B9FEDE48B9DED120B53EC5F
:103650001A2B51EC100B002E1CDDFDF7A0F841ECED
:10366000100BBD4208D053EC1B2B51EC100BFDF797
:1036700096F8C4E900010BE053EC192B51EC100B48
:10368000FDF78DF853EC182BFDF789F8C4E900011C
:103690000120C8E7FCF7E2FF41EC100BBD4208D067
:1036A00053EC1B2B51EC100BFCF7D8FFC4E90001C5
:1036B0000BE053EC192B51EC100BFCF7CFFF53EC44
:1036C000182BFCF7CBFFC4E900014FF0FF30AAE74D
:1036D000C348A84279DB9DED120B51EC100B01F0B1
:1036E000D3F941EC180B9FEDC00B53EC102BFDF7F9
:1036F0005CF89FEDBF1B53EC112BFCF7AFFFFDF700
:10370000D0FC0746FDF732F941EC190B53EC1A2BAC
:10371000FDF74BF853EC182BFDF744F841EC180B70
:1037200053EC1B2B51EC190BFDF73FF8DFF8C8A247
:1037300041EC100B4FEA15580125FA4453EC102BBD
:1037400051EC180BFDF72BF8032DC4E900013DD017
:10375000C1F30A5005EB4511A8EB00001139814275
:1037600034DA0AEB051BB0EE48AA9BED000BF0EE35
:1037700068AA53EC102B51EC190BFDF716F841EC2D
:103780001B0B51EC1A0B53EC1B2BFDF708F841EC0B
:10379000180B51EC1A0B53EC182BFDF700F853ECF7
:1037A0001B2BFCF7FCFF9BED020B41EC1A0B53ECBF
:1037B000102B51EC190BFCF7F8FF53EC1A2BFCF70C
:1037C000EEFF41EC100B6D1CB8E70EE0002EA8BF19
:1037D0003846BFF628AF94ED000B51EC100B81F08A
:1037E0000041C4E9000178421DE7C6F3130040F42C
:1037F000801EC6F30A50A0F2F530471100F01F05F5
:10380000C5F12000DDF848B0089000200690079030
:103810000520EC467949002D07EB0002794408BFEA
:1038200051F8221009D051F8223001EB8201AB404F
:103830004A68089922FA01F11943A1FB0E26A1FB5F
:103840000B131A449A4234BF0123002303EB0608EA
:103850000CEB8003D3E901A60E448E4234BF012154
:10386000002192448A4411B1924502D903E0924565
:1038700001D2012100E00021C3E901A641444CF836
:103880002010011EA0F10100C4DC029800F10050DC
:10389000850F0298DDE903678000DDF81480FDF7ED
:1038A00065F841EC1A0B3046FDF7EEFB9FED541B1B
:1038B00053EC112BFCF779FF41EC1B0B3846FDF75D
:1038C000E3FB9FED511B53EC112BFCF76EFF41EC1A
:1038D000180B4046FDF7D8FB9FED4D1B53EC112B09
:1038E000FCF763FF41EC190B51EC180B53EC192B4F
:1038F000FCF7B4FE53EC1B2BFCF7B0FE53EC1A2B79
:10390000FCF7ACFECDE90801002008909DED080B06
:1039100053EC1A2B51EC100BFCF741FF53EC1B2B13
:10392000FCF73DFF53EC182BFCF739FF53EC192B38
:10393000FCF738FF9FED381B53EC112BFCF735FFDC
:103940009FED370B41EC180B53EC102B9DED080B42
:1039500051EC100BFCF729FF53EC182BFCF77EFE03
:103960009FED310B41EC180B53EC102B9DED080B28
:1039700051EC100BFCF719FF53EC182BFCF76EFE03
:1039800041EC100B139810F0004F06D06D4251EC33
:10399000100B81F0004141EC100B284684ED000B28
:1039A00041E60000000000000000000000000000F0
:1039B000FB21E93F7CD9024000004054FB21F93F44
:1039C0003163621A61B4D03DFB21F93F0000000071
:1039D0000000601A61B4D03D7370032E8A19A33BB6
:1039E000FB2139410000000083C8C96D305FE43F0E
:1039F000000000000000E03F2A1D0000781C0000CD
:103A0000000000000000103E000000000000103C1C
:103A1000000000000000103A182D4454FB21F93D2D
:103A20003326A611460B113C00000054FB21F93D42
:103A300010B52DED040B2DED088B82B0B0EE419A40
:103A4000F0EE619A0B9820F000449FED4BABB4F17F
:103A5000795F11DA9DED0A0B51EC100BFDF721FB9C
:103A6000002801BFB0EE4A0AF0EE6A0A02B0BDECCF
:103A7000088B04BF04B010BD9DED0A0B53EC102B56
:103A800051EC100BFCF791FE41EC180B3C48062161
:103A9000B0EE480AF0EE680A784400F081F853EC82
:103AA000182B51EC100BFCF780FE9DED0A0B41EC3E
:103AB0001B0B53EC192B51EC100BFCF776FE41EC71
:103AC000190B53EC1B2B51EC180BFCF76EFE53EC4F
:103AD000192BFCF764FE9FED2C0B41EC190B53ECFA
:103AE000102B51EC180BFCF760FE41EC100B284832
:103AF000844210DA53EC192B51EC100BFCF74FFEFB
:103B000053EC1A2BFCF74EFE41EC100B02B0BDEC4F
:103B1000088B04B010BD1F48A042BCBF9FED1E1B08
:103B20008DED001B06DBA4F5001001900020009035
:103B30009DED001B51EC100B53EC112BFCF72FFEED
:103B40009DED000B41EC180B53EC102B51EC1A0BB4
:103B5000FCF725FE41EC1A0B53EC192B51EC180B1A
:103B6000FCF71DFE53EC1A2BFCF71CFE41EC100B6E
:103B7000CCE7000000000000000000000000F03F63
:103B80009C19000000000000000000000000E03F61
:103B90003333D33F0000E93F000000000000D23F74
:103BA00070B504462DED028B4D1E00EBC500B0EE46
:103BB000408AF0EE608A90ED000B35F0060017D0D9
:103BC00053EC182B51EC100BFCF7EFFD41EC100BF4
:103BD0006D1E04EBC50090ED001B51EC100B53EC77
:103BE000112BFCF73BFD41EC100B35F00600E7D143
:103BF000022D36D0042D1CD0062D1CBFBDEC028B2F
:103C000070BD53EC182B51EC100BFCF7CEFD94ED6E
:103C10000A1B53EC112BFCF721FD53EC182BFCF77E
:103C2000C4FD94ED081B53EC112BFCF717FD41EC80
:103C3000100B53EC182B51EC100BFCF7B6FD94ED68
:103C4000061B53EC112BFCF709FD53EC182BFCF76A
:103C5000ACFD94ED040B53EC102BFCF7FFFC41EC96
:103C6000100B53EC182B51EC100BFCF79EFD94ED50
:103C7000021B53EC112BFCF7F1FC53EC182BFCF757
:103C800094FD94ED001B53EC112BFCF7E7FCBDEC0D
:103C9000028B41EC100B70BD31B504462DED040BC9
:103CA0002DED0A8BB0EE41BAF0EE61BA0B989DEDA6
:103CB0000A0B20F00040B0F1795F0DDA51EC100BE7
:103CC000FFF768FB042808BF00F09AF89DED0A0B87
:103CD000BDEC0A8B05B030BD53EC102B51EC100B32
:103CE000FCF763FD41EC180B9DED0A0B53EC182B10
:103CF00051EC100BFCF759FD41EC190B2C48B0EEC0
:103D0000480AF0EE680A05217844FFF749FF9FED65
:103D10002ACBB0EE40AAF0EE60AA9CB353EC1C2B69
:103D200051EC190BFCF741FD41EC1C0B53EC1A2B29
:103D300051EC190BFCF739FD9FED210B41EC190BF0
:103D400053EC102B51EC1B0BFCF72FFD53EC192BF4
:103D5000FCF725FD53EC182BFCF727FD53EC1B2B30
:103D6000FCF71DFD53EC1C2BFCF719FD9DED0A1B08
:103D700053EC112BFCF716FDBDEC0A8B05B041ECA2
:103D8000100B30BDFFE753EC1A2B51EC180BFCF76E
:103D90000CFD53EC1C2BFCF761FC53EC192BFCF7CE
:103DA00004FD9DED0A1B53EC112BFCF757FCE3E7D8
:103DB0002418000000000000495555555555C5BF51
:103DC000000000000000E03F10B553EC102B51EC58
:103DD000100BFCF743FC41EC100B10BD0000000081
:103DE0009FED050B10B553EC102B51EC100BFCF7AD
:103DF0004EFD41EC100B10BD000000000000000063
:103E00009FED050B10B553EC102B51EC100BFCF78C
:103E1000CCFC41EC100B10BD0000000000000010B5
:103E200002E008C8121F08C1002AFAD17047704783
:103E3000002001E001C1121F002AFBD170470000E1
:103E40000149086070470000340000202DE9FF5F41
:103E500082B00021DDE90430020DDDF840B00343FB
:103E600018D044F61050A2F2FF32424315141198B4
:103E700001281FD0A5EB0B00401C5FEA000A4FF0A1
:103E800000064E4FDFF83891B046504615D5CAF1BE
:103E9000000413E0119801244AA3012801D16FEA1C
:103EA0000B010298119AC0E90031C0E9024206B044
:103EB000BDE8F09FCBF10000DFE704460021404A57
:103EC000491842EB0450CDE9001012E0E00707D09A
:103ED00032463B4640464946FCF767FC80468946E9
:103EE00032463B4610461946FCF75FFC06460F4635
:103EF0006410002CEAD1DDE90401DDE90023BAF108
:103F0000000F06DAFCF751FC42464B46FCF74DFC2D
:103F100005E0FCF7BCFC42464B46FCF7B8FC044607
:103F20000E460022284BFCF7E7FE03D84FF0FF3087
:103F3000014607E00022254B20463146FCF78EFB68
:103F4000FCF7C1FE102409E0002C0ADB0A22002342
:103F5000FCF738F9039B30321A55641E50EA01020F
:103F6000F2D1641C039AC4F111031444119A012A7A
:103F700003D0012208430DD10AE0084304D00020F9
:103F80004FF0110B119072E7A3EB0B056D1E0DE0C6
:103F90005B4504DD4FF0000205F1010504E003DAA2
:103FA0004FF00002A5F10105002AECD0029811990A
:103FB000C0E90231C0E9004579E700000000144083
:103FC0000000F03F300000000000F0430000E03F40
:103FD00030380A2801D201207047002070470000C5
:103FE0002DE9FF4F95B09A46884606460025EEE13A
:103FF000252877D100242746F94A0121039400E0BF
:10400000044316F8013F203B01FA03F01042F7D1B8
:1040100030782A2811D06FF02F033078A0F13002C9
:10402000092A16D8039A44F0020402EB820203EB39
:1040300042021044761C0390EFE758F8042B0392D9
:10404000002A03DA504244F40054039044F002047E
:10405000761C30782E2816D116F8010F44F004048F
:104060002A280DD06FF02F023078A0F13003092BF1
:1040700009D807EB870302EB4303C718761CF3E765
:1040800058F8047B761C30786C280FD006DC4C285E
:1040900017D068280DD06A2814D104E0742810D0F5
:1040A0007A280FD10DE044F400140AE044F480149F
:1040B00001E044F440147278824202D104F5801485
:1040C000761C761C307866280BD013DC582877D005
:1040D00009DC002875D04528F6D04628F4D04728BA
:1040E0001AD193E118E0632835D0642879D0652887
:1040F00012D18BE1702873D008DC6728F1D06928D1
:104100006FD06E280DD06F2806D1ACE073282CD06C
:10411000752874D0782853D05246179990476D1C53
:1041200054E1C4F30250022809D003280DD0D8F876
:10413000001004280DD00D6008F1040846E1D8F8FD
:104140000010EA17C1E90052F6E7D8F800100D8018
:10415000F2E70D70F0E718F8041B8DF8001000204E
:104160008DF80100EB46012003E058F804BB4FF046
:10417000FF3061074FF0000102D40DE009F10101A9
:104180008946B9420FDA8145F8DB1BF8091000298E
:10419000F4D108E009F1010189468142FADB1BF8FC
:1041A00009100029F6D103985346A0EB09072146D0
:1041B0003846179A00F080FA284400EB090507E01A
:1041C00044E008E10DE01BF8010B524617999047B7
:1041D000B9F10109F7D2534621463846179AF2E061
:1041E00039E00A21C4F302524FF0000B0091022A79
:1041F00006D058F8040BC117032A09D00AE023E0BF
:1042000008F1070020F00702F2E80201904605E0FD
:1042100000B2C117042A01D140B2C117002906DA41
:104220000A460021404261EB02012D2202E02205F4
:1042300004D52B228DF80420012203E0E20701D0EF
:104240002022F7E7914657E00A2100E010214FF0C5
:10425000000B00910BE010214FF0000B44F0040420
:104260000827009103E008204FF0000B0090C4F3F2
:104270000252022A05D058F8040B0021032A08D064
:1042800008E008F1070020F00702F2E8020190467A
:1042900003E080B2042A00D1C0B24FF00009220727
:1042A0002AD53278702A07D0DDF800C08CF0100CC7
:1042B0005CEA0B0C05D00EE040228DF804200122B0
:1042C00008E050EA010306D030238DF804308DF861
:1042D000052002229146009B83F0080353EA0B035A
:1042E0000AD150EA010201D1620705D530228DF8CA
:1042F00004204FF001097F1E3278582A04D039A2D9
:104300000C920CAA02920BE03BA2F9E75B46009AE2
:10431000FBF758FF0C9B9B5C029A521E0292137093
:1043200050EA0102F2D1029804A9081A00F1200B08
:10433000600702D524F4803400E001275F4502DDE8
:10434000A7EB0B0000E0002000EB0B0100900398AE
:104350004944401A0390E00306D453462146179A75
:10436000039800F0A9F90544002706E001A8524689
:10437000C05D179990476D1C7F1C4F45F6DBE0032D
:104380000CD553462146179A039800F095F9054439
:1043900004E030205246179990476D1C0099481E42
:1043A00000900029F5DC08E0029802995246007856
:1043B000491C0291179990476D1CBBF10001ABF1AC
:1043C000010BF1DC5BE100F065F90544761C307807
:1043D00000287FF40DAE19B02846BDE8F08F00002C
:1043E00009280100303132333435363738396162CB
:1043F000636465660000000030313233343536378F
:10440000383941424344454600000000600700D46B
:10441000062708F1070020F00700F0E80223804695
:1044200003F0004C5FEA0C0001D097A009E02005E2
:1044300001D596A005E0E00701D095A001E0AFF21C
:104440004C001390307823F0004365280CD006DC34
:10445000452809D046281DD047287FD13BE0662853
:1044600018D067287AD136E00021112F01DB112006
:1044700000E0781CCDE9000104A90CA8FFF7E6FCD8
:10448000DDE90D010C9A4FF0000B07F101091092C4
:1044900000914EE04FF000400097CDE9011004A9D3
:1044A0000CA8FFF7D3FCDDE90D020C9B0F994FF030
:1044B000000B91461093009211B9791C00EB010991
:1044C000B7EB090003D4C0F1FF3B07F10109A9EBE9
:1044D0000700019042E0012F00DA01270021112F8F
:1044E00001DD112000E03846CDE9000104A90CA847
:1044F000FFF7ACFCDDE90D010C9A00914FF0000BC9
:10450000B946109221070FD4009A4A4503DA914622
:1045100001E0A9F10109B9F1010F05DD109AA9F136
:104520000101515C3029F4D0B84202DA10F1040FD5
:1045300003DA0121CDE9011010E0002803DC8344F7
:10454000A9EB000102E0411C494500DD8946A0EBD2
:104550000B00401C01904FF000400290200705D452
:104560000198484502DB4FF0FF30019000208DF8A4
:104570004B0002980DF14B07B0F1004F25D00220FF
:104580000C902B200D90029800280CDA40420290EB
:104590002D200D9007E00A210298FCF727FA303110
:1045A000029007F8011D0C99481E0C900029F2DCBE
:1045B00002980028EFD1791E0D980870307800F02D
:1045C000200040F0450007F8020D11A8C01BC01DD7
:1045D00002901398007800B1012000EB09010198C6
:1045E00001EBE071029801440398401A401E0390C9
:1045F000E00306D453462146179A039800F05CF86E
:1046000005441398007818B15246179990476D1CCD
:10461000E00323D553462146179A039800F04CF83F
:1046200005441BE0BBF1000F07DB0098584504DD93
:104630001098179910F80B0001E017993020524696
:10464000904701980BF1010B401E05F10105019007
:1046500004D12E205246179990476D1CB9F10001E4
:10466000A9F10109DEDC05E017F8010B52461799A4
:1046700090476D1C0299481E02900029F4DC5346B5
:104680002146179A03989EE62D0000002B0000009B
:10469000200000002DE9F041044600251E46174683
:1046A000880404D405E039462020B0476D1C641E00
:1046B000F9D52846BDE8F0812DE9F04104460025F2
:1046C0001E469046C80301D5302700E02027880405
:1046D00004D505E041463846B0476D1C641EF9D547
:1046E0002846BDE8F0814A68002A06D00A68531CB3
:1046F0000B6010704868401E486070470A68531C81
:104700000B6010707047000070B500244FF47A758C
:104710002A4606A106A000F013F9002804D0641C64
:10472000E4B20A2CF4D3012070BD00004F4B00000E
:104730004154000010B500F051F90CA000F026F92A
:104740004FF47A7422460AA1002000F0F9F858B913
:1047500000F044F906A000F019F9224605A1002056
:1047600000F0EEF8002800D0012010BD2B2B2B000C
:1047700061746B004F4B000010B54FF47A7204A1C6
:1047800004A000F0DDF8002800D0012010BD0000DA
:104790004F4B000041544F0000B58DB020B10128AF
:1047A00004D003200DB000BD08A200E008A20AA1B9
:1047B0006846FEF7C9FD4FF47A720BA1684600F017
:1047C000BFF80028EED00120ECE700004745540078
:1047D000504F53540000000041542B485454504D46
:1047E000443D2225732200004F4B000000B58DB0E0
:1047F00007A16846FEF7A8FD4FF47A7208A1684643
:1048000000F09EF8002800D001200DB000BD00008F
:1048100041542B48545450544D3D22313022000015
:104820004F4B000000B5B3B0024607A16846FEF743
:104830008BFD4FF47A7208A1684600F081F80028D9
:1048400000D0012033B000BD41542B485454505582
:10485000524C3D22257322004F4B000010B5FFF74C
:1048600069FFFFF751FF002800D0012010BD0000B4
:1048700000B589B0072820D2DFE800F0040615173C
:10488000191B1D000EA100E011A16846FEF75CFD9A
:104890004FF47A7212A1684600F052F8002800D056
:1048A000012009B000BD0FA1EFE712A1EDE716A1AD
:1048B000EBE71AA1E9E71EA1E7E70320F1E7000013
:1048C00041542B574F524B3D224E4554220000007D
:1048D00041542B574F524B3D224854545022000014
:1048E0004F4B000041542B574F524B3D224D5154DA
:1048F0005422000041542B574F524B3D22414C490A
:1049000059554E220000000041542B574F524B3D49
:10491000224F4E454E4554220000000041542B5773
:104920004F524B3D22424149445559554E220000B9
:1049300041542B574F524B3D22524E444953220073
:1049400070B514460E46050005D000F047F829461C
:104950000CA000F01BF846B13CB100BF00F02EF8EF
:1049600038B13146FBF787FC08B1002070BD00F07C
:1049700035F80120641EFCF7ADFC002CEED10220BE
:1049800070BD000025730D0A000000000FB4094837
:1049900010B503AA0299FEF7EBFC0648FBF77DFC75
:1049A00082B24FF0FF3303490348FDF7EDFF10BC1F
:1049B0005DF814FB32070020100100200649B1F811
:1049C0000004020405D5C0F30E0000220A54084674
:1049D0007047002070470000300300200348B0F803
:1049E00000146FF30F01A0F800147047300300208B
:1049F00070B5224A1F4C20482DED028BB2F90430CD
:104A0000A1685AB2F1B1012923D000259FED1C8A7B
:104A10001C4E02290DD009B3032924D004290ED13C
:104A200094F904108B420ADD227100228021FCF7E8
:104A30005BFDA560657186ED038A86ED028ABDEC9B
:104A4000028B70BD94F904108B4207DD0120A06039
:104A5000227160790128F2D1022009E061790129EF
:104A6000EDD10321A16001228021FCF73DFD04204E
:104A7000A060E4E7240000200010024010030020A2
:104A8000000000001C03002082B0CDE9000121F0ED
:104A9000004001909DED000B02B051EC100B7047EF
:104AA0002DE9F0411B4D1C4FDFF87080286801266E
:104AB000C1191B4C414508D8FCF71CFD00EE100A3B
:104AC000B8EE400A85ED020A26706868C1194145B2
:104AD00008D8FCF70FFD00EE100AB8EE400A85ED8D
:104AE000030A66702078002811D0607800280ED064
:104AF000D5ED030A95ED020A0020F4EEC00AF1EEAE
:104B000010FA01DD667100E0607160702070BDE830
:104B1000F08100001C0300203333B3C13333330171
:104B200024000020FCF7F4FCFEF706F9FDF77EFFF9
:104B3000FEF718F8FEF738F8FDF7C0FFFEF750F85B
:104B40004FF47A742046FCF7C5FBFEF771F8204657
:104B5000FCF7C0FB0A4C00BFFCF724FB00F03AF85E
:104B6000FEF78EF8C820FCF7B5FB00F00BF82068C4
:104B700008B1012801D1FFF793FFFFF739FFEBE7F9
:104B80002C00002070B564230B220E490E48FDF75F
:104B9000FBFE0E4D012419222C700D490A48FDF729
:104BA000A5FE0B480A49643002688260D1F83F10C4
:104BB00009BA8A4204D001608188491C81806C70E6
:104BC00070BD000025540008C8000020200000200F
:104BD000AC0200202DE9F04F794C00272DED028B1F
:104BE00085B094F8500000287DD0BB46204684F85C
:104BF00050B000F15D0102910D317830CDE9000136
:104C00000FE077B16D1C6FA12846FBF734FB06005F
:104C10000CD0082F15D2DFE807F0140A0FAEB2B798
:104C2000BBC068A16648FBF726FB0546BEE06448AA
:104C3000721B2946523002E0721B294603A8FBF77B
:104C4000F6FA94F85D0094F85E10303800EB8002BC
:104C50006FF02F0808EB420001EB000994F85F00A9
:104C600094F86010303800EB800208EB420001EB52
:104C7000000A554A55A150340298FBF723FB524DC8
:104C800095ED000AFDEEC00AF8EEE00A70EE600A4B
:104C900000EE10AAB8EEC00A9FED4D8A80EE081A09
:104CA00000EE109AB8EEC00A31EE000A80EE881AC3
:104CB00030EE010A85ED000AA07E217F303800EB3E
:104CC000C00202EB001001EB8000E17E414A01EBE3
:104CD000810102EB410100EB0109607FA17F3038C7
:104CE00000EB800200E066E008EB420001EB000808
:104CF0002A1D36A10198FBF7E5FA95ED010A304926
:104D0000FDEEC00A8031081DF8EEE00A30EE600AC0
:104D100000EE908AF8EEE00A80EE881A00EE909A93
:104D2000F8EEE00A71EE200A80EE081A30EE810AF1
:104D300085ED010AD5ED000AC4ED0C0A84ED0D0ADB
:104D400000F0ACFA1E4A21A188320098FBF7BAFAAB
:104D500094ED0E0ADFED200A0120354680EE201A80
:104D600084ED0E1A60709DF80C10503C412918D04B
:104D700056291BD118E0721B294602985FE710489C
:104D8000721B294668305AE7721B2946019856E77C
:104D90000B48721B2946763051E7721B2946009852
:104DA0004DE784F87D0001E084F87DB07F1CFFB200
:104DB000072F7FF626AF05B0BDEC028BBDE8F08F64
:104DC000200200202C0000001800002025660000B2
:104DD00000007042F0FDFFFF560EED3F10B52DEDC7
:104DE0000E8BF0EE408AB0EE608A18EE900AFBF768
:104DF000CEFD41EC100BFBF716FAFBF7B7FD41ECCB
:104E0000100BFEF7B9FB9FED7C1B51EC100B53EC24
:104E1000112BFBF7CAFC41EC190B9FED790AB0EEA0
:104E200000AAB0EE08EA08EE8A0A08EE0E0ADFEDE4
:104E3000750A68EE200A00EE880ADFED730A68EE54
:104E4000A00A00EE880A10EE100AFBF7A0FD53EC52
:104E5000192BFBF703FCFBF7ADFD28EE8A0A04468D
:104E60009FED6A9A20EE090A10EE100AFBF78FFDFB
:104E700041EC100BFEF71CFB9FED65AB51EC100BEA
:104E800053EC1A2BFBF791FCB1EE080A41EC1B0B1B
:104E900028EE800A20EE090A10EE100AFBF777FDD3
:104EA00041EC100BFEF704FB53EC1A2B51EC100BEA
:104EB000FBF77BFC53EC1B2BFBF7D0FB9FED56BBAA
:104EC00053EC1B2BFBF771FC9FED55CB53EC1C2BCC
:104ED000FBF7DDFC41EC1D0B2046FBF758FD53ECC6
:104EE0001D2BFBF7BBFBFBF765FD88EE0E0A0446A6
:104EF00020EE090A10EE100AFBF749FD41EC100BF9
:104F0000FEF7D6FA9FED481B51EC100B53EC112B1A
:104F1000FBF74BFC68EE098A41EC1D0B18EE900A7A
:104F2000FBF735FD41EC100BFEF7C2FA53EC1A2BE0
:104F300051EC100BFBF739FC53EC1D2BFBF78EFBF0
:104F400053EC1B2BFBF731FC53EC1C2BFBF79FFCAA
:104F500041EC1A0B2046FBF71AFD53EC1A2BFBF71A
:104F60007DFBFBF727FDF3EE0E0A044688EEA00A50
:104F700010EE100AFBF70BFD41EC100BFEF798FA50
:104F80009FED2B1B51EC100B53EC112BFBF70DFC81
:104F9000F2EE080A41EC1A0B88EE200A20EE090A0C
:104FA00010EE100AFBF7F3FC41EC100BFEF780FA51
:104FB0009FED211B51EC100B53EC112BFBF7F5FB74
:104FC00053EC1A2BFBF74AFB53EC1B2BFBF7EDFBC7
:104FD00053EC1C2BFBF75BFC41EC180B2046FBF75A
:104FE000D6FC53EC182BFBF739FBFBF7E3FCBDECCD
:104FF0000E8B00EE100A10BD000000A09999C93F69
:105000000000C8C2CDCC4C3ECDCCCC3DDB0F4940DE
:1050100000000000000034400000000000000040DC
:1050200000000000000008400000000000004440B4
:105030000000000000007440000000000000644018
:1050400010B52DED0A8BB0EE408AF0EE608A18EEB6
:10505000100AFBF79CFC41EC100BFBF7E4F8FBF7A4
:1050600085FC41EC100BFEF787FA9FED7B1B51ECA2
:10507000100B53EC112BFBF798FB41EC190B9FED38
:10508000780AB0EE00AA38EE000A08EE8A0ADFEDD0
:10509000750A68EE200A00EE880A00EEA80A10EEF3
:1050A000100AFBF774FC53EC192BFBF7D7FAFBF74C
:1050B00081FC28EE0A0A0446DFED6B8A20EE280AFE
:1050C00010EE100AFBF763FC41EC100BFEF7F0F951
:1050D0009FED669B51EC100B53EC192BFBF765FB16
:1050E000B1EE080A41EC1A0B28EE000A20EE280A5D
:1050F00010EE100AFBF74BFC41EC100BFEF7D8F951
:1051000053EC192B51EC100BFBF74FFB53EC1A2B04
:10511000FBF7A4FA9FED57AB53EC1A2BFBF745FBBB
:105120009FED56BB53EC1B2BFBF7B1FB41EC1C0B6B
:105130002046FBF72CFC53EC1C2BFBF78FFAFBF7FC
:1051400039FCF0EE080A044688EE200A20EE280A10
:1051500010EE100AFBF71BFC41EC100BFEF7A8F950
:105160009FED481B51EC100B53EC112BFBF71DFB73
:1051700028EE280A41EC1C0B10EE100AFBF707FC86
:1051800041EC100BFEF794F953EC192B51EC100B7A
:10519000FBF70BFB53EC1C2BFBF760FA53EC1A2BC1
:1051A000FBF703FB53EC1B2BFBF771FB41EC190BDB
:1051B0002046FBF7ECFB53EC192BFBF74FFAFBF700
:1051C000F9FBF3EE0E0A044688EE200A20EE280AC8
:1051D00010EE100AFBF7DBFB41EC100BFEF768F951
:1051E0009FED2A1B51EC100B53EC112BFBF7DDFA52
:1051F000F2EE080A41EC190B88EE200A20EE280A8C
:1052000010EE100AFBF7C3FB41EC100BFEF750F950
:105210009FED201B51EC100B53EC112BFBF7C5FA43
:1052200053EC192BFBF71AFA53EC1A2BFBF7BDFAC8
:1052300053EC1B2BFBF72BFB41EC180B2046FBF729
:10524000A6FB53EC182BFBF709FAFBF7B3FBBDECFD
:105250000A8B00EE100A10BD000000A09999B93F1A
:1052600000009643CDCCCC3DDB0F49400000000050
:10527000000034400000000000000040000000007A
:105280000000084000000000000044400000000052
:1052900000C072400000000000C0624070B50C46C3
:1052A0002DED088B054691ED000A9FED488A70EEC2
:1052B000480A90ED000ADFED468A30EE680AFFF7F3
:1052C0008DFDB0EE40AA94ED000A70EE480A95ED0F
:1052D000000A30EE680AFFF7B3FED4ED000ADFEDF6
:1052E0003D9AF0EE40AA9FED3CBA80EEA90A60EE2E
:1052F0000B8A18EE900AFBF74AFB41EC100BFEF705
:10530000D7F851EC100BFBF755FB00EE900A9FED20
:10531000330AB7EE008A20EE800A00EE608A18EEAB
:10532000100AFBF734FB41EC100BFEF725F951ECAA
:10533000100BFBF73FFB09EE100A9FED291A18EE40
:10534000900A68EE090A81EE200A6AEE290A20EE28
:105350000B0A80EE80AAFBF71AFB41EC100BFEF75C
:1053600043F8F0EE608ADFED1F0AB0EE408A80EE6F
:10537000890A10EE100AFBF70AFB53EC182BFBF717
:1053800014FA9FED191B53EC112BFBF70EFA2AEEC2
:10539000A90A41EC180B10EE100AFBF7F8FA53ECCF
:1053A000182BFBF774FAFBF705FBD4ED000A00EEAF
:1053B000100A95ED001A70EE8A0A31EE000AC4ED6B
:1053C000000A85ED000ABDEC088B70BD00000C42A0
:1053D0000000D24200003443DB0F49407D54DB3BE8
:1053E0008158C14A0AA6C24A00000060FB21094058
:1053F0000000000000000000010203040607080985
:1054000000000000010203040000FF0CF4555500E9
:1054100000000000000000000000000000FF03FD8D
:10542000D4140117000000FF04FCD44A0200E0007D
:105430000000FF00FF0000004C5555555555A53F95
:105440007751C1166CC156BF9015CB19A001FA3E19
:10545000AD529C804F7E92BEC4B1B4BD9EEE213E43
:10546000D43888BEE9FAA8BD00004054FB21F93FBA
:105470003163621A61B4D03D0000601A61B4D03D5E
:105480007370032E8A19A33B0000002E8A19A33BD8
:10549000C14920259A837B390000000000000000EC
:1054A0006E83F9A22915444ED15727FCC0DD34F58F
:1054B000999562DB4190433CAB6351FE61C5BBDE15
:1054C0003A6E24B7E0D24D42EA2E49061C92D10929
:1054D0001CEB1DFE3EA729B1F53582E88444BB2EA6
:1054E00026709CE9417E5FB439D69139F4395383F3
:1054F0008B5F849C3B28F9BDFF97F81F0F9805DE52
:105500008B112FEF1F6D0A5ACF7E366DB709CB274F
:10551000663F464F2DEA5F9EC7BA27757BF1E5EBE4
:10552000F739073DEA92528AB15FFB6B085D8D1F28
:10553000A6F810111111813FD561C119A0012ABF30
:105540007DFEB157E31DC73EEB9C2B8AE6E55ABEB4
:105550007CD5CF5A3AD9E53DDDDDDDDDDCBBBBDDF9
:10556000DDDDDDDDDDDDDDDD988888888888888803
:105570007777777777888888855555566666666623
:105580006666666666688888833333322222222202
:10559000222222222228888DB855000800000020EF
:1055A00038000000203E0008F055000838000020B8
:1055B000000D0000303E0008010000000100000066
:1055C00010000000000000000024F40000000000B3
:1055D00000000000000000000000000000000000CB
:1055E00000000000000000003333DC420000000037
:040000050800018965
:00000001FF
